{
  "contractName": "DividendPayingToken",
  "abi": [
    {
      "inputs": [
        {
          "internalType": "string",
          "name": "_name",
          "type": "string"
        },
        {
          "internalType": "string",
          "name": "_symbol",
          "type": "string"
        }
      ],
      "stateMutability": "nonpayable",
      "type": "constructor"
    },
    {
      "anonymous": false,
      "inputs": [
        {
          "indexed": true,
          "internalType": "address",
          "name": "owner",
          "type": "address"
        },
        {
          "indexed": true,
          "internalType": "address",
          "name": "spender",
          "type": "address"
        },
        {
          "indexed": false,
          "internalType": "uint256",
          "name": "value",
          "type": "uint256"
        }
      ],
      "name": "Approval",
      "type": "event"
    },
    {
      "anonymous": false,
      "inputs": [
        {
          "indexed": true,
          "internalType": "address",
          "name": "to",
          "type": "address"
        },
        {
          "indexed": false,
          "internalType": "uint256",
          "name": "weiAmount",
          "type": "uint256"
        }
      ],
      "name": "DividendWithdrawn",
      "type": "event"
    },
    {
      "anonymous": false,
      "inputs": [
        {
          "indexed": true,
          "internalType": "address",
          "name": "from",
          "type": "address"
        },
        {
          "indexed": false,
          "internalType": "uint256",
          "name": "weiAmount",
          "type": "uint256"
        }
      ],
      "name": "DividendsDistributed",
      "type": "event"
    },
    {
      "anonymous": false,
      "inputs": [
        {
          "indexed": true,
          "internalType": "address",
          "name": "previousOwner",
          "type": "address"
        },
        {
          "indexed": true,
          "internalType": "address",
          "name": "newOwner",
          "type": "address"
        }
      ],
      "name": "OwnershipTransferred",
      "type": "event"
    },
    {
      "anonymous": false,
      "inputs": [
        {
          "indexed": true,
          "internalType": "address",
          "name": "from",
          "type": "address"
        },
        {
          "indexed": true,
          "internalType": "address",
          "name": "to",
          "type": "address"
        },
        {
          "indexed": false,
          "internalType": "uint256",
          "name": "value",
          "type": "uint256"
        }
      ],
      "name": "Transfer",
      "type": "event"
    },
    {
      "inputs": [],
      "name": "BUSD",
      "outputs": [
        {
          "internalType": "address",
          "name": "",
          "type": "address"
        }
      ],
      "stateMutability": "view",
      "type": "function"
    },
    {
      "inputs": [
        {
          "internalType": "address",
          "name": "owner",
          "type": "address"
        },
        {
          "internalType": "address",
          "name": "spender",
          "type": "address"
        }
      ],
      "name": "allowance",
      "outputs": [
        {
          "internalType": "uint256",
          "name": "",
          "type": "uint256"
        }
      ],
      "stateMutability": "view",
      "type": "function"
    },
    {
      "inputs": [
        {
          "internalType": "address",
          "name": "spender",
          "type": "address"
        },
        {
          "internalType": "uint256",
          "name": "amount",
          "type": "uint256"
        }
      ],
      "name": "approve",
      "outputs": [
        {
          "internalType": "bool",
          "name": "",
          "type": "bool"
        }
      ],
      "stateMutability": "nonpayable",
      "type": "function"
    },
    {
      "inputs": [
        {
          "internalType": "address",
          "name": "account",
          "type": "address"
        }
      ],
      "name": "balanceOf",
      "outputs": [
        {
          "internalType": "uint256",
          "name": "",
          "type": "uint256"
        }
      ],
      "stateMutability": "view",
      "type": "function"
    },
    {
      "inputs": [],
      "name": "decimals",
      "outputs": [
        {
          "internalType": "uint8",
          "name": "",
          "type": "uint8"
        }
      ],
      "stateMutability": "view",
      "type": "function"
    },
    {
      "inputs": [
        {
          "internalType": "address",
          "name": "spender",
          "type": "address"
        },
        {
          "internalType": "uint256",
          "name": "subtractedValue",
          "type": "uint256"
        }
      ],
      "name": "decreaseAllowance",
      "outputs": [
        {
          "internalType": "bool",
          "name": "",
          "type": "bool"
        }
      ],
      "stateMutability": "nonpayable",
      "type": "function"
    },
    {
      "inputs": [
        {
          "internalType": "address",
          "name": "spender",
          "type": "address"
        },
        {
          "internalType": "uint256",
          "name": "addedValue",
          "type": "uint256"
        }
      ],
      "name": "increaseAllowance",
      "outputs": [
        {
          "internalType": "bool",
          "name": "",
          "type": "bool"
        }
      ],
      "stateMutability": "nonpayable",
      "type": "function"
    },
    {
      "inputs": [],
      "name": "name",
      "outputs": [
        {
          "internalType": "string",
          "name": "",
          "type": "string"
        }
      ],
      "stateMutability": "view",
      "type": "function"
    },
    {
      "inputs": [],
      "name": "owner",
      "outputs": [
        {
          "internalType": "address",
          "name": "",
          "type": "address"
        }
      ],
      "stateMutability": "view",
      "type": "function"
    },
    {
      "inputs": [],
      "name": "renounceOwnership",
      "outputs": [],
      "stateMutability": "nonpayable",
      "type": "function"
    },
    {
      "inputs": [],
      "name": "symbol",
      "outputs": [
        {
          "internalType": "string",
          "name": "",
          "type": "string"
        }
      ],
      "stateMutability": "view",
      "type": "function"
    },
    {
      "inputs": [],
      "name": "totalDividendsDistributed",
      "outputs": [
        {
          "internalType": "uint256",
          "name": "",
          "type": "uint256"
        }
      ],
      "stateMutability": "view",
      "type": "function"
    },
    {
      "inputs": [],
      "name": "totalSupply",
      "outputs": [
        {
          "internalType": "uint256",
          "name": "",
          "type": "uint256"
        }
      ],
      "stateMutability": "view",
      "type": "function"
    },
    {
      "inputs": [
        {
          "internalType": "address",
          "name": "recipient",
          "type": "address"
        },
        {
          "internalType": "uint256",
          "name": "amount",
          "type": "uint256"
        }
      ],
      "name": "transfer",
      "outputs": [
        {
          "internalType": "bool",
          "name": "",
          "type": "bool"
        }
      ],
      "stateMutability": "nonpayable",
      "type": "function"
    },
    {
      "inputs": [
        {
          "internalType": "address",
          "name": "sender",
          "type": "address"
        },
        {
          "internalType": "address",
          "name": "recipient",
          "type": "address"
        },
        {
          "internalType": "uint256",
          "name": "amount",
          "type": "uint256"
        }
      ],
      "name": "transferFrom",
      "outputs": [
        {
          "internalType": "bool",
          "name": "",
          "type": "bool"
        }
      ],
      "stateMutability": "nonpayable",
      "type": "function"
    },
    {
      "inputs": [
        {
          "internalType": "address",
          "name": "newOwner",
          "type": "address"
        }
      ],
      "name": "transferOwnership",
      "outputs": [],
      "stateMutability": "nonpayable",
      "type": "function"
    },
    {
      "inputs": [
        {
          "internalType": "uint256",
          "name": "amount",
          "type": "uint256"
        }
      ],
      "name": "distributeBUSDDividends",
      "outputs": [],
      "stateMutability": "nonpayable",
      "type": "function"
    },
    {
      "inputs": [],
      "name": "withdrawDividend",
      "outputs": [],
      "stateMutability": "nonpayable",
      "type": "function"
    },
    {
      "inputs": [
        {
          "internalType": "address",
          "name": "_owner",
          "type": "address"
        }
      ],
      "name": "dividendOf",
      "outputs": [
        {
          "internalType": "uint256",
          "name": "",
          "type": "uint256"
        }
      ],
      "stateMutability": "view",
      "type": "function"
    },
    {
      "inputs": [
        {
          "internalType": "address",
          "name": "_owner",
          "type": "address"
        }
      ],
      "name": "withdrawableDividendOf",
      "outputs": [
        {
          "internalType": "uint256",
          "name": "",
          "type": "uint256"
        }
      ],
      "stateMutability": "view",
      "type": "function"
    },
    {
      "inputs": [
        {
          "internalType": "address",
          "name": "_owner",
          "type": "address"
        }
      ],
      "name": "withdrawnDividendOf",
      "outputs": [
        {
          "internalType": "uint256",
          "name": "",
          "type": "uint256"
        }
      ],
      "stateMutability": "view",
      "type": "function"
    },
    {
      "inputs": [
        {
          "internalType": "address",
          "name": "_owner",
          "type": "address"
        }
      ],
      "name": "accumulativeDividendOf",
      "outputs": [
        {
          "internalType": "uint256",
          "name": "",
          "type": "uint256"
        }
      ],
      "stateMutability": "view",
      "type": "function"
    }
  ],
  "bytecode": "0x60806040523480156200001157600080fd5b506040516200152538038062001525833981016040819052620000349162000237565b8151829082906200004d906003906020850190620000de565b50805162000063906004906020840190620000de565b505050620000806200007a6200008860201b60201c565b6200008c565b5050620002f1565b3390565b600580546001600160a01b038381166001600160a01b0319831681179093556040519116919082907f8be0079c531659141344cd1fd0a4f28419497f9722a3daafe3b4186f6b6457e090600090a35050565b828054620000ec906200029e565b90600052602060002090601f0160209004810192826200011057600085556200015b565b82601f106200012b57805160ff19168380011785556200015b565b828001600101855582156200015b579182015b828111156200015b5782518255916020019190600101906200013e565b50620001699291506200016d565b5090565b5b808211156200016957600081556001016200016e565b600082601f83011262000195578081fd5b81516001600160401b0380821115620001b257620001b2620002db565b604051601f8301601f19908116603f01168101908282118183101715620001dd57620001dd620002db565b81604052838152602092508683858801011115620001f9578485fd5b8491505b838210156200021c5785820183015181830184015290820190620001fd565b838211156200022d57848385830101525b9695505050505050565b600080604083850312156200024a578182fd5b82516001600160401b038082111562000261578384fd5b6200026f8683870162000184565b9350602085015191508082111562000285578283fd5b50620002948582860162000184565b9150509250929050565b600181811c90821680620002b357607f821691505b60208210811415620002d557634e487b7160e01b600052602260045260246000fd5b50919050565b634e487b7160e01b600052604160045260246000fd5b61122480620003016000396000f3fe608060405234801561001057600080fd5b50600436106101825760003560e01c8063715018a6116100d8578063a457c2d71161008c578063aafd847a11610066578063aafd847a14610338578063dd62ed3e1461036e578063f2fde38b146103b457600080fd5b8063a457c2d7146102ff578063a8b9d24014610312578063a9059cbb1461032557600080fd5b80638da5cb5b116100bd5780638da5cb5b146102c657806391b89fba146102e457806395d89b41146102f757600080fd5b8063715018a6146102b557806385a6b3ae146102bd57600080fd5b8063313ce5671161013a578063484f4ea911610114578063484f4ea9146102375780636a4740021461027757806370a082311461027f57600080fd5b8063313ce56714610200578063395093511461020f57806340c2c69d1461022257600080fd5b806318160ddd1161016b57806318160ddd146101c857806323b872dd146101da57806327ce0147146101ed57600080fd5b806306fdde0314610187578063095ea7b3146101a5575b600080fd5b61018f6103c7565b60405161019c9190610fe1565b60405180910390f35b6101b86101b3366004610f80565b610459565b604051901515815260200161019c565b6002545b60405190815260200161019c565b6101b86101e8366004610f45565b61046f565b6101cc6101fb366004610ef9565b61055a565b6040516012815260200161019c565b6101b861021d366004610f80565b6105d6565b610235610230366004610fc9565b61061f565b005b61025273e879d7ba401b0b8c3ec010001fb95de12024250081565b60405173ffffffffffffffffffffffffffffffffffffffff909116815260200161019c565b610235610741565b6101cc61028d366004610ef9565b73ffffffffffffffffffffffffffffffffffffffff1660009081526020819052604090205490565b61023561074a565b6101cc60095481565b60055473ffffffffffffffffffffffffffffffffffffffff16610252565b6101cc6102f2366004610ef9565b6107d7565b61018f6107e2565b6101b861030d366004610f80565b6107f1565b6101cc610320366004610ef9565b6108c9565b6101b8610333366004610f80565b610902565b6101cc610346366004610ef9565b73ffffffffffffffffffffffffffffffffffffffff1660009081526008602052604090205490565b6101cc61037c366004610f13565b73ffffffffffffffffffffffffffffffffffffffff918216600090815260016020908152604080832093909416825291909152205490565b6102356103c2366004610ef9565b61090f565b6060600380546103d69061116b565b80601f01602080910402602001604051908101604052809291908181526020018280546104029061116b565b801561044f5780601f106104245761010080835404028352916020019161044f565b820191906000526020600020905b81548152906001019060200180831161043257829003601f168201915b5050505050905090565b6000610466338484610a3c565b50600192915050565b600061047c848484600080fd5b73ffffffffffffffffffffffffffffffffffffffff8416600090815260016020908152604080832033845290915290205482811015610542576040517f08c379a000000000000000000000000000000000000000000000000000000000815260206004820152602860248201527f45524332303a207472616e7366657220616d6f756e742065786365656473206160448201527f6c6c6f77616e636500000000000000000000000000000000000000000000000060648201526084015b60405180910390fd5b61054f8533858403610a3c565b506001949350505050565b73ffffffffffffffffffffffffffffffffffffffff811660009081526007602090815260408083205491839052822054600654700100000000000000000000000000000000926105c6926105c1926105bb916105b69190610bef565b610c02565b90610c12565b610c50565b6105d091906110de565b92915050565b33600081815260016020908152604080832073ffffffffffffffffffffffffffffffffffffffff87168452909152812054909161046691859061061a9086906110c6565b610a3c565b60055473ffffffffffffffffffffffffffffffffffffffff1633146106a0576040517f08c379a000000000000000000000000000000000000000000000000000000000815260206004820181905260248201527f4f776e61626c653a2063616c6c6572206973206e6f7420746865206f776e65726044820152606401610539565b60006106ab60025490565b116106b557600080fd5b801561073e576106f56106c760025490565b6106e283700100000000000000000000000000000000610bef565b6106ec91906110de565b60065490610c63565b60065560405181815233907fa493a9229478c3fcd73f66d2cdeb7f94fd0f341da924d1054236d784541165119060200160405180910390a260095461073a9082610c63565b6009555b50565b61073e33610c6f565b60055473ffffffffffffffffffffffffffffffffffffffff1633146107cb576040517f08c379a000000000000000000000000000000000000000000000000000000000815260206004820181905260248201527f4f776e61626c653a2063616c6c6572206973206e6f7420746865206f776e65726044820152606401610539565b6107d56000610e4d565b565b60006105d0826108c9565b6060600480546103d69061116b565b33600090815260016020908152604080832073ffffffffffffffffffffffffffffffffffffffff86168452909152812054828110156108b2576040517f08c379a000000000000000000000000000000000000000000000000000000000815260206004820152602560248201527f45524332303a2064656372656173656420616c6c6f77616e63652062656c6f7760448201527f207a65726f0000000000000000000000000000000000000000000000000000006064820152608401610539565b6108bf3385858403610a3c565b5060019392505050565b73ffffffffffffffffffffffffffffffffffffffff81166000908152600860205260408120546105d0906108fc8461055a565b90610ec4565b6000610466338484600080fd5b60055473ffffffffffffffffffffffffffffffffffffffff163314610990576040517f08c379a000000000000000000000000000000000000000000000000000000000815260206004820181905260248201527f4f776e61626c653a2063616c6c6572206973206e6f7420746865206f776e65726044820152606401610539565b73ffffffffffffffffffffffffffffffffffffffff8116610a33576040517f08c379a000000000000000000000000000000000000000000000000000000000815260206004820152602660248201527f4f776e61626c653a206e6577206f776e657220697320746865207a65726f206160448201527f64647265737300000000000000000000000000000000000000000000000000006064820152608401610539565b61073e81610e4d565b73ffffffffffffffffffffffffffffffffffffffff8316610ade576040517f08c379a0000000000000000000000000000000000000000000000000000000008152602060048201526024808201527f45524332303a20617070726f76652066726f6d20746865207a65726f2061646460448201527f72657373000000000000000000000000000000000000000000000000000000006064820152608401610539565b73ffffffffffffffffffffffffffffffffffffffff8216610b81576040517f08c379a000000000000000000000000000000000000000000000000000000000815260206004820152602260248201527f45524332303a20617070726f766520746f20746865207a65726f20616464726560448201527f73730000000000000000000000000000000000000000000000000000000000006064820152608401610539565b73ffffffffffffffffffffffffffffffffffffffff83811660008181526001602090815260408083209487168084529482529182902085905590518481527f8c5be1e5ebec7d5bd14f71427d1e84f3dd0314c0f7b2291e5b200ac8c7c3b925910160405180910390a3505050565b6000610bfb8284611117565b9392505050565b600081818112156105d057600080fd5b600080610c1f8385611052565b905060008312158015610c325750838112155b80610c475750600083128015610c4757508381125b610bfb57600080fd5b600080821215610c5f57600080fd5b5090565b6000610bfb82846110c6565b600080610c7b836108c9565b90508015610e445773ffffffffffffffffffffffffffffffffffffffff8316600090815260086020526040902054610cb39082610c63565b73ffffffffffffffffffffffffffffffffffffffff8416600081815260086020526040908190209290925590517fee503bee2bb6a87e57bc57db795f98137327401a0e7b7ce42e37926cc1a9ca4d90610d0f9084815260200190565b60405180910390a26040517fa9059cbb00000000000000000000000000000000000000000000000000000000815273ffffffffffffffffffffffffffffffffffffffff841660048201526024810182905260009073e879d7ba401b0b8c3ec010001fb95de1202425009063a9059cbb90604401602060405180830381600087803b158015610d9c57600080fd5b505af1158015610db0573d6000803e3d6000fd5b505050506040513d601f19601f82011682018060405250810190610dd49190610fa9565b905080610e3d5773ffffffffffffffffffffffffffffffffffffffff8416600090815260086020526040902054610e0b9083610ec4565b73ffffffffffffffffffffffffffffffffffffffff909416600090815260086020526040812094909455509192915050565b5092915050565b50600092915050565b6005805473ffffffffffffffffffffffffffffffffffffffff8381167fffffffffffffffffffffffff0000000000000000000000000000000000000000831681179093556040519116919082907f8be0079c531659141344cd1fd0a4f28419497f9722a3daafe3b4186f6b6457e090600090a35050565b6000610bfb8284611154565b803573ffffffffffffffffffffffffffffffffffffffff81168114610ef457600080fd5b919050565b600060208284031215610f0a578081fd5b610bfb82610ed0565b60008060408385031215610f25578081fd5b610f2e83610ed0565b9150610f3c60208401610ed0565b90509250929050565b600080600060608486031215610f59578081fd5b610f6284610ed0565b9250610f7060208501610ed0565b9150604084013590509250925092565b60008060408385031215610f92578182fd5b610f9b83610ed0565b946020939093013593505050565b600060208284031215610fba578081fd5b81518015158114610bfb578182fd5b600060208284031215610fda578081fd5b5035919050565b6000602080835283518082850152825b8181101561100d57858101830151858201604001528201610ff1565b8181111561101e5783604083870101525b50601f017fffffffffffffffffffffffffffffffffffffffffffffffffffffffffffffffe016929092016040019392505050565b6000808212827f7fffffffffffffffffffffffffffffffffffffffffffffffffffffffffffffff0384138115161561108c5761108c6111bf565b827f80000000000000000000000000000000000000000000000000000000000000000384128116156110c0576110c06111bf565b50500190565b600082198211156110d9576110d96111bf565b500190565b600082611112577f4e487b710000000000000000000000000000000000000000000000000000000081526012600452602481fd5b500490565b6000817fffffffffffffffffffffffffffffffffffffffffffffffffffffffffffffffff048311821515161561114f5761114f6111bf565b500290565b600082821015611166576111666111bf565b500390565b600181811c9082168061117f57607f821691505b602082108114156111b9577f4e487b7100000000000000000000000000000000000000000000000000000000600052602260045260246000fd5b50919050565b7f4e487b7100000000000000000000000000000000000000000000000000000000600052601160045260246000fdfea264697066735822122039454484f3abf96cd83798a68145215e5f3f1859a543365b4aa92c21ac94510064736f6c63430008040033",
  "immutableReferences": {},
  "source": "// SPDX-License-Identifier: MIT\r\n\r\npragma solidity ^0.8.4;\r\n\r\nimport \"@openzeppelin/contracts/token/ERC20/ERC20.sol\";\r\nimport \"@openzeppelin/contracts/access/Ownable.sol\";\r\nimport \"@openzeppelin/contracts/utils/math/SafeMath.sol\";\r\nimport \"../math/SafeMathUint.sol\";\r\nimport \"../math/SafeMathInt.sol\";\r\nimport \"../interface/DividendPayingTokenInterface.sol\";\r\nimport \"../interface/DividendPayingTokenOptionalInterface.sol\";\r\n\r\n\r\n/// @title Dividend-Paying Token\r\n/// @author Roger Wu (https://github.com/roger-wu)\r\n/// @dev A mintable ERC20 token that allows anyone to pay and distribute ether\r\n///  to token holders as dividends and allows token holders to withdraw their dividends.\r\n///  Reference: the source code of PoWH3D: https://etherscan.io/address/0xB3775fB83F7D12A36E0475aBdD1FCA35c091efBe#code\r\ncontract DividendPayingToken is ERC20, Ownable, DividendPayingTokenInterface, DividendPayingTokenOptionalInterface {\r\n  using SafeMath for uint256;\r\n  using SafeMathUint for uint256;\r\n  using SafeMathInt for int256;\r\n\r\n  address public constant BUSD = address(0xE879D7Ba401b0b8c3ec010001fb95dE120242500); //BUSD\r\n\r\n\r\n  // With `magnitude`, we can properly distribute dividends even if the amount of received ether is small.\r\n  // For more discussion about choosing the value of `magnitude`,\r\n  //  see https://github.com/ethereum/EIPs/issues/1726#issuecomment-472352728\r\n  uint256 constant internal magnitude = 2**128;\r\n\r\n  uint256 internal magnifiedDividendPerShare;\r\n\r\n  // About dividendCorrection:\r\n  // If the token balance of a `_user` is never changed, the dividend of `_user` can be computed with:\r\n  //   `dividendOf(_user) = dividendPerShare * balanceOf(_user)`.\r\n  // When `balanceOf(_user)` is changed (via minting/burning/transferring tokens),\r\n  //   `dividendOf(_user)` should not be changed,\r\n  //   but the computed value of `dividendPerShare * balanceOf(_user)` is changed.\r\n  // To keep the `dividendOf(_user)` unchanged, we add a correction term:\r\n  //   `dividendOf(_user) = dividendPerShare * balanceOf(_user) + dividendCorrectionOf(_user)`,\r\n  //   where `dividendCorrectionOf(_user)` is updated whenever `balanceOf(_user)` is changed:\r\n  //   `dividendCorrectionOf(_user) = dividendPerShare * (old balanceOf(_user)) - (new balanceOf(_user))`.\r\n  // So now `dividendOf(_user)` returns the same value before and after `balanceOf(_user)` is changed.\r\n  mapping(address => int256) internal magnifiedDividendCorrections;\r\n  mapping(address => uint256) internal withdrawnDividends;\r\n\r\n  uint256 public totalDividendsDistributed;\r\n\r\n  constructor (string memory _name, string memory _symbol) ERC20(_name, _symbol) {\r\n\r\n  }\r\n\r\n\r\n  function distributeBUSDDividends(uint256 amount) public onlyOwner{\r\n    require(totalSupply() > 0);\r\n\r\n    if (amount > 0) {\r\n      magnifiedDividendPerShare = magnifiedDividendPerShare.add(\r\n        (amount).mul(magnitude) / totalSupply()\r\n      );\r\n      emit DividendsDistributed(msg.sender, amount);\r\n\r\n      totalDividendsDistributed = totalDividendsDistributed.add(amount);\r\n    }\r\n  }\r\n\r\n  /// @notice Withdraws the ether distributed to the sender.\r\n  /// @dev It emits a `DividendWithdrawn` event if the amount of withdrawn ether is greater than 0.\r\n  function withdrawDividend() public virtual override {\r\n    _withdrawDividendOfUser(payable(msg.sender));\r\n  }\r\n\r\n  /// @notice Withdraws the ether distributed to the sender.\r\n  /// @dev It emits a `DividendWithdrawn` event if the amount of withdrawn ether is greater than 0.\r\n function _withdrawDividendOfUser(address payable user) internal returns (uint256) {\r\n    uint256 _withdrawableDividend = withdrawableDividendOf(user);\r\n    if (_withdrawableDividend > 0) {\r\n      withdrawnDividends[user] = withdrawnDividends[user].add(_withdrawableDividend);\r\n      emit DividendWithdrawn(user, _withdrawableDividend);\r\n      bool success = IERC20(BUSD).transfer(user, _withdrawableDividend);\r\n\r\n      if(!success) {\r\n        withdrawnDividends[user] = withdrawnDividends[user].sub(_withdrawableDividend);\r\n        return 0;\r\n      }\r\n\r\n      return _withdrawableDividend;\r\n    }\r\n\r\n    return 0;\r\n  }\r\n\r\n\r\n  /// @notice View the amount of dividend in wei that an address can withdraw.\r\n  /// @param _owner The address of a token holder.\r\n  /// @return The amount of dividend in wei that `_owner` can withdraw.\r\n  function dividendOf(address _owner) public view override returns(uint256) {\r\n    return withdrawableDividendOf(_owner);\r\n  }\r\n\r\n  /// @notice View the amount of dividend in wei that an address can withdraw.\r\n  /// @param _owner The address of a token holder.\r\n  /// @return The amount of dividend in wei that `_owner` can withdraw.\r\n  function withdrawableDividendOf(address _owner) public view override returns(uint256) {\r\n    return accumulativeDividendOf(_owner).sub(withdrawnDividends[_owner]);\r\n  }\r\n\r\n  /// @notice View the amount of dividend in wei that an address has withdrawn.\r\n  /// @param _owner The address of a token holder.\r\n  /// @return The amount of dividend in wei that `_owner` has withdrawn.\r\n  function withdrawnDividendOf(address _owner) public view override returns(uint256) {\r\n    return withdrawnDividends[_owner];\r\n  }\r\n\r\n\r\n  /// @notice View the amount of dividend in wei that an address has earned in total.\r\n  /// @dev accumulativeDividendOf(_owner) = withdrawableDividendOf(_owner) + withdrawnDividendOf(_owner)\r\n  /// = (magnifiedDividendPerShare * balanceOf(_owner) + magnifiedDividendCorrections[_owner]) / magnitude\r\n  /// @param _owner The address of a token holder.\r\n  /// @return The amount of dividend in wei that `_owner` has earned in total.\r\n  function accumulativeDividendOf(address _owner) public view override returns(uint256) {\r\n    return magnifiedDividendPerShare.mul(balanceOf(_owner)).toInt256Safe()\r\n      .add(magnifiedDividendCorrections[_owner]).toUint256Safe() / magnitude;\r\n  }\r\n\r\n  /// @dev Internal function that transfer tokens from one address to another.\r\n  /// Update magnifiedDividendCorrections to keep dividends unchanged.\r\n  /// @param from The address to transfer from.\r\n  /// @param to The address to transfer to.\r\n  /// @param value The amount to be transferred.\r\n  function _transfer(address from, address to, uint256 value) internal virtual override {\r\n    require(false);\r\n\r\n    int256 _magCorrection = magnifiedDividendPerShare.mul(value).toInt256Safe();\r\n    magnifiedDividendCorrections[from] = magnifiedDividendCorrections[from].add(_magCorrection);\r\n    magnifiedDividendCorrections[to] = magnifiedDividendCorrections[to].sub(_magCorrection);\r\n  }\r\n\r\n  /// @dev Internal function that mints tokens to an account.\r\n  /// Update magnifiedDividendCorrections to keep dividends unchanged.\r\n  /// @param account The account that will receive the created tokens.\r\n  /// @param value The amount that will be created.\r\n  function _mint(address account, uint256 value) internal override {\r\n    super._mint(account, value);\r\n\r\n    magnifiedDividendCorrections[account] = magnifiedDividendCorrections[account]\r\n      .sub( (magnifiedDividendPerShare.mul(value)).toInt256Safe() );\r\n  }\r\n\r\n  /// @dev Internal function that burns an amount of the token of a given account.\r\n  /// Update magnifiedDividendCorrections to keep dividends unchanged.\r\n  /// @param account The account whose tokens will be burnt.\r\n  /// @param value The amount that will be burnt.\r\n  function _burn(address account, uint256 value) internal override {\r\n    super._burn(account, value);\r\n\r\n    magnifiedDividendCorrections[account] = magnifiedDividendCorrections[account]\r\n      .add( (magnifiedDividendPerShare.mul(value)).toInt256Safe() );\r\n  }\r\n\r\n  function _setBalance(address account, uint256 newBalance) internal {\r\n    uint256 currentBalance = balanceOf(account);\r\n\r\n    if(newBalance > currentBalance) {\r\n      uint256 mintAmount = newBalance.sub(currentBalance);\r\n      _mint(account, mintAmount);\r\n    } else if(newBalance < currentBalance) {\r\n      uint256 burnAmount = currentBalance.sub(newBalance);\r\n      _burn(account, burnAmount);\r\n    }\r\n  }\r\n}\r\n",
  "sourcePath": "C:\\Users\\aceso\\Desktop\\Contracts\\JEWELS\\contracts\\misc\\DividendPayingToken.sol",
  "compiler": {
    "name": "solc",
    "version": "0.8.4+commit.c7e474f2.Emscripten.clang"
  },
  "schemaVersion": "3.4.2",
  "updatedAt": "2021-08-15T10:56:17.115Z",
  "devdoc": {
    "author": "Roger Wu (https://github.com/roger-wu)",
    "details": "A mintable ERC20 token that allows anyone to pay and distribute ether  to token holders as dividends and allows token holders to withdraw their dividends.  Reference: the source code of PoWH3D: https://etherscan.io/address/0xB3775fB83F7D12A36E0475aBdD1FCA35c091efBe#code",
    "kind": "dev",
    "methods": {
      "accumulativeDividendOf(address)": {
        "details": "accumulativeDividendOf(_owner) = withdrawableDividendOf(_owner) + withdrawnDividendOf(_owner) = (magnifiedDividendPerShare * balanceOf(_owner) + magnifiedDividendCorrections[_owner]) / magnitude",
        "params": {
          "_owner": "The address of a token holder."
        },
        "returns": {
          "_0": "The amount of dividend in wei that `_owner` has earned in total."
        }
      },
      "allowance(address,address)": {
        "details": "See {IERC20-allowance}."
      },
      "approve(address,uint256)": {
        "details": "See {IERC20-approve}. Requirements: - `spender` cannot be the zero address."
      },
      "balanceOf(address)": {
        "details": "See {IERC20-balanceOf}."
      },
      "decimals()": {
        "details": "Returns the number of decimals used to get its user representation. For example, if `decimals` equals `2`, a balance of `505` tokens should be displayed to a user as `5,05` (`505 / 10 ** 2`). Tokens usually opt for a value of 18, imitating the relationship between Ether and Wei. This is the value {ERC20} uses, unless this function is overridden; NOTE: This information is only used for _display_ purposes: it in no way affects any of the arithmetic of the contract, including {IERC20-balanceOf} and {IERC20-transfer}."
      },
      "decreaseAllowance(address,uint256)": {
        "details": "Atomically decreases the allowance granted to `spender` by the caller. This is an alternative to {approve} that can be used as a mitigation for problems described in {IERC20-approve}. Emits an {Approval} event indicating the updated allowance. Requirements: - `spender` cannot be the zero address. - `spender` must have allowance for the caller of at least `subtractedValue`."
      },
      "dividendOf(address)": {
        "params": {
          "_owner": "The address of a token holder."
        },
        "returns": {
          "_0": "The amount of dividend in wei that `_owner` can withdraw."
        }
      },
      "increaseAllowance(address,uint256)": {
        "details": "Atomically increases the allowance granted to `spender` by the caller. This is an alternative to {approve} that can be used as a mitigation for problems described in {IERC20-approve}. Emits an {Approval} event indicating the updated allowance. Requirements: - `spender` cannot be the zero address."
      },
      "name()": {
        "details": "Returns the name of the token."
      },
      "owner()": {
        "details": "Returns the address of the current owner."
      },
      "renounceOwnership()": {
        "details": "Leaves the contract without owner. It will not be possible to call `onlyOwner` functions anymore. Can only be called by the current owner. NOTE: Renouncing ownership will leave the contract without an owner, thereby removing any functionality that is only available to the owner."
      },
      "symbol()": {
        "details": "Returns the symbol of the token, usually a shorter version of the name."
      },
      "totalSupply()": {
        "details": "See {IERC20-totalSupply}."
      },
      "transfer(address,uint256)": {
        "details": "See {IERC20-transfer}. Requirements: - `recipient` cannot be the zero address. - the caller must have a balance of at least `amount`."
      },
      "transferFrom(address,address,uint256)": {
        "details": "See {IERC20-transferFrom}. Emits an {Approval} event indicating the updated allowance. This is not required by the EIP. See the note at the beginning of {ERC20}. Requirements: - `sender` and `recipient` cannot be the zero address. - `sender` must have a balance of at least `amount`. - the caller must have allowance for ``sender``'s tokens of at least `amount`."
      },
      "transferOwnership(address)": {
        "details": "Transfers ownership of the contract to a new account (`newOwner`). Can only be called by the current owner."
      },
      "withdrawDividend()": {
        "details": "It emits a `DividendWithdrawn` event if the amount of withdrawn ether is greater than 0."
      },
      "withdrawableDividendOf(address)": {
        "params": {
          "_owner": "The address of a token holder."
        },
        "returns": {
          "_0": "The amount of dividend in wei that `_owner` can withdraw."
        }
      },
      "withdrawnDividendOf(address)": {
        "params": {
          "_owner": "The address of a token holder."
        },
        "returns": {
          "_0": "The amount of dividend in wei that `_owner` has withdrawn."
        }
      }
    },
    "title": "Dividend-Paying Token",
    "version": 1
  },
  "userdoc": {
    "kind": "user",
    "methods": {
      "accumulativeDividendOf(address)": {
        "notice": "View the amount of dividend in wei that an address has earned in total."
      },
      "dividendOf(address)": {
        "notice": "View the amount of dividend in wei that an address can withdraw."
      },
      "withdrawDividend()": {
        "notice": "Withdraws the ether distributed to the sender."
      },
      "withdrawableDividendOf(address)": {
        "notice": "View the amount of dividend in wei that an address can withdraw."
      },
      "withdrawnDividendOf(address)": {
        "notice": "View the amount of dividend in wei that an address has withdrawn."
      }
    },
    "version": 1
  }
}