{
  "contractName": "JEWELDividendTracker",
  "abi": [
    {
      "inputs": [],
      "stateMutability": "nonpayable",
      "type": "constructor"
    },
    {
      "anonymous": false,
      "inputs": [
        {
          "indexed": true,
          "internalType": "address",
          "name": "owner",
          "type": "address"
        },
        {
          "indexed": true,
          "internalType": "address",
          "name": "spender",
          "type": "address"
        },
        {
          "indexed": false,
          "internalType": "uint256",
          "name": "value",
          "type": "uint256"
        }
      ],
      "name": "Approval",
      "type": "event"
    },
    {
      "anonymous": false,
      "inputs": [
        {
          "indexed": true,
          "internalType": "address",
          "name": "account",
          "type": "address"
        },
        {
          "indexed": false,
          "internalType": "uint256",
          "name": "amount",
          "type": "uint256"
        },
        {
          "indexed": true,
          "internalType": "bool",
          "name": "automatic",
          "type": "bool"
        }
      ],
      "name": "Claim",
      "type": "event"
    },
    {
      "anonymous": false,
      "inputs": [
        {
          "indexed": true,
          "internalType": "uint256",
          "name": "newValue",
          "type": "uint256"
        },
        {
          "indexed": true,
          "internalType": "uint256",
          "name": "oldValue",
          "type": "uint256"
        }
      ],
      "name": "ClaimWaitUpdated",
      "type": "event"
    },
    {
      "anonymous": false,
      "inputs": [
        {
          "indexed": true,
          "internalType": "address",
          "name": "to",
          "type": "address"
        },
        {
          "indexed": false,
          "internalType": "uint256",
          "name": "weiAmount",
          "type": "uint256"
        }
      ],
      "name": "DividendWithdrawn",
      "type": "event"
    },
    {
      "anonymous": false,
      "inputs": [
        {
          "indexed": true,
          "internalType": "address",
          "name": "from",
          "type": "address"
        },
        {
          "indexed": false,
          "internalType": "uint256",
          "name": "weiAmount",
          "type": "uint256"
        }
      ],
      "name": "DividendsDistributed",
      "type": "event"
    },
    {
      "anonymous": false,
      "inputs": [
        {
          "indexed": true,
          "internalType": "address",
          "name": "account",
          "type": "address"
        }
      ],
      "name": "ExcludeFromDividends",
      "type": "event"
    },
    {
      "anonymous": false,
      "inputs": [
        {
          "indexed": true,
          "internalType": "address",
          "name": "previousOwner",
          "type": "address"
        },
        {
          "indexed": true,
          "internalType": "address",
          "name": "newOwner",
          "type": "address"
        }
      ],
      "name": "OwnershipTransferred",
      "type": "event"
    },
    {
      "anonymous": false,
      "inputs": [
        {
          "indexed": true,
          "internalType": "address",
          "name": "from",
          "type": "address"
        },
        {
          "indexed": true,
          "internalType": "address",
          "name": "to",
          "type": "address"
        },
        {
          "indexed": false,
          "internalType": "uint256",
          "name": "value",
          "type": "uint256"
        }
      ],
      "name": "Transfer",
      "type": "event"
    },
    {
      "inputs": [],
      "name": "BUSD",
      "outputs": [
        {
          "internalType": "address",
          "name": "",
          "type": "address"
        }
      ],
      "stateMutability": "view",
      "type": "function"
    },
    {
      "inputs": [
        {
          "internalType": "address",
          "name": "_owner",
          "type": "address"
        }
      ],
      "name": "accumulativeDividendOf",
      "outputs": [
        {
          "internalType": "uint256",
          "name": "",
          "type": "uint256"
        }
      ],
      "stateMutability": "view",
      "type": "function"
    },
    {
      "inputs": [
        {
          "internalType": "address",
          "name": "owner",
          "type": "address"
        },
        {
          "internalType": "address",
          "name": "spender",
          "type": "address"
        }
      ],
      "name": "allowance",
      "outputs": [
        {
          "internalType": "uint256",
          "name": "",
          "type": "uint256"
        }
      ],
      "stateMutability": "view",
      "type": "function"
    },
    {
      "inputs": [
        {
          "internalType": "address",
          "name": "spender",
          "type": "address"
        },
        {
          "internalType": "uint256",
          "name": "amount",
          "type": "uint256"
        }
      ],
      "name": "approve",
      "outputs": [
        {
          "internalType": "bool",
          "name": "",
          "type": "bool"
        }
      ],
      "stateMutability": "nonpayable",
      "type": "function"
    },
    {
      "inputs": [
        {
          "internalType": "address",
          "name": "account",
          "type": "address"
        }
      ],
      "name": "balanceOf",
      "outputs": [
        {
          "internalType": "uint256",
          "name": "",
          "type": "uint256"
        }
      ],
      "stateMutability": "view",
      "type": "function"
    },
    {
      "inputs": [],
      "name": "claimWait",
      "outputs": [
        {
          "internalType": "uint256",
          "name": "",
          "type": "uint256"
        }
      ],
      "stateMutability": "view",
      "type": "function"
    },
    {
      "inputs": [],
      "name": "decimals",
      "outputs": [
        {
          "internalType": "uint8",
          "name": "",
          "type": "uint8"
        }
      ],
      "stateMutability": "view",
      "type": "function"
    },
    {
      "inputs": [
        {
          "internalType": "address",
          "name": "spender",
          "type": "address"
        },
        {
          "internalType": "uint256",
          "name": "subtractedValue",
          "type": "uint256"
        }
      ],
      "name": "decreaseAllowance",
      "outputs": [
        {
          "internalType": "bool",
          "name": "",
          "type": "bool"
        }
      ],
      "stateMutability": "nonpayable",
      "type": "function"
    },
    {
      "inputs": [
        {
          "internalType": "uint256",
          "name": "amount",
          "type": "uint256"
        }
      ],
      "name": "distributeBUSDDividends",
      "outputs": [],
      "stateMutability": "nonpayable",
      "type": "function"
    },
    {
      "inputs": [
        {
          "internalType": "address",
          "name": "_owner",
          "type": "address"
        }
      ],
      "name": "dividendOf",
      "outputs": [
        {
          "internalType": "uint256",
          "name": "",
          "type": "uint256"
        }
      ],
      "stateMutability": "view",
      "type": "function"
    },
    {
      "inputs": [
        {
          "internalType": "address",
          "name": "",
          "type": "address"
        }
      ],
      "name": "excludedFromDividends",
      "outputs": [
        {
          "internalType": "bool",
          "name": "",
          "type": "bool"
        }
      ],
      "stateMutability": "view",
      "type": "function"
    },
    {
      "inputs": [
        {
          "internalType": "address",
          "name": "spender",
          "type": "address"
        },
        {
          "internalType": "uint256",
          "name": "addedValue",
          "type": "uint256"
        }
      ],
      "name": "increaseAllowance",
      "outputs": [
        {
          "internalType": "bool",
          "name": "",
          "type": "bool"
        }
      ],
      "stateMutability": "nonpayable",
      "type": "function"
    },
    {
      "inputs": [
        {
          "internalType": "address",
          "name": "",
          "type": "address"
        }
      ],
      "name": "lastClaimTimes",
      "outputs": [
        {
          "internalType": "uint256",
          "name": "",
          "type": "uint256"
        }
      ],
      "stateMutability": "view",
      "type": "function"
    },
    {
      "inputs": [],
      "name": "lastProcessedIndex",
      "outputs": [
        {
          "internalType": "uint256",
          "name": "",
          "type": "uint256"
        }
      ],
      "stateMutability": "view",
      "type": "function"
    },
    {
      "inputs": [],
      "name": "minimumTokenBalanceForDividends",
      "outputs": [
        {
          "internalType": "uint256",
          "name": "",
          "type": "uint256"
        }
      ],
      "stateMutability": "view",
      "type": "function"
    },
    {
      "inputs": [],
      "name": "name",
      "outputs": [
        {
          "internalType": "string",
          "name": "",
          "type": "string"
        }
      ],
      "stateMutability": "view",
      "type": "function"
    },
    {
      "inputs": [],
      "name": "owner",
      "outputs": [
        {
          "internalType": "address",
          "name": "",
          "type": "address"
        }
      ],
      "stateMutability": "view",
      "type": "function"
    },
    {
      "inputs": [],
      "name": "renounceOwnership",
      "outputs": [],
      "stateMutability": "nonpayable",
      "type": "function"
    },
    {
      "inputs": [],
      "name": "symbol",
      "outputs": [
        {
          "internalType": "string",
          "name": "",
          "type": "string"
        }
      ],
      "stateMutability": "view",
      "type": "function"
    },
    {
      "inputs": [],
      "name": "totalDividendsDistributed",
      "outputs": [
        {
          "internalType": "uint256",
          "name": "",
          "type": "uint256"
        }
      ],
      "stateMutability": "view",
      "type": "function"
    },
    {
      "inputs": [],
      "name": "totalSupply",
      "outputs": [
        {
          "internalType": "uint256",
          "name": "",
          "type": "uint256"
        }
      ],
      "stateMutability": "view",
      "type": "function"
    },
    {
      "inputs": [
        {
          "internalType": "address",
          "name": "recipient",
          "type": "address"
        },
        {
          "internalType": "uint256",
          "name": "amount",
          "type": "uint256"
        }
      ],
      "name": "transfer",
      "outputs": [
        {
          "internalType": "bool",
          "name": "",
          "type": "bool"
        }
      ],
      "stateMutability": "nonpayable",
      "type": "function"
    },
    {
      "inputs": [
        {
          "internalType": "address",
          "name": "sender",
          "type": "address"
        },
        {
          "internalType": "address",
          "name": "recipient",
          "type": "address"
        },
        {
          "internalType": "uint256",
          "name": "amount",
          "type": "uint256"
        }
      ],
      "name": "transferFrom",
      "outputs": [
        {
          "internalType": "bool",
          "name": "",
          "type": "bool"
        }
      ],
      "stateMutability": "nonpayable",
      "type": "function"
    },
    {
      "inputs": [
        {
          "internalType": "address",
          "name": "newOwner",
          "type": "address"
        }
      ],
      "name": "transferOwnership",
      "outputs": [],
      "stateMutability": "nonpayable",
      "type": "function"
    },
    {
      "inputs": [
        {
          "internalType": "address",
          "name": "_owner",
          "type": "address"
        }
      ],
      "name": "withdrawableDividendOf",
      "outputs": [
        {
          "internalType": "uint256",
          "name": "",
          "type": "uint256"
        }
      ],
      "stateMutability": "view",
      "type": "function"
    },
    {
      "inputs": [
        {
          "internalType": "address",
          "name": "_owner",
          "type": "address"
        }
      ],
      "name": "withdrawnDividendOf",
      "outputs": [
        {
          "internalType": "uint256",
          "name": "",
          "type": "uint256"
        }
      ],
      "stateMutability": "view",
      "type": "function"
    },
    {
      "inputs": [],
      "name": "withdrawDividend",
      "outputs": [],
      "stateMutability": "pure",
      "type": "function"
    },
    {
      "inputs": [
        {
          "internalType": "address",
          "name": "account",
          "type": "address"
        }
      ],
      "name": "excludeFromDividends",
      "outputs": [],
      "stateMutability": "nonpayable",
      "type": "function"
    },
    {
      "inputs": [
        {
          "internalType": "uint256",
          "name": "newClaimWait",
          "type": "uint256"
        }
      ],
      "name": "updateClaimWait",
      "outputs": [],
      "stateMutability": "nonpayable",
      "type": "function"
    },
    {
      "inputs": [],
      "name": "getLastProcessedIndex",
      "outputs": [
        {
          "internalType": "uint256",
          "name": "",
          "type": "uint256"
        }
      ],
      "stateMutability": "view",
      "type": "function"
    },
    {
      "inputs": [],
      "name": "getNumberOfTokenHolders",
      "outputs": [
        {
          "internalType": "uint256",
          "name": "",
          "type": "uint256"
        }
      ],
      "stateMutability": "view",
      "type": "function"
    },
    {
      "inputs": [
        {
          "internalType": "address",
          "name": "_account",
          "type": "address"
        }
      ],
      "name": "getAccount",
      "outputs": [
        {
          "internalType": "address",
          "name": "account",
          "type": "address"
        },
        {
          "internalType": "int256",
          "name": "index",
          "type": "int256"
        },
        {
          "internalType": "int256",
          "name": "iterationsUntilProcessed",
          "type": "int256"
        },
        {
          "internalType": "uint256",
          "name": "withdrawableDividends",
          "type": "uint256"
        },
        {
          "internalType": "uint256",
          "name": "totalDividends",
          "type": "uint256"
        },
        {
          "internalType": "uint256",
          "name": "lastClaimTime",
          "type": "uint256"
        },
        {
          "internalType": "uint256",
          "name": "nextClaimTime",
          "type": "uint256"
        },
        {
          "internalType": "uint256",
          "name": "secondsUntilAutoClaimAvailable",
          "type": "uint256"
        }
      ],
      "stateMutability": "view",
      "type": "function"
    },
    {
      "inputs": [
        {
          "internalType": "uint256",
          "name": "index",
          "type": "uint256"
        }
      ],
      "name": "getAccountAtIndex",
      "outputs": [
        {
          "internalType": "address",
          "name": "",
          "type": "address"
        },
        {
          "internalType": "int256",
          "name": "",
          "type": "int256"
        },
        {
          "internalType": "int256",
          "name": "",
          "type": "int256"
        },
        {
          "internalType": "uint256",
          "name": "",
          "type": "uint256"
        },
        {
          "internalType": "uint256",
          "name": "",
          "type": "uint256"
        },
        {
          "internalType": "uint256",
          "name": "",
          "type": "uint256"
        },
        {
          "internalType": "uint256",
          "name": "",
          "type": "uint256"
        },
        {
          "internalType": "uint256",
          "name": "",
          "type": "uint256"
        }
      ],
      "stateMutability": "view",
      "type": "function"
    },
    {
      "inputs": [
        {
          "internalType": "address payable",
          "name": "account",
          "type": "address"
        },
        {
          "internalType": "uint256",
          "name": "newBalance",
          "type": "uint256"
        }
      ],
      "name": "setBalance",
      "outputs": [],
      "stateMutability": "nonpayable",
      "type": "function"
    },
    {
      "inputs": [
        {
          "internalType": "uint256",
          "name": "gas",
          "type": "uint256"
        }
      ],
      "name": "process",
      "outputs": [
        {
          "internalType": "uint256",
          "name": "",
          "type": "uint256"
        },
        {
          "internalType": "uint256",
          "name": "",
          "type": "uint256"
        },
        {
          "internalType": "uint256",
          "name": "",
          "type": "uint256"
        }
      ],
      "stateMutability": "nonpayable",
      "type": "function"
    },
    {
      "inputs": [
        {
          "internalType": "address payable",
          "name": "account",
          "type": "address"
        },
        {
          "internalType": "bool",
          "name": "automatic",
          "type": "bool"
        }
      ],
      "name": "processAccount",
      "outputs": [
        {
          "internalType": "bool",
          "name": "",
          "type": "bool"
        }
      ],
      "stateMutability": "nonpayable",
      "type": "function"
    }
  ],
  "bytecode": "0x60a06040523480156200001157600080fd5b50604080518082018252601581527f4a4557454c5f4469766964656e5f547261636b6572000000000000000000000060208083019182528351808501909452601684527f4a4557454c5f4469766964656e645f547261636b65720000000000000000000090840152815191929183918391620000909160039162000135565b508051620000a690600490602084019062000135565b505050620000c3620000bd620000df60201b60201c565b620000e3565b5050610e1060115569043c33c193756480000060805262000218565b3390565b600580546001600160a01b038381166001600160a01b0319831681179093556040519116919082907f8be0079c531659141344cd1fd0a4f28419497f9722a3daafe3b4186f6b6457e090600090a35050565b8280546200014390620001db565b90600052602060002090601f016020900481019282620001675760008555620001b2565b82601f106200018257805160ff1916838001178555620001b2565b82800160010185558215620001b2579182015b82811115620001b257825182559160200191906001019062000195565b50620001c0929150620001c4565b5090565b5b80821115620001c05760008155600101620001c5565b600181811c90821680620001f057607f821691505b602082108114156200021257634e487b7160e01b600052602260045260246000fd5b50919050565b6080516122cf6200023b600039600081816104f40152610dde01526122cf6000f3fe608060405234801561001057600080fd5b506004361061025c5760003560e01c8063715018a611610145578063bc4c4b37116100bd578063e7841ec01161008c578063f2fde38b11610071578063f2fde38b1461057d578063fbcbc0f114610590578063ffb2c479146105a357600080fd5b8063e7841ec014610562578063e98030c71461056a57600080fd5b8063bc4c4b37146104dc578063be10b614146104ef578063dd62ed3e14610516578063e30443bc1461054f57600080fd5b806395d89b4111610114578063a8b9d240116100f9578063a8b9d2401461048d578063a9059cbb146104a0578063aafd847a146104b357600080fd5b806395d89b4114610472578063a457c2d71461047a57600080fd5b8063715018a61461043d57806385a6b3ae146104455780638da5cb5b1461044e57806391b89fba1461045f57600080fd5b806331e79db0116101d85780634e7b827f116101a75780636a4740021161018c5780636a474002146104035780636f2789ec1461040b57806370a082311461041457600080fd5b80634e7b827f146103885780635183d6fd146103ab57600080fd5b806331e79db01461031a578063395093511461032f57806340c2c69d14610342578063484f4ea91461035557600080fd5b8063226cfa3d1161022f57806327ce01471161021457806327ce0147146102ef5780633009a60914610302578063313ce5671461030b57600080fd5b8063226cfa3d146102bc57806323b872dd146102dc57600080fd5b806306fdde0314610261578063095ea7b31461027f57806309bbedde146102a257806318160ddd146102b4575b600080fd5b6102696105d1565b6040516102769190611ff8565b60405180910390f35b61029261028d366004611f2c565b610663565b6040519015158152602001610276565b600a545b604051908152602001610276565b6002546102a6565b6102a66102ca366004611ed8565b60106020526000908152604090205481565b6102926102ea366004611f84565b61067a565b6102a66102fd366004611ed8565b61073e565b6102a6600e5481565b60405160128152602001610276565b61032d610328366004611ed8565b6107a7565b005b61029261033d366004611f2c565b6108b5565b61032d610350366004611fe0565b6108f1565b61037073e879d7ba401b0b8c3ec010001fb95de12024250081565b6040516001600160a01b039091168152602001610276565b610292610396366004611ed8565b600f6020526000908152604090205460ff1681565b6103be6103b9366004611fe0565b6109ec565b604080516001600160a01b0390991689526020890197909752958701949094526060860192909252608085015260a084015260c083015260e082015261010001610276565b61032d610a5b565b6102a660115481565b6102a6610422366004611ed8565b6001600160a01b031660009081526020819052604090205490565b61032d610b17565b6102a660095481565b6005546001600160a01b0316610370565b6102a661046d366004611ed8565b610b7b565b610269610b86565b610292610488366004611f2c565b610b95565b6102a661049b366004611ed8565b610c46565b6102926104ae366004611f2c565b610c72565b6102a66104c1366004611ed8565b6001600160a01b031660009081526008602052604090205490565b6102926104ea366004611ef4565b610c7f565b6102a67f000000000000000000000000000000000000000000000000000000000000000081565b6102a6610524366004611f57565b6001600160a01b03918216600090815260016020908152604080832093909416825291909152205490565b61032d61055d366004611f2c565b610d5d565b600e546102a6565b61032d610578366004611fe0565b610e45565b61032d61058b366004611ed8565b610ff7565b6103be61059e366004611ed8565b6110d6565b6105b66105b1366004611fe0565b6111bf565b60408051938452602084019290925290820152606001610276565b6060600380546105e0906121d8565b80601f016020809104026020016040519081016040528092919081815260200182805461060c906121d8565b80156106595780601f1061062e57610100808354040283529160200191610659565b820191906000526020600020905b81548152906001019060200180831161063c57829003601f168201915b5050505050905090565b6000610670338484611301565b5060015b92915050565b6000610687848484611459565b6001600160a01b0384166000908152600160209081526040808320338452909152902054828110156107265760405162461bcd60e51b815260206004820152602860248201527f45524332303a207472616e7366657220616d6f756e742065786365656473206160448201527f6c6c6f77616e636500000000000000000000000000000000000000000000000060648201526084015b60405180910390fd5b6107338533858403611301565b506001949350505050565b6001600160a01b038116600090815260076020908152604080832054918390528220546006547001000000000000000000000000000000009261079d92610798926107929161078d91906114c7565b6114da565b906114ea565b611528565b61067491906120f5565b6005546001600160a01b031633146108015760405162461bcd60e51b815260206004820181905260248201527f4f776e61626c653a2063616c6c6572206973206e6f7420746865206f776e6572604482015260640161071d565b6001600160a01b0381166000908152600f602052604090205460ff161561082757600080fd5b6001600160a01b0381166000908152600f6020526040812080547fffffffffffffffffffffffffffffffffffffffffffffffffffffffffffffff0016600117905561087390829061153b565b61087e600a826115a0565b6040516001600160a01b038216907fa878b31040b2e6d0a9a3d3361209db3908ba62014b0dca52adbaee451d128b2590600090a250565b3360008181526001602090815260408083206001600160a01b038716845290915281205490916106709185906108ec9086906120dd565b611301565b6005546001600160a01b0316331461094b5760405162461bcd60e51b815260206004820181905260248201527f4f776e61626c653a2063616c6c6572206973206e6f7420746865206f776e6572604482015260640161071d565b600061095660025490565b1161096057600080fd5b80156109e9576109a061097260025490565b61098d837001000000000000000000000000000000006114c7565b61099791906120f5565b6006549061179e565b60065560405181815233907fa493a9229478c3fcd73f66d2cdeb7f94fd0f341da924d1054236d784541165119060200160405180910390a26009546109e5908261179e565b6009555b50565b600080600080600080600080610a01600a5490565b8910610a26575060009650600019955085945086935083925082915081905080610a50565b6000610a33600a8b6117aa565b9050610a3e816110d6565b98509850985098509850985098509850505b919395975091939597565b60405162461bcd60e51b815260206004820152606760248201527f4a4557454c5f4469766964656e645f547261636b65723a20776974686472617760448201527f4469766964656e642064697361626c65642e20557365207468652027636c616960648201527f6d272066756e6374696f6e206f6e20746865206d61696e204a4557454c20636f60848201527f6e74726163742e0000000000000000000000000000000000000000000000000060a482015260c40161071d565b565b6005546001600160a01b03163314610b715760405162461bcd60e51b815260206004820181905260248201527f4f776e61626c653a2063616c6c6572206973206e6f7420746865206f776e6572604482015260640161071d565b610b156000611804565b600061067482610c46565b6060600480546105e0906121d8565b3360009081526001602090815260408083206001600160a01b038616845290915281205482811015610c2f5760405162461bcd60e51b815260206004820152602560248201527f45524332303a2064656372656173656420616c6c6f77616e63652062656c6f7760448201527f207a65726f000000000000000000000000000000000000000000000000000000606482015260840161071d565b610c3c3385858403611301565b5060019392505050565b6001600160a01b03811660009081526008602052604081205461067490610c6c8461073e565b9061186e565b6000610670338484611459565b6005546000906001600160a01b03163314610cdc5760405162461bcd60e51b815260206004820181905260248201527f4f776e61626c653a2063616c6c6572206973206e6f7420746865206f776e6572604482015260640161071d565b6000610ce78461187a565b90508015610d53576001600160a01b038416600081815260106020526040908190204290555184151591907fa2c38e2d2fb7e3e1912d937fd1ca11ed6d51864dee4cfa7a7bf02becd7acf09290610d419085815260200190565b60405180910390a36001915050610674565b5060009392505050565b6005546001600160a01b03163314610db75760405162461bcd60e51b815260206004820181905260248201527f4f776e61626c653a2063616c6c6572206973206e6f7420746865206f776e6572604482015260640161071d565b6001600160a01b0382166000908152600f602052604090205460ff1615610ddc575050565b7f00000000000000000000000000000000000000000000000000000000000000008110610e1e57610e0d828261153b565b610e19600a8383611a17565b610e34565b610e2982600061153b565b610e34600a836115a0565b610e3f826001610c7f565b505b5050565b6005546001600160a01b03163314610e9f5760405162461bcd60e51b815260206004820181905260248201527f4f776e61626c653a2063616c6c6572206973206e6f7420746865206f776e6572604482015260640161071d565b610e108110158015610eb45750620151808111155b610f4c5760405162461bcd60e51b815260206004820152604b60248201527f4a4557454c5f4469766964656e645f547261636b65723a20636c61696d57616960448201527f74206d757374206265207570646174656420746f206265747765656e2031206160648201527f6e6420323420686f757273000000000000000000000000000000000000000000608482015260a40161071d565b601154811415610fc45760405162461bcd60e51b815260206004820152603d60248201527f4a4557454c5f4469766964656e645f547261636b65723a2043616e6e6f74207560448201527f706461746520636c61696d5761697420746f2073616d652076616c7565000000606482015260840161071d565b60115460405182907f474ea64804364a1e29a4487ddb63c3342a2dd826ccd8acf48825e680a0e6f20f90600090a3601155565b6005546001600160a01b031633146110515760405162461bcd60e51b815260206004820181905260248201527f4f776e61626c653a2063616c6c6572206973206e6f7420746865206f776e6572604482015260640161071d565b6001600160a01b0381166110cd5760405162461bcd60e51b815260206004820152602660248201527f4f776e61626c653a206e6577206f776e657220697320746865207a65726f206160448201527f6464726573730000000000000000000000000000000000000000000000000000606482015260840161071d565b6109e981611804565b8060008080808080806110ea600a89611af6565b965060001995506000871261114c57600e5487111561111857600e54611111908890611b41565b955061114c565b600e54600a546000911061112d57600061113c565b600e54600a5461113c9161186e565b905061114888826114ea565b9650505b61115588610c46565b94506111608861073e565b6001600160a01b03891660009081526010602052604090205490945092508261118a576000611198565b60115461119890849061179e565b91504282116111a85760006111b2565b6111b2824261186e565b9050919395975091939597565b600a5460009081908190806111df575050600e54600092508291506112fa565b600e546000805a90506000805b89841080156111fa57508582105b156112e957846112098161222c565b600a549096508610905061121c57600094505b6000600a600001868154811061125b577f4e487b7100000000000000000000000000000000000000000000000000000000600052603260045260246000fd5b60009182526020808320909101546001600160a01b0316808352601090915260409091205490915061128c90611b7e565b156112af5761129c816001610c7f565b156112af57816112ab8161222c565b9250505b826112b98161222c565b93505060005a9050808511156112e0576112dd6112d6868361186e565b879061179e565b95505b93506111ec9050565b600e85905590975095509193505050505b9193909250565b6001600160a01b03831661137c5760405162461bcd60e51b8152602060048201526024808201527f45524332303a20617070726f76652066726f6d20746865207a65726f2061646460448201527f7265737300000000000000000000000000000000000000000000000000000000606482015260840161071d565b6001600160a01b0382166113f85760405162461bcd60e51b815260206004820152602260248201527f45524332303a20617070726f766520746f20746865207a65726f20616464726560448201527f7373000000000000000000000000000000000000000000000000000000000000606482015260840161071d565b6001600160a01b0383811660008181526001602090815260408083209487168084529482529182902085905590518481527f8c5be1e5ebec7d5bd14f71427d1e84f3dd0314c0f7b2291e5b200ac8c7c3b925910160405180910390a3505050565b60405162461bcd60e51b815260206004820152602c60248201527f4a4557454c5f4469766964656e645f547261636b65723a204e6f207472616e7360448201527f6665727320616c6c6f7765640000000000000000000000000000000000000000606482015260840161071d565b60006114d3828461212e565b9392505050565b6000818181121561067457600080fd5b6000806114f78385612069565b90506000831215801561150a5750838112155b8061151f575060008312801561151f57508381125b6114d357600080fd5b60008082121561153757600080fd5b5090565b6001600160a01b0382166000908152602081905260409020548082111561157a576000611568838361186e565b90506115748482611ba5565b50610e3f565b80821015610e3f57600061158e828461186e565b905061159a8482611c09565b50505050565b6001600160a01b038116600090815260038301602052604090205460ff166115c6575050565b6001600160a01b0381166000908152600383016020908152604080832080547fffffffffffffffffffffffffffffffffffffffffffffffffffffffffffffff001690556001808601835281842084905560028601909252822054845490929161162e916121c1565b9050600084600001828154811061166e577f4e487b7100000000000000000000000000000000000000000000000000000000600052603260045260246000fd5b60009182526020808320909101546001600160a01b039081168084526002890190925260408084208790559087168352822091909155855490915081908690859081106116e4577f4e487b7100000000000000000000000000000000000000000000000000000000600052603260045260246000fd5b600091825260209091200180547fffffffffffffffffffffffff0000000000000000000000000000000000000000166001600160a01b0392909216919091179055845485908061175d577f4e487b7100000000000000000000000000000000000000000000000000000000600052603160045260246000fd5b600082815260209020810160001990810180547fffffffffffffffffffffffff00000000000000000000000000000000000000001690550190555050505050565b60006114d382846120dd565b60008260000182815481106117e8577f4e487b7100000000000000000000000000000000000000000000000000000000600052603260045260246000fd5b6000918252602090912001546001600160a01b03169392505050565b600580546001600160a01b038381167fffffffffffffffffffffffff0000000000000000000000000000000000000000831681179093556040519116919082907f8be0079c531659141344cd1fd0a4f28419497f9722a3daafe3b4186f6b6457e090600090a35050565b60006114d382846121c1565b60008061188683610c46565b90508015611a0e576001600160a01b0383166000908152600860205260409020546118b1908261179e565b6001600160a01b038416600081815260086020526040908190209290925590517fee503bee2bb6a87e57bc57db795f98137327401a0e7b7ce42e37926cc1a9ca4d906119009084815260200190565b60405180910390a26040517fa9059cbb0000000000000000000000000000000000000000000000000000000081526001600160a01b03841660048201526024810182905260009073e879d7ba401b0b8c3ec010001fb95de1202425009063a9059cbb90604401602060405180830381600087803b15801561198057600080fd5b505af1158015611994573d6000803e3d6000fd5b505050506040513d601f19601f820116820180604052508101906119b89190611fc4565b905080611a07576001600160a01b0384166000908152600860205260409020546119e2908361186e565b6001600160a01b03909416600090815260086020526040812094909455509192915050565b5092915050565b50600092915050565b6001600160a01b038216600090815260038401602052604090205460ff1615611a5c576001600160a01b03821660009081526001840160205260409020819055610e3f565b6001600160a01b0382166000818152600385016020908152604080832080547fffffffffffffffffffffffffffffffffffffffffffffffffffffffffffffff00166001908117909155878101835281842086905587546002890184529184208290558101875586835291200180547fffffffffffffffffffffffff0000000000000000000000000000000000000000169091179055505050565b6001600160a01b038116600090815260038301602052604081205460ff16611b215750600019610674565b506001600160a01b03166000908152600291909101602052604090205490565b600080611b4e838561214d565b905060008312158015611b615750838113155b8061151f575060008312801561151f57508381136114d357600080fd5b600042821115611b9057506000919050565b601154611b9d428461186e565b101592915050565b611baf8282611c4d565b611be9611bca61078d836006546114c790919063ffffffff16565b6001600160a01b03841660009081526007602052604090205490611b41565b6001600160a01b0390921660009081526007602052604090209190915550565b611c138282611d40565b611be9611c2e61078d836006546114c790919063ffffffff16565b6001600160a01b038416600090815260076020526040902054906114ea565b6001600160a01b038216611ca35760405162461bcd60e51b815260206004820152601f60248201527f45524332303a206d696e7420746f20746865207a65726f206164647265737300604482015260640161071d565b611caf60008383610e3f565b8060026000828254611cc191906120dd565b90915550506001600160a01b03821660009081526020819052604081208054839290611cee9084906120dd565b90915550506040518181526001600160a01b038316906000907fddf252ad1be2c89b69c2b068fc378daa952ba7f163c4a11628f55a4df523b3ef9060200160405180910390a3610e4160008383610e3f565b6001600160a01b038216611dbc5760405162461bcd60e51b815260206004820152602160248201527f45524332303a206275726e2066726f6d20746865207a65726f2061646472657360448201527f7300000000000000000000000000000000000000000000000000000000000000606482015260840161071d565b611dc882600083610e3f565b6001600160a01b03821660009081526020819052604090205481811015611e575760405162461bcd60e51b815260206004820152602260248201527f45524332303a206275726e20616d6f756e7420657863656564732062616c616e60448201527f6365000000000000000000000000000000000000000000000000000000000000606482015260840161071d565b6001600160a01b0383166000908152602081905260408120838303905560028054849290611e869084906121c1565b90915550506040518281526000906001600160a01b038516907fddf252ad1be2c89b69c2b068fc378daa952ba7f163c4a11628f55a4df523b3ef9060200160405180910390a3610e3f83600084610e3f565b600060208284031215611ee9578081fd5b81356114d381612276565b60008060408385031215611f06578081fd5b8235611f1181612276565b91506020830135611f218161228b565b809150509250929050565b60008060408385031215611f3e578182fd5b8235611f4981612276565b946020939093013593505050565b60008060408385031215611f69578182fd5b8235611f7481612276565b91506020830135611f2181612276565b600080600060608486031215611f98578081fd5b8335611fa381612276565b92506020840135611fb381612276565b929592945050506040919091013590565b600060208284031215611fd5578081fd5b81516114d38161228b565b600060208284031215611ff1578081fd5b5035919050565b6000602080835283518082850152825b8181101561202457858101830151858201604001528201612008565b818111156120355783604083870101525b50601f017fffffffffffffffffffffffffffffffffffffffffffffffffffffffffffffffe016929092016040019392505050565b6000808212827f7fffffffffffffffffffffffffffffffffffffffffffffffffffffffffffffff038413811516156120a3576120a3612247565b827f80000000000000000000000000000000000000000000000000000000000000000384128116156120d7576120d7612247565b50500190565b600082198211156120f0576120f0612247565b500190565b600082612129577f4e487b710000000000000000000000000000000000000000000000000000000081526012600452602481fd5b500490565b600081600019048311821515161561214857612148612247565b500290565b6000808312837f80000000000000000000000000000000000000000000000000000000000000000183128115161561218757612187612247565b837f7fffffffffffffffffffffffffffffffffffffffffffffffffffffffffffffff0183138116156121bb576121bb612247565b50500390565b6000828210156121d3576121d3612247565b500390565b600181811c908216806121ec57607f821691505b60208210811415612226577f4e487b7100000000000000000000000000000000000000000000000000000000600052602260045260246000fd5b50919050565b600060001982141561224057612240612247565b5060010190565b7f4e487b7100000000000000000000000000000000000000000000000000000000600052601160045260246000fd5b6001600160a01b03811681146109e957600080fd5b80151581146109e957600080fdfea2646970667358221220b2f70ec929cb524d6b3a9f0d117774bc7baab1471ab11c3fbbb50557301c8acc64736f6c63430008040033",
  "immutableReferences": {
    "5966": [
      {
        "length": 32,
        "start": 1268
      },
      {
        "length": 32,
        "start": 3550
      }
    ]
  },
  "source": "// SPDX-License-Identifier: MIT\r\n\r\npragma solidity ^0.8.4;\r\n\r\nimport \"./misc/DividendPayingToken.sol\";\r\nimport \"@openzeppelin/contracts/access/Ownable.sol\";\r\nimport \"./math/IterableMapping.sol\";\r\nimport '@uniswap/v2-core/contracts/interfaces/IUniswapV2Pair.sol';\r\nimport '@uniswap/v2-core/contracts/interfaces/IUniswapV2Factory.sol';\r\nimport '@uniswap/v2-periphery/contracts/interfaces/IUniswapV2Router02.sol';\r\nimport \"./misc/LotteryTracker.sol\";\r\n\r\n\r\ncontract JEWEL is ERC20, Ownable {\r\n    using SafeMath for uint256;\r\n\r\n    IUniswapV2Router02 public uniswapV2Router;\r\n    address public  uniswapV2Pair;\r\n\r\n    bool private swapping;\r\n    bool private isAlreadyCalled;\r\n    bool private isLotteryActive;\r\n\r\n    JEWELDividendTracker public dividendTracker;\r\n    LotteryTracker public lotteryTracker;\r\n\r\n    address private constant deadWallet = 0x000000000000000000000000000000000000dEaD;\r\n\r\n    address private constant BUSD = address(0xE879D7Ba401b0b8c3ec010001fb95dE120242500); //BUSD\r\n\r\n    uint256 public swapTokensAtAmount = 200000 * (10**18);\r\n    \r\n    mapping(address => bool) public _isBlacklisted;\r\n\r\n    uint8 public BUSDRewardsFee = 2;\r\n    uint8 public liquidityFee = 4;\r\n    uint8 public marketingFee = 2;\r\n    uint8 public weekly = 1;\r\n    uint8 public monthly = 5;\r\n    uint8 public ultimate = 2;\r\n    uint16 public lotteryFee = weekly+monthly+ultimate;\r\n    uint16 public totalFees = BUSDRewardsFee + liquidityFee + marketingFee + lotteryFee;\r\n\r\n    address public _marketingWalletAddress = address(0x0);\r\n\r\n\r\n    // use by default 300,000 gas to process auto-claiming dividends\r\n    uint256 public gasForProcessing = 300000;\r\n\r\n     // exlcude from fees and max transaction amount\r\n    mapping (address => bool) private _isExcludedFromFees;\r\n\r\n\r\n    // store addresses that a automatic market maker pairs. Any transfer *to* these addresses\r\n    // could be subject to a maximum transfer amount\r\n    mapping (address => bool) public automatedMarketMakerPairs;\r\n\r\n    event UpdateDividendTracker(address indexed newAddress, address indexed oldAddress);\r\n\r\n    event UpdateUniswapV2Router(address indexed newAddress, address indexed oldAddress);\r\n\r\n    event ExcludeFromFees(address indexed account, bool isExcluded);\r\n    event ExcludeMultipleAccountsFromFees(address[] accounts, bool isExcluded);\r\n\r\n    event SetAutomatedMarketMakerPair(address indexed pair, bool indexed value);\r\n\r\n    event LiquidityWalletUpdated(address indexed newLiquidityWallet, address indexed oldLiquidityWallet);\r\n\r\n    event GasForProcessingUpdated(uint256 indexed newValue, uint256 indexed oldValue);\r\n\r\n    event SwapAndLiquify(\r\n        uint256 tokensSwapped,\r\n        uint256 ethReceived,\r\n        uint256 tokensIntoLiqudity\r\n    );\r\n\r\n    event SendDividends(\r\n    \tuint256 tokensSwapped,\r\n    \tuint256 amount\r\n    );\r\n\r\n    event ProcessedDividendTracker(\r\n    \tuint256 iterations,\r\n    \tuint256 claims,\r\n        uint256 lastProcessedIndex,\r\n    \tbool indexed automatic,\r\n    \tuint256 gas,\r\n    \taddress indexed processor\r\n    );\r\n\r\n    modifier onlyLottery{\r\n        require(msg.sender == address(lotteryTracker),\"Only lottery contract\");\r\n        _;\r\n    }\r\n\r\n    constructor() ERC20(\"JEWEL TOKEN\", \"JWLS\") {\r\n\r\n    \tdividendTracker = new JEWELDividendTracker();\r\n        lotteryTracker = new LotteryTracker();\r\n\r\n\r\n    \tIUniswapV2Router02 _uniswapV2Router = IUniswapV2Router02(0x7a250d5630B4cF539739dF2C5dAcb4c659F2488D);\r\n         // Create a uniswap pair for this new token\r\n        address _uniswapV2Pair = IUniswapV2Factory(_uniswapV2Router.factory())\r\n            .createPair(address(this), _uniswapV2Router.WETH());\r\n\r\n        uniswapV2Router = _uniswapV2Router;\r\n        uniswapV2Pair = _uniswapV2Pair;\r\n\r\n        _setAutomatedMarketMakerPair(_uniswapV2Pair, true);\r\n\r\n        // exclude from receiving dividends\r\n        dividendTracker.excludeFromDividends(address(dividendTracker));\r\n        dividendTracker.excludeFromDividends(address(this));\r\n        dividendTracker.excludeFromDividends(owner());\r\n        dividendTracker.excludeFromDividends(deadWallet);\r\n        dividendTracker.excludeFromDividends(address(_uniswapV2Router));\r\n        dividendTracker.excludedFromDividends(address(lotteryTracker));\r\n\r\n        lotteryTracker.excludedFromWeekly(uniswapV2Pair);\r\n        lotteryTracker.excludedFromMonthly(uniswapV2Pair);\r\n        lotteryTracker.excludedFromUltimate(uniswapV2Pair);\r\n\r\n        // exclude from paying fees or having max transaction amount\r\n        excludeFromFees(owner(), true);\r\n        excludeFromFees(_marketingWalletAddress, true);\r\n        excludeFromFees(address(this), true);\r\n\r\n        /*\r\n            _mint is an internal function in ERC20.sol that is only called here,\r\n            and CANNOT be called ever again\r\n        */\r\n        _mint(owner(), 1000000000 * (10**18));\r\n        IERC20(BUSD).approve(address(lotteryTracker),~uint256(0));\r\n    }\r\n\r\n    receive() external payable {\r\n\r\n  \t}\r\n\r\n    function updateDividendTracker(address newAddress) public onlyOwner {\r\n        require(newAddress != address(dividendTracker), \"JEWEL: The dividend tracker already has that address\");\r\n\r\n        JEWELDividendTracker newDividendTracker = JEWELDividendTracker(payable(newAddress));\r\n\r\n        require(newDividendTracker.owner() == address(this), \"JEWEL: The new dividend tracker must be owned by the JEWEL token contract\");\r\n\r\n        newDividendTracker.excludeFromDividends(address(newDividendTracker));\r\n        newDividendTracker.excludeFromDividends(address(this));\r\n        newDividendTracker.excludeFromDividends(owner());\r\n        newDividendTracker.excludeFromDividends(address(uniswapV2Router));\r\n\r\n        emit UpdateDividendTracker(newAddress, address(dividendTracker));\r\n\r\n        dividendTracker = newDividendTracker;\r\n    }\r\n\r\n    function updateUniswapV2Router(address newAddress) public onlyOwner {\r\n        require(newAddress != address(uniswapV2Router), \"JEWEL: The router already has that address\");\r\n        emit UpdateUniswapV2Router(newAddress, address(uniswapV2Router));\r\n        uniswapV2Router = IUniswapV2Router02(newAddress);\r\n        address _uniswapV2Pair = IUniswapV2Factory(uniswapV2Router.factory())\r\n            .createPair(address(this), uniswapV2Router.WETH());\r\n        uniswapV2Pair = _uniswapV2Pair;\r\n    }\r\n\r\n    function excludeFromFees(address account, bool excluded) public onlyOwner {\r\n        require(_isExcludedFromFees[account] != excluded, \"JEWEL: Account is already excluded\");\r\n        _isExcludedFromFees[account] = excluded;\r\n\r\n        emit ExcludeFromFees(account, excluded);\r\n    }\r\n\r\n    function excludeMultipleAccountsFromFees(address[] calldata accounts, bool excluded) public onlyOwner {\r\n        for(uint256 i = 0; i < accounts.length; i++) {\r\n            _isExcludedFromFees[accounts[i]] = excluded;\r\n        }\r\n\r\n        emit ExcludeMultipleAccountsFromFees(accounts, excluded);\r\n    }\r\n\r\n    function setMarketingWallet(address payable wallet) external onlyOwner{\r\n        _marketingWalletAddress = wallet;\r\n    }\r\n\r\n    function setBUSDRewardsFee(uint8 value) external onlyOwner{\r\n        BUSDRewardsFee = value;\r\n        totalFees = BUSDRewardsFee + liquidityFee + marketingFee + lotteryFee;\r\n    }\r\n\r\n    function setLiquiditFee(uint8 value) external onlyOwner{\r\n        liquidityFee = value;\r\n        totalFees = BUSDRewardsFee + liquidityFee + marketingFee + lotteryFee;\r\n    }\r\n\r\n    function setMarketingFee(uint8 value) external onlyOwner{\r\n        marketingFee = value;\r\n        totalFees = BUSDRewardsFee + liquidityFee + marketingFee + lotteryFee;\r\n\r\n    }\r\n\r\n    function setLotteryState(bool value) external onlyOwner {\r\n        isLotteryActive = value;\r\n    }\r\n\r\n    function setLotteryFee(uint8 _weekly, uint8 _monthly, uint8 _ultimate) external onlyOwner{\r\n        weekly = _weekly;\r\n        monthly = _monthly;\r\n        ultimate = _ultimate;\r\n        lotteryFee = weekly + monthly + ultimate;\r\n        totalFees = BUSDRewardsFee + liquidityFee + marketingFee + lotteryFee;\r\n\r\n    }\r\n\r\n\r\n    function setAutomatedMarketMakerPair(address pair, bool value) public onlyOwner {\r\n        require(pair != uniswapV2Pair, \"JEWEL: The PancakeSwap pair cannot be removed from automatedMarketMakerPairs\");\r\n\r\n        _setAutomatedMarketMakerPair(pair, value);\r\n    }\r\n    \r\n    function blacklistAddress(address account, bool value) external onlyOwner{\r\n        _isBlacklisted[account] = value;\r\n    }\r\n\r\n\r\n    function _setAutomatedMarketMakerPair(address pair, bool value) private {\r\n        require(automatedMarketMakerPairs[pair] != value, \"JEWEL: Automated market maker pair is already set to that value\");\r\n        automatedMarketMakerPairs[pair] = value;\r\n\r\n        if(value) {\r\n            dividendTracker.excludeFromDividends(pair);\r\n        }\r\n\r\n        emit SetAutomatedMarketMakerPair(pair, value);\r\n    }\r\n\r\n\r\n    function updateGasForProcessing(uint256 newValue) public onlyOwner {\r\n        require(newValue >= 200000 && newValue <= 500000, \"JEWEL: gasForProcessing must be between 200,000 and 500,000\");\r\n        require(newValue != gasForProcessing, \"JEWEL: Cannot update gasForProcessing to same value\");\r\n        emit GasForProcessingUpdated(newValue, gasForProcessing);\r\n        gasForProcessing = newValue;\r\n    }\r\n\r\n    function updateClaimWait(uint256 claimWait) external onlyOwner {\r\n        dividendTracker.updateClaimWait(claimWait);\r\n    }\r\n\r\n    function getClaimWait() external view returns(uint256) {\r\n        return dividendTracker.claimWait();\r\n    }\r\n\r\n    function getTotalDividendsDistributed() external view returns (uint256) {\r\n        return dividendTracker.totalDividendsDistributed();\r\n    }\r\n\r\n    function isExcludedFromFees(address account) public view returns(bool) {\r\n        return _isExcludedFromFees[account];\r\n    }\r\n\r\n    function withdrawableDividendOf(address account) public view returns(uint256) {\r\n    \treturn dividendTracker.withdrawableDividendOf(account);\r\n  \t}\r\n\r\n\tfunction dividendTokenBalanceOf(address account) public view returns (uint256) {\r\n\t\treturn dividendTracker.balanceOf(account);\r\n\t}\r\n\r\n\tfunction excludeFromDividends(address account) external onlyOwner{\r\n\t    dividendTracker.excludeFromDividends(account);\r\n\t}\r\n\r\n    function excludeFromWeekly(address account) external onlyOwner{\r\n\t    lotteryTracker.excludeFromWeekly(account);\r\n\t}\r\n\r\n    function excludeFromMonthly(address account) external onlyOwner{\r\n\t    lotteryTracker.excludeFromMonthly(account);\r\n\t}\r\n\r\n    function excludeFromUltimate(address account) external onlyOwner{\r\n\t    lotteryTracker.excludeFromUltimate(account);\r\n\t}\r\n\t\r\n\tfunction setMinValues(uint256 _weekly, uint256 _monthly, uint256 _ultimate) external onlyOwner {\r\n\t    lotteryTracker.setMinValues(_weekly,_monthly,_ultimate);\r\n\t}\r\n\r\n    function pickUltimateWinner() external onlyOwner{\r\n\t    if(!isAlreadyCalled){ \r\n                lotteryTracker.getRandomNumber();\r\n                isAlreadyCalled = true;\r\n            }else{\r\n                try lotteryTracker.pickUltimateWinner() {isAlreadyCalled = false;} catch {}\r\n            }\r\n\t}\r\n\r\n    function getAccountDividendsInfo(address account)\r\n        external view returns (\r\n            address,\r\n            int256,\r\n            int256,\r\n            uint256,\r\n            uint256,\r\n            uint256,\r\n            uint256,\r\n            uint256) {\r\n        return dividendTracker.getAccount(account);\r\n    }\r\n\r\n\tfunction getAccountDividendsInfoAtIndex(uint256 index)\r\n        external view returns (\r\n            address,\r\n            int256,\r\n            int256,\r\n            uint256,\r\n            uint256,\r\n            uint256,\r\n            uint256,\r\n            uint256) {\r\n    \treturn dividendTracker.getAccountAtIndex(index);\r\n    }\r\n\r\n\tfunction processDividendTracker(uint256 gas) external {\r\n\t\t(uint256 iterations, uint256 claims, uint256 lastProcessedIndex) = dividendTracker.process(gas);\r\n\t\temit ProcessedDividendTracker(iterations, claims, lastProcessedIndex, false, gas, tx.origin);\r\n    }\r\n\r\n    function claim() external {\r\n\t\tdividendTracker.processAccount(payable(msg.sender), false);\r\n    }\r\n\r\n    function getLastProcessedIndex() external view returns(uint256) {\r\n    \treturn dividendTracker.getLastProcessedIndex();\r\n    }\r\n\r\n    function getNumberOfDividendTokenHolders() external view returns(uint256) {\r\n        return dividendTracker.getNumberOfTokenHolders();\r\n    }\r\n\r\n\r\n    function _transfer(\r\n        address from,\r\n        address to,\r\n        uint256 amount\r\n    ) internal override {\r\n        require(from != address(0), \"ERC20: transfer from the zero address\");\r\n        require(to != address(0), \"ERC20: transfer to the zero address\");\r\n        require(!_isBlacklisted[from] && !_isBlacklisted[to], 'Blacklisted address');\r\n\r\n        if(amount == 0) {\r\n            super._transfer(from, to, 0);\r\n            return;\r\n        }\r\n\r\n\t\tuint256 contractTokenBalance = balanceOf(address(this));\r\n\r\n        bool canSwap = contractTokenBalance >= swapTokensAtAmount;\r\n\r\n        if( canSwap &&\r\n            !swapping &&\r\n            !automatedMarketMakerPairs[from] &&\r\n            from != owner() &&\r\n            to != owner()\r\n        ) {\r\n            swapping = true;\r\n\r\n            uint256 marketingTokens = contractTokenBalance.mul(marketingFee).div(totalFees);\r\n            swapAndSendToFee(marketingTokens);\r\n\r\n            uint256 swapTokens = contractTokenBalance.mul(liquidityFee).div(totalFees);\r\n            swapAndLiquify(swapTokens);\r\n\r\n            uint256 sellTokens = balanceOf(address(this));\r\n            swapAndSendDividendsAndLottery(sellTokens);\r\n\r\n            swapping = false;\r\n        }\r\n\r\n\r\n        bool takeFee = !swapping;\r\n\r\n        // if any account belongs to _isExcludedFromFee account then remove the fee\r\n        if(_isExcludedFromFees[from] || _isExcludedFromFees[to]) {\r\n            takeFee = false;\r\n        }\r\n\r\n        if(takeFee) {\r\n        \tuint256 fees = amount.mul(totalFees).div(100);\r\n\r\n        \tamount = amount.sub(fees);\r\n\r\n            super._transfer(from, address(this), fees);\r\n        }\r\n\r\n        super._transfer(from, to, amount);\r\n\r\n        try dividendTracker.setBalance(payable(from), balanceOf(from)) {} catch {}\r\n        try dividendTracker.setBalance(payable(to), balanceOf(to)) {} catch {}\r\n\r\n        try lotteryTracker.setAccount(payable(from), balanceOf(from), true) {} catch {}\r\n        try lotteryTracker.setAccount(payable(to), balanceOf(to), false) {} catch {}\r\n\r\n        if(isLotteryActive){\r\n            if(block.timestamp >= lotteryTracker.lastWeeklyDistributed() + 7 days){\r\n                if(!isAlreadyCalled){\r\n                    lotteryTracker.getRandomNumber();\r\n                    isAlreadyCalled = true;\r\n                }else{\r\n                    try lotteryTracker.pickWeeklyWinners() {isAlreadyCalled = false;} catch {}\r\n                }\r\n            \r\n            }\r\n\r\n            if(block.timestamp >= lotteryTracker.lastMonthlyDistributed() + 30 days){\r\n                if(!isAlreadyCalled){\r\n                    lotteryTracker.getRandomNumber();\r\n                    isAlreadyCalled = true;\r\n                }else{\r\n                    try lotteryTracker.pickMonthlyWinners() {isAlreadyCalled = false;} catch {}\r\n                }\r\n            \r\n            }\r\n        }\r\n\r\n        if(!swapping) {\r\n\t    \tuint256 gas = gasForProcessing;\r\n\r\n\t    \ttry dividendTracker.process(gas) returns (uint256 iterations, uint256 claims, uint256 lastProcessedIndex) {\r\n\t    \t\temit ProcessedDividendTracker(iterations, claims, lastProcessedIndex, true, gas, tx.origin);\r\n\t    \t}\r\n\t    \tcatch {\r\n\r\n\t    \t}\r\n        }\r\n    }\r\n\r\n    function swapAndSendToFee(uint256 tokens) private  {\r\n\r\n        uint256 initialBUSDBalance = IERC20(BUSD).balanceOf(address(this));\r\n\r\n        swapTokensForBUSD(tokens);\r\n        uint256 newBalance = (IERC20(BUSD).balanceOf(address(this))).sub(initialBUSDBalance);\r\n        IERC20(BUSD).transfer(_marketingWalletAddress, newBalance);\r\n    }\r\n\r\n    function swapAndLiquify(uint256 tokens) private {\r\n       // split the contract balance into halves\r\n        uint256 half = tokens.div(2);\r\n        uint256 otherHalf = tokens.sub(half);\r\n\r\n        // capture the contract's current ETH balance.\r\n        // this is so that we can capture exactly the amount of ETH that the\r\n        // swap creates, and not make the liquidity event include any ETH that\r\n        // has been manually sent to the contract\r\n        uint256 initialBalance = address(this).balance;\r\n\r\n        // swap tokens for ETH\r\n        swapTokensForEth(half); // <- this breaks the ETH -> HATE swap when swap+liquify is triggered\r\n\r\n        // how much ETH did we just swap into?\r\n        uint256 newBalance = address(this).balance.sub(initialBalance);\r\n\r\n        // add liquidity to uniswap\r\n        addLiquidity(otherHalf, newBalance);\r\n\r\n        emit SwapAndLiquify(half, newBalance, otherHalf);\r\n    }\r\n\r\n\r\n    function swapTokensForEth(uint256 tokenAmount) private {\r\n\r\n\r\n        // generate the uniswap pair path of token -> weth\r\n        address[] memory path = new address[](2);\r\n        path[0] = address(this);\r\n        path[1] = uniswapV2Router.WETH();\r\n\r\n        _approve(address(this), address(uniswapV2Router), tokenAmount);\r\n\r\n        // make the swap\r\n        uniswapV2Router.swapExactTokensForETHSupportingFeeOnTransferTokens(\r\n            tokenAmount,\r\n            0, // accept any amount of ETH\r\n            path,\r\n            address(this),\r\n            block.timestamp\r\n        );\r\n\r\n    }\r\n\r\n    function swapTokensForBUSD(uint256 tokenAmount) private {\r\n\r\n        address[] memory path = new address[](3);\r\n        path[0] = address(this);\r\n        path[1] = uniswapV2Router.WETH();\r\n        path[2] = BUSD;\r\n\r\n        _approve(address(this), address(uniswapV2Router), tokenAmount);\r\n\r\n        // make the swap\r\n        uniswapV2Router.swapExactTokensForTokensSupportingFeeOnTransferTokens(\r\n            tokenAmount,\r\n            0,\r\n            path,\r\n            address(this),\r\n            block.timestamp\r\n        );\r\n    }\r\n\r\n    function addLiquidity(uint256 tokenAmount, uint256 ethAmount) private {\r\n\r\n        // approve token transfer to cover all possible scenarios\r\n        _approve(address(this), address(uniswapV2Router), tokenAmount);\r\n\r\n        // add the liquidity\r\n        uniswapV2Router.addLiquidityETH{value: ethAmount}(\r\n            address(this),\r\n            tokenAmount,\r\n            0, // slippage is unavoidable\r\n            0, // slippage is unavoidable\r\n            address(0),\r\n            block.timestamp\r\n        );\r\n\r\n    }\r\n\r\n    function swapAndSendDividendsAndLottery(uint256 tokens) private{\r\n        swapTokensForBUSD(tokens);\r\n        uint256 dividends = IERC20(BUSD).balanceOf(address(this));\r\n        uint256 lottery = dividends.mul(lotteryFee).div(lotteryFee + BUSDRewardsFee);\r\n        dividends = dividends.sub(lottery);\r\n\r\n        bool success = IERC20(BUSD).transfer(address(dividendTracker), dividends);\r\n\r\n        if (success) {\r\n            dividendTracker.distributeBUSDDividends(dividends);\r\n            emit SendDividends(tokens, dividends);\r\n        }\r\n\r\n        lotteryTracker.setLottery(IERC20(BUSD).balanceOf(address(this)));\r\n\r\n    }\r\n}\r\n\r\ncontract JEWELDividendTracker is Ownable, DividendPayingToken {\r\n    using SafeMath for uint256;\r\n    using SafeMathInt for int256;\r\n    using IterableMapping for IterableMapping.Map;\r\n\r\n    IterableMapping.Map private tokenHoldersMap;\r\n    uint256 public lastProcessedIndex;\r\n\r\n    mapping (address => bool) public excludedFromDividends;\r\n\r\n    mapping (address => uint256) public lastClaimTimes;\r\n\r\n    uint256 public claimWait;\r\n    uint256 public immutable minimumTokenBalanceForDividends;\r\n\r\n    event ExcludeFromDividends(address indexed account);\r\n    event ClaimWaitUpdated(uint256 indexed newValue, uint256 indexed oldValue);\r\n\r\n    event Claim(address indexed account, uint256 amount, bool indexed automatic);\r\n\r\n    constructor() DividendPayingToken(\"JEWEL_Dividen_Tracker\", \"JEWEL_Dividend_Tracker\") {\r\n    \tclaimWait = 3600;\r\n        minimumTokenBalanceForDividends = 20000 * (10**18); //must hold 20000+ tokens\r\n    }\r\n\r\n    function _transfer(address, address, uint256) internal pure override {\r\n        require(false, \"JEWEL_Dividend_Tracker: No transfers allowed\");\r\n    }\r\n\r\n    function withdrawDividend() public pure override {\r\n        require(false, \"JEWEL_Dividend_Tracker: withdrawDividend disabled. Use the 'claim' function on the main JEWEL contract.\");\r\n    }\r\n\r\n    function excludeFromDividends(address account) external onlyOwner {\r\n    \trequire(!excludedFromDividends[account]);\r\n    \texcludedFromDividends[account] = true;\r\n\r\n    \t_setBalance(account, 0);\r\n    \ttokenHoldersMap.remove(account);\r\n\r\n    \temit ExcludeFromDividends(account);\r\n    }\r\n\r\n    function updateClaimWait(uint256 newClaimWait) external onlyOwner {\r\n        require(newClaimWait >= 3600 && newClaimWait <= 86400, \"JEWEL_Dividend_Tracker: claimWait must be updated to between 1 and 24 hours\");\r\n        require(newClaimWait != claimWait, \"JEWEL_Dividend_Tracker: Cannot update claimWait to same value\");\r\n        emit ClaimWaitUpdated(newClaimWait, claimWait);\r\n        claimWait = newClaimWait;\r\n    }\r\n\r\n    function getLastProcessedIndex() external view returns(uint256) {\r\n    \treturn lastProcessedIndex;\r\n    }\r\n\r\n    function getNumberOfTokenHolders() external view returns(uint256) {\r\n        return tokenHoldersMap.keys.length;\r\n    }\r\n\r\n\r\n\r\n    function getAccount(address _account)\r\n        public view returns (\r\n            address account,\r\n            int256 index,\r\n            int256 iterationsUntilProcessed,\r\n            uint256 withdrawableDividends,\r\n            uint256 totalDividends,\r\n            uint256 lastClaimTime,\r\n            uint256 nextClaimTime,\r\n            uint256 secondsUntilAutoClaimAvailable) {\r\n        account = _account;\r\n\r\n        index = tokenHoldersMap.getIndexOfKey(account);\r\n\r\n        iterationsUntilProcessed = -1;\r\n\r\n        if(index >= 0) {\r\n            if(uint256(index) > lastProcessedIndex) {\r\n                iterationsUntilProcessed = index.sub(int256(lastProcessedIndex));\r\n            }\r\n            else {\r\n                uint256 processesUntilEndOfArray = tokenHoldersMap.keys.length > lastProcessedIndex ?\r\n                                                        tokenHoldersMap.keys.length.sub(lastProcessedIndex) :\r\n                                                        0;\r\n\r\n\r\n                iterationsUntilProcessed = index.add(int256(processesUntilEndOfArray));\r\n            }\r\n        }\r\n\r\n\r\n        withdrawableDividends = withdrawableDividendOf(account);\r\n        totalDividends = accumulativeDividendOf(account);\r\n\r\n        lastClaimTime = lastClaimTimes[account];\r\n\r\n        nextClaimTime = lastClaimTime > 0 ?\r\n                                    lastClaimTime.add(claimWait) :\r\n                                    0;\r\n\r\n        secondsUntilAutoClaimAvailable = nextClaimTime > block.timestamp ?\r\n                                                    nextClaimTime.sub(block.timestamp) :\r\n                                                    0;\r\n    }\r\n\r\n    function getAccountAtIndex(uint256 index)\r\n        public view returns (\r\n            address,\r\n            int256,\r\n            int256,\r\n            uint256,\r\n            uint256,\r\n            uint256,\r\n            uint256,\r\n            uint256) {\r\n    \tif(index >= tokenHoldersMap.size()) {\r\n            return (0x0000000000000000000000000000000000000000, -1, -1, 0, 0, 0, 0, 0);\r\n        }\r\n\r\n        address account = tokenHoldersMap.getKeyAtIndex(index);\r\n\r\n        return getAccount(account);\r\n    }\r\n\r\n    function canAutoClaim(uint256 lastClaimTime) private view returns (bool) {\r\n    \tif(lastClaimTime > block.timestamp)  {\r\n    \t\treturn false;\r\n    \t}\r\n\r\n    \treturn block.timestamp.sub(lastClaimTime) >= claimWait;\r\n    }\r\n\r\n    function setBalance(address payable account, uint256 newBalance) external onlyOwner {\r\n    \tif(excludedFromDividends[account]) {\r\n    \t\treturn;\r\n    \t}\r\n\r\n    \tif(newBalance >= minimumTokenBalanceForDividends) {\r\n            _setBalance(account, newBalance);\r\n    \t\ttokenHoldersMap.set(account, newBalance);\r\n    \t}\r\n    \telse {\r\n            _setBalance(account, 0);\r\n    \t\ttokenHoldersMap.remove(account);\r\n    \t}\r\n\r\n    \tprocessAccount(account, true);\r\n    }\r\n\r\n    function process(uint256 gas) public returns (uint256, uint256, uint256) {\r\n    \tuint256 numberOfTokenHolders = tokenHoldersMap.keys.length;\r\n\r\n    \tif(numberOfTokenHolders == 0) {\r\n    \t\treturn (0, 0, lastProcessedIndex);\r\n    \t}\r\n\r\n    \tuint256 _lastProcessedIndex = lastProcessedIndex;\r\n\r\n    \tuint256 gasUsed = 0;\r\n\r\n    \tuint256 gasLeft = gasleft();\r\n\r\n    \tuint256 iterations = 0;\r\n    \tuint256 claims = 0;\r\n\r\n    \twhile(gasUsed < gas && iterations < numberOfTokenHolders) {\r\n    \t\t_lastProcessedIndex++;\r\n\r\n    \t\tif(_lastProcessedIndex >= tokenHoldersMap.keys.length) {\r\n    \t\t\t_lastProcessedIndex = 0;\r\n    \t\t}\r\n\r\n    \t\taddress account = tokenHoldersMap.keys[_lastProcessedIndex];\r\n\r\n    \t\tif(canAutoClaim(lastClaimTimes[account])) {\r\n    \t\t\tif(processAccount(payable(account), true)) {\r\n    \t\t\t\tclaims++;\r\n    \t\t\t}\r\n    \t\t}\r\n\r\n    \t\titerations++;\r\n\r\n    \t\tuint256 newGasLeft = gasleft();\r\n\r\n    \t\tif(gasLeft > newGasLeft) {\r\n    \t\t\tgasUsed = gasUsed.add(gasLeft.sub(newGasLeft));\r\n    \t\t}\r\n\r\n    \t\tgasLeft = newGasLeft;\r\n    \t}\r\n\r\n    \tlastProcessedIndex = _lastProcessedIndex;\r\n\r\n    \treturn (iterations, claims, lastProcessedIndex);\r\n    }\r\n\r\n    function processAccount(address payable account, bool automatic) public onlyOwner returns (bool) {\r\n        uint256 amount = _withdrawDividendOfUser(account);\r\n\r\n    \tif(amount > 0) {\r\n    \t\tlastClaimTimes[account] = block.timestamp;\r\n            emit Claim(account, amount, automatic);\r\n    \t\treturn true;\r\n    \t}\r\n\r\n    \treturn false;\r\n    }\r\n}\r\n\r\n",
  "sourcePath": "C:\\Users\\aceso\\Desktop\\Contracts\\JEWELS\\contracts\\JEWEL.sol",
  "compiler": {
    "name": "solc",
    "version": "0.8.4+commit.c7e474f2.Emscripten.clang"
  },
  "schemaVersion": "3.4.2",
  "updatedAt": "2021-08-15T10:56:17.043Z",
  "devdoc": {
    "kind": "dev",
    "methods": {
      "accumulativeDividendOf(address)": {
        "details": "accumulativeDividendOf(_owner) = withdrawableDividendOf(_owner) + withdrawnDividendOf(_owner) = (magnifiedDividendPerShare * balanceOf(_owner) + magnifiedDividendCorrections[_owner]) / magnitude",
        "params": {
          "_owner": "The address of a token holder."
        },
        "returns": {
          "_0": "The amount of dividend in wei that `_owner` has earned in total."
        }
      },
      "allowance(address,address)": {
        "details": "See {IERC20-allowance}."
      },
      "approve(address,uint256)": {
        "details": "See {IERC20-approve}. Requirements: - `spender` cannot be the zero address."
      },
      "balanceOf(address)": {
        "details": "See {IERC20-balanceOf}."
      },
      "decimals()": {
        "details": "Returns the number of decimals used to get its user representation. For example, if `decimals` equals `2`, a balance of `505` tokens should be displayed to a user as `5,05` (`505 / 10 ** 2`). Tokens usually opt for a value of 18, imitating the relationship between Ether and Wei. This is the value {ERC20} uses, unless this function is overridden; NOTE: This information is only used for _display_ purposes: it in no way affects any of the arithmetic of the contract, including {IERC20-balanceOf} and {IERC20-transfer}."
      },
      "decreaseAllowance(address,uint256)": {
        "details": "Atomically decreases the allowance granted to `spender` by the caller. This is an alternative to {approve} that can be used as a mitigation for problems described in {IERC20-approve}. Emits an {Approval} event indicating the updated allowance. Requirements: - `spender` cannot be the zero address. - `spender` must have allowance for the caller of at least `subtractedValue`."
      },
      "dividendOf(address)": {
        "params": {
          "_owner": "The address of a token holder."
        },
        "returns": {
          "_0": "The amount of dividend in wei that `_owner` can withdraw."
        }
      },
      "increaseAllowance(address,uint256)": {
        "details": "Atomically increases the allowance granted to `spender` by the caller. This is an alternative to {approve} that can be used as a mitigation for problems described in {IERC20-approve}. Emits an {Approval} event indicating the updated allowance. Requirements: - `spender` cannot be the zero address."
      },
      "name()": {
        "details": "Returns the name of the token."
      },
      "owner()": {
        "details": "Returns the address of the current owner."
      },
      "renounceOwnership()": {
        "details": "Leaves the contract without owner. It will not be possible to call `onlyOwner` functions anymore. Can only be called by the current owner. NOTE: Renouncing ownership will leave the contract without an owner, thereby removing any functionality that is only available to the owner."
      },
      "symbol()": {
        "details": "Returns the symbol of the token, usually a shorter version of the name."
      },
      "totalSupply()": {
        "details": "See {IERC20-totalSupply}."
      },
      "transfer(address,uint256)": {
        "details": "See {IERC20-transfer}. Requirements: - `recipient` cannot be the zero address. - the caller must have a balance of at least `amount`."
      },
      "transferFrom(address,address,uint256)": {
        "details": "See {IERC20-transferFrom}. Emits an {Approval} event indicating the updated allowance. This is not required by the EIP. See the note at the beginning of {ERC20}. Requirements: - `sender` and `recipient` cannot be the zero address. - `sender` must have a balance of at least `amount`. - the caller must have allowance for ``sender``'s tokens of at least `amount`."
      },
      "transferOwnership(address)": {
        "details": "Transfers ownership of the contract to a new account (`newOwner`). Can only be called by the current owner."
      },
      "withdrawDividend()": {
        "details": "It emits a `DividendWithdrawn` event if the amount of withdrawn ether is greater than 0."
      },
      "withdrawableDividendOf(address)": {
        "params": {
          "_owner": "The address of a token holder."
        },
        "returns": {
          "_0": "The amount of dividend in wei that `_owner` can withdraw."
        }
      },
      "withdrawnDividendOf(address)": {
        "params": {
          "_owner": "The address of a token holder."
        },
        "returns": {
          "_0": "The amount of dividend in wei that `_owner` has withdrawn."
        }
      }
    },
    "version": 1
  },
  "userdoc": {
    "kind": "user",
    "methods": {
      "accumulativeDividendOf(address)": {
        "notice": "View the amount of dividend in wei that an address has earned in total."
      },
      "dividendOf(address)": {
        "notice": "View the amount of dividend in wei that an address can withdraw."
      },
      "withdrawDividend()": {
        "notice": "Withdraws the ether distributed to the sender."
      },
      "withdrawableDividendOf(address)": {
        "notice": "View the amount of dividend in wei that an address can withdraw."
      },
      "withdrawnDividendOf(address)": {
        "notice": "View the amount of dividend in wei that an address has withdrawn."
      }
    },
    "version": 1
  }
}