{
  "contractName": "JEWEL",
  "abi": [
    {
      "inputs": [],
      "stateMutability": "nonpayable",
      "type": "constructor"
    },
    {
      "anonymous": false,
      "inputs": [
        {
          "indexed": true,
          "internalType": "address",
          "name": "owner",
          "type": "address"
        },
        {
          "indexed": true,
          "internalType": "address",
          "name": "spender",
          "type": "address"
        },
        {
          "indexed": false,
          "internalType": "uint256",
          "name": "value",
          "type": "uint256"
        }
      ],
      "name": "Approval",
      "type": "event"
    },
    {
      "anonymous": false,
      "inputs": [
        {
          "indexed": true,
          "internalType": "address",
          "name": "account",
          "type": "address"
        },
        {
          "indexed": false,
          "internalType": "bool",
          "name": "isExcluded",
          "type": "bool"
        }
      ],
      "name": "ExcludeFromFees",
      "type": "event"
    },
    {
      "anonymous": false,
      "inputs": [
        {
          "indexed": false,
          "internalType": "address[]",
          "name": "accounts",
          "type": "address[]"
        },
        {
          "indexed": false,
          "internalType": "bool",
          "name": "isExcluded",
          "type": "bool"
        }
      ],
      "name": "ExcludeMultipleAccountsFromFees",
      "type": "event"
    },
    {
      "anonymous": false,
      "inputs": [
        {
          "indexed": true,
          "internalType": "uint256",
          "name": "newValue",
          "type": "uint256"
        },
        {
          "indexed": true,
          "internalType": "uint256",
          "name": "oldValue",
          "type": "uint256"
        }
      ],
      "name": "GasForProcessingUpdated",
      "type": "event"
    },
    {
      "anonymous": false,
      "inputs": [
        {
          "indexed": true,
          "internalType": "address",
          "name": "newLiquidityWallet",
          "type": "address"
        },
        {
          "indexed": true,
          "internalType": "address",
          "name": "oldLiquidityWallet",
          "type": "address"
        }
      ],
      "name": "LiquidityWalletUpdated",
      "type": "event"
    },
    {
      "anonymous": false,
      "inputs": [
        {
          "indexed": true,
          "internalType": "address",
          "name": "previousOwner",
          "type": "address"
        },
        {
          "indexed": true,
          "internalType": "address",
          "name": "newOwner",
          "type": "address"
        }
      ],
      "name": "OwnershipTransferred",
      "type": "event"
    },
    {
      "anonymous": false,
      "inputs": [
        {
          "indexed": false,
          "internalType": "uint256",
          "name": "iterations",
          "type": "uint256"
        },
        {
          "indexed": false,
          "internalType": "uint256",
          "name": "claims",
          "type": "uint256"
        },
        {
          "indexed": false,
          "internalType": "uint256",
          "name": "lastProcessedIndex",
          "type": "uint256"
        },
        {
          "indexed": true,
          "internalType": "bool",
          "name": "automatic",
          "type": "bool"
        },
        {
          "indexed": false,
          "internalType": "uint256",
          "name": "gas",
          "type": "uint256"
        },
        {
          "indexed": true,
          "internalType": "address",
          "name": "processor",
          "type": "address"
        }
      ],
      "name": "ProcessedDividendTracker",
      "type": "event"
    },
    {
      "anonymous": false,
      "inputs": [
        {
          "indexed": false,
          "internalType": "uint256",
          "name": "tokensSwapped",
          "type": "uint256"
        },
        {
          "indexed": false,
          "internalType": "uint256",
          "name": "amount",
          "type": "uint256"
        }
      ],
      "name": "SendDividends",
      "type": "event"
    },
    {
      "anonymous": false,
      "inputs": [
        {
          "indexed": true,
          "internalType": "address",
          "name": "pair",
          "type": "address"
        },
        {
          "indexed": true,
          "internalType": "bool",
          "name": "value",
          "type": "bool"
        }
      ],
      "name": "SetAutomatedMarketMakerPair",
      "type": "event"
    },
    {
      "anonymous": false,
      "inputs": [
        {
          "indexed": false,
          "internalType": "uint256",
          "name": "tokensSwapped",
          "type": "uint256"
        },
        {
          "indexed": false,
          "internalType": "uint256",
          "name": "ethReceived",
          "type": "uint256"
        },
        {
          "indexed": false,
          "internalType": "uint256",
          "name": "tokensIntoLiqudity",
          "type": "uint256"
        }
      ],
      "name": "SwapAndLiquify",
      "type": "event"
    },
    {
      "anonymous": false,
      "inputs": [
        {
          "indexed": true,
          "internalType": "address",
          "name": "from",
          "type": "address"
        },
        {
          "indexed": true,
          "internalType": "address",
          "name": "to",
          "type": "address"
        },
        {
          "indexed": false,
          "internalType": "uint256",
          "name": "value",
          "type": "uint256"
        }
      ],
      "name": "Transfer",
      "type": "event"
    },
    {
      "anonymous": false,
      "inputs": [
        {
          "indexed": true,
          "internalType": "address",
          "name": "newAddress",
          "type": "address"
        },
        {
          "indexed": true,
          "internalType": "address",
          "name": "oldAddress",
          "type": "address"
        }
      ],
      "name": "UpdateDividendTracker",
      "type": "event"
    },
    {
      "anonymous": false,
      "inputs": [
        {
          "indexed": true,
          "internalType": "address",
          "name": "newAddress",
          "type": "address"
        },
        {
          "indexed": true,
          "internalType": "address",
          "name": "oldAddress",
          "type": "address"
        }
      ],
      "name": "UpdateUniswapV2Router",
      "type": "event"
    },
    {
      "inputs": [],
      "name": "BUSDRewardsFee",
      "outputs": [
        {
          "internalType": "uint8",
          "name": "",
          "type": "uint8"
        }
      ],
      "stateMutability": "view",
      "type": "function"
    },
    {
      "inputs": [
        {
          "internalType": "address",
          "name": "",
          "type": "address"
        }
      ],
      "name": "_isBlacklisted",
      "outputs": [
        {
          "internalType": "bool",
          "name": "",
          "type": "bool"
        }
      ],
      "stateMutability": "view",
      "type": "function"
    },
    {
      "inputs": [],
      "name": "_marketingWalletAddress",
      "outputs": [
        {
          "internalType": "address",
          "name": "",
          "type": "address"
        }
      ],
      "stateMutability": "view",
      "type": "function"
    },
    {
      "inputs": [
        {
          "internalType": "address",
          "name": "owner",
          "type": "address"
        },
        {
          "internalType": "address",
          "name": "spender",
          "type": "address"
        }
      ],
      "name": "allowance",
      "outputs": [
        {
          "internalType": "uint256",
          "name": "",
          "type": "uint256"
        }
      ],
      "stateMutability": "view",
      "type": "function"
    },
    {
      "inputs": [
        {
          "internalType": "address",
          "name": "spender",
          "type": "address"
        },
        {
          "internalType": "uint256",
          "name": "amount",
          "type": "uint256"
        }
      ],
      "name": "approve",
      "outputs": [
        {
          "internalType": "bool",
          "name": "",
          "type": "bool"
        }
      ],
      "stateMutability": "nonpayable",
      "type": "function"
    },
    {
      "inputs": [
        {
          "internalType": "address",
          "name": "",
          "type": "address"
        }
      ],
      "name": "automatedMarketMakerPairs",
      "outputs": [
        {
          "internalType": "bool",
          "name": "",
          "type": "bool"
        }
      ],
      "stateMutability": "view",
      "type": "function"
    },
    {
      "inputs": [
        {
          "internalType": "address",
          "name": "account",
          "type": "address"
        }
      ],
      "name": "balanceOf",
      "outputs": [
        {
          "internalType": "uint256",
          "name": "",
          "type": "uint256"
        }
      ],
      "stateMutability": "view",
      "type": "function"
    },
    {
      "inputs": [],
      "name": "decimals",
      "outputs": [
        {
          "internalType": "uint8",
          "name": "",
          "type": "uint8"
        }
      ],
      "stateMutability": "view",
      "type": "function"
    },
    {
      "inputs": [
        {
          "internalType": "address",
          "name": "spender",
          "type": "address"
        },
        {
          "internalType": "uint256",
          "name": "subtractedValue",
          "type": "uint256"
        }
      ],
      "name": "decreaseAllowance",
      "outputs": [
        {
          "internalType": "bool",
          "name": "",
          "type": "bool"
        }
      ],
      "stateMutability": "nonpayable",
      "type": "function"
    },
    {
      "inputs": [],
      "name": "dividendTracker",
      "outputs": [
        {
          "internalType": "contract JEWELDividendTracker",
          "name": "",
          "type": "address"
        }
      ],
      "stateMutability": "view",
      "type": "function"
    },
    {
      "inputs": [],
      "name": "gasForProcessing",
      "outputs": [
        {
          "internalType": "uint256",
          "name": "",
          "type": "uint256"
        }
      ],
      "stateMutability": "view",
      "type": "function"
    },
    {
      "inputs": [
        {
          "internalType": "address",
          "name": "spender",
          "type": "address"
        },
        {
          "internalType": "uint256",
          "name": "addedValue",
          "type": "uint256"
        }
      ],
      "name": "increaseAllowance",
      "outputs": [
        {
          "internalType": "bool",
          "name": "",
          "type": "bool"
        }
      ],
      "stateMutability": "nonpayable",
      "type": "function"
    },
    {
      "inputs": [],
      "name": "liquidityFee",
      "outputs": [
        {
          "internalType": "uint8",
          "name": "",
          "type": "uint8"
        }
      ],
      "stateMutability": "view",
      "type": "function"
    },
    {
      "inputs": [],
      "name": "lotteryFee",
      "outputs": [
        {
          "internalType": "uint16",
          "name": "",
          "type": "uint16"
        }
      ],
      "stateMutability": "view",
      "type": "function"
    },
    {
      "inputs": [],
      "name": "lotteryTracker",
      "outputs": [
        {
          "internalType": "contract LotteryTracker",
          "name": "",
          "type": "address"
        }
      ],
      "stateMutability": "view",
      "type": "function"
    },
    {
      "inputs": [],
      "name": "marketingFee",
      "outputs": [
        {
          "internalType": "uint8",
          "name": "",
          "type": "uint8"
        }
      ],
      "stateMutability": "view",
      "type": "function"
    },
    {
      "inputs": [],
      "name": "monthly",
      "outputs": [
        {
          "internalType": "uint8",
          "name": "",
          "type": "uint8"
        }
      ],
      "stateMutability": "view",
      "type": "function"
    },
    {
      "inputs": [],
      "name": "name",
      "outputs": [
        {
          "internalType": "string",
          "name": "",
          "type": "string"
        }
      ],
      "stateMutability": "view",
      "type": "function"
    },
    {
      "inputs": [],
      "name": "owner",
      "outputs": [
        {
          "internalType": "address",
          "name": "",
          "type": "address"
        }
      ],
      "stateMutability": "view",
      "type": "function"
    },
    {
      "inputs": [],
      "name": "renounceOwnership",
      "outputs": [],
      "stateMutability": "nonpayable",
      "type": "function"
    },
    {
      "inputs": [],
      "name": "swapTokensAtAmount",
      "outputs": [
        {
          "internalType": "uint256",
          "name": "",
          "type": "uint256"
        }
      ],
      "stateMutability": "view",
      "type": "function"
    },
    {
      "inputs": [],
      "name": "symbol",
      "outputs": [
        {
          "internalType": "string",
          "name": "",
          "type": "string"
        }
      ],
      "stateMutability": "view",
      "type": "function"
    },
    {
      "inputs": [],
      "name": "totalFees",
      "outputs": [
        {
          "internalType": "uint16",
          "name": "",
          "type": "uint16"
        }
      ],
      "stateMutability": "view",
      "type": "function"
    },
    {
      "inputs": [],
      "name": "totalSupply",
      "outputs": [
        {
          "internalType": "uint256",
          "name": "",
          "type": "uint256"
        }
      ],
      "stateMutability": "view",
      "type": "function"
    },
    {
      "inputs": [
        {
          "internalType": "address",
          "name": "recipient",
          "type": "address"
        },
        {
          "internalType": "uint256",
          "name": "amount",
          "type": "uint256"
        }
      ],
      "name": "transfer",
      "outputs": [
        {
          "internalType": "bool",
          "name": "",
          "type": "bool"
        }
      ],
      "stateMutability": "nonpayable",
      "type": "function"
    },
    {
      "inputs": [
        {
          "internalType": "address",
          "name": "sender",
          "type": "address"
        },
        {
          "internalType": "address",
          "name": "recipient",
          "type": "address"
        },
        {
          "internalType": "uint256",
          "name": "amount",
          "type": "uint256"
        }
      ],
      "name": "transferFrom",
      "outputs": [
        {
          "internalType": "bool",
          "name": "",
          "type": "bool"
        }
      ],
      "stateMutability": "nonpayable",
      "type": "function"
    },
    {
      "inputs": [
        {
          "internalType": "address",
          "name": "newOwner",
          "type": "address"
        }
      ],
      "name": "transferOwnership",
      "outputs": [],
      "stateMutability": "nonpayable",
      "type": "function"
    },
    {
      "inputs": [],
      "name": "ultimate",
      "outputs": [
        {
          "internalType": "uint8",
          "name": "",
          "type": "uint8"
        }
      ],
      "stateMutability": "view",
      "type": "function"
    },
    {
      "inputs": [],
      "name": "uniswapV2Pair",
      "outputs": [
        {
          "internalType": "address",
          "name": "",
          "type": "address"
        }
      ],
      "stateMutability": "view",
      "type": "function"
    },
    {
      "inputs": [],
      "name": "uniswapV2Router",
      "outputs": [
        {
          "internalType": "contract IUniswapV2Router02",
          "name": "",
          "type": "address"
        }
      ],
      "stateMutability": "view",
      "type": "function"
    },
    {
      "inputs": [],
      "name": "weekly",
      "outputs": [
        {
          "internalType": "uint8",
          "name": "",
          "type": "uint8"
        }
      ],
      "stateMutability": "view",
      "type": "function"
    },
    {
      "stateMutability": "payable",
      "type": "receive"
    },
    {
      "inputs": [
        {
          "internalType": "address",
          "name": "newAddress",
          "type": "address"
        }
      ],
      "name": "updateDividendTracker",
      "outputs": [],
      "stateMutability": "nonpayable",
      "type": "function"
    },
    {
      "inputs": [
        {
          "internalType": "address",
          "name": "newAddress",
          "type": "address"
        }
      ],
      "name": "updateUniswapV2Router",
      "outputs": [],
      "stateMutability": "nonpayable",
      "type": "function"
    },
    {
      "inputs": [
        {
          "internalType": "address",
          "name": "account",
          "type": "address"
        },
        {
          "internalType": "bool",
          "name": "excluded",
          "type": "bool"
        }
      ],
      "name": "excludeFromFees",
      "outputs": [],
      "stateMutability": "nonpayable",
      "type": "function"
    },
    {
      "inputs": [
        {
          "internalType": "address[]",
          "name": "accounts",
          "type": "address[]"
        },
        {
          "internalType": "bool",
          "name": "excluded",
          "type": "bool"
        }
      ],
      "name": "excludeMultipleAccountsFromFees",
      "outputs": [],
      "stateMutability": "nonpayable",
      "type": "function"
    },
    {
      "inputs": [
        {
          "internalType": "address payable",
          "name": "wallet",
          "type": "address"
        }
      ],
      "name": "setMarketingWallet",
      "outputs": [],
      "stateMutability": "nonpayable",
      "type": "function"
    },
    {
      "inputs": [
        {
          "internalType": "uint8",
          "name": "value",
          "type": "uint8"
        }
      ],
      "name": "setBUSDRewardsFee",
      "outputs": [],
      "stateMutability": "nonpayable",
      "type": "function"
    },
    {
      "inputs": [
        {
          "internalType": "uint8",
          "name": "value",
          "type": "uint8"
        }
      ],
      "name": "setLiquiditFee",
      "outputs": [],
      "stateMutability": "nonpayable",
      "type": "function"
    },
    {
      "inputs": [
        {
          "internalType": "uint8",
          "name": "value",
          "type": "uint8"
        }
      ],
      "name": "setMarketingFee",
      "outputs": [],
      "stateMutability": "nonpayable",
      "type": "function"
    },
    {
      "inputs": [
        {
          "internalType": "bool",
          "name": "value",
          "type": "bool"
        }
      ],
      "name": "setLotteryState",
      "outputs": [],
      "stateMutability": "nonpayable",
      "type": "function"
    },
    {
      "inputs": [
        {
          "internalType": "uint8",
          "name": "_weekly",
          "type": "uint8"
        },
        {
          "internalType": "uint8",
          "name": "_monthly",
          "type": "uint8"
        },
        {
          "internalType": "uint8",
          "name": "_ultimate",
          "type": "uint8"
        }
      ],
      "name": "setLotteryFee",
      "outputs": [],
      "stateMutability": "nonpayable",
      "type": "function"
    },
    {
      "inputs": [
        {
          "internalType": "address",
          "name": "pair",
          "type": "address"
        },
        {
          "internalType": "bool",
          "name": "value",
          "type": "bool"
        }
      ],
      "name": "setAutomatedMarketMakerPair",
      "outputs": [],
      "stateMutability": "nonpayable",
      "type": "function"
    },
    {
      "inputs": [
        {
          "internalType": "address",
          "name": "account",
          "type": "address"
        },
        {
          "internalType": "bool",
          "name": "value",
          "type": "bool"
        }
      ],
      "name": "blacklistAddress",
      "outputs": [],
      "stateMutability": "nonpayable",
      "type": "function"
    },
    {
      "inputs": [
        {
          "internalType": "uint256",
          "name": "newValue",
          "type": "uint256"
        }
      ],
      "name": "updateGasForProcessing",
      "outputs": [],
      "stateMutability": "nonpayable",
      "type": "function"
    },
    {
      "inputs": [
        {
          "internalType": "uint256",
          "name": "claimWait",
          "type": "uint256"
        }
      ],
      "name": "updateClaimWait",
      "outputs": [],
      "stateMutability": "nonpayable",
      "type": "function"
    },
    {
      "inputs": [],
      "name": "getClaimWait",
      "outputs": [
        {
          "internalType": "uint256",
          "name": "",
          "type": "uint256"
        }
      ],
      "stateMutability": "view",
      "type": "function"
    },
    {
      "inputs": [],
      "name": "getTotalDividendsDistributed",
      "outputs": [
        {
          "internalType": "uint256",
          "name": "",
          "type": "uint256"
        }
      ],
      "stateMutability": "view",
      "type": "function"
    },
    {
      "inputs": [
        {
          "internalType": "address",
          "name": "account",
          "type": "address"
        }
      ],
      "name": "isExcludedFromFees",
      "outputs": [
        {
          "internalType": "bool",
          "name": "",
          "type": "bool"
        }
      ],
      "stateMutability": "view",
      "type": "function"
    },
    {
      "inputs": [
        {
          "internalType": "address",
          "name": "account",
          "type": "address"
        }
      ],
      "name": "withdrawableDividendOf",
      "outputs": [
        {
          "internalType": "uint256",
          "name": "",
          "type": "uint256"
        }
      ],
      "stateMutability": "view",
      "type": "function"
    },
    {
      "inputs": [
        {
          "internalType": "address",
          "name": "account",
          "type": "address"
        }
      ],
      "name": "dividendTokenBalanceOf",
      "outputs": [
        {
          "internalType": "uint256",
          "name": "",
          "type": "uint256"
        }
      ],
      "stateMutability": "view",
      "type": "function"
    },
    {
      "inputs": [
        {
          "internalType": "address",
          "name": "account",
          "type": "address"
        }
      ],
      "name": "excludeFromDividends",
      "outputs": [],
      "stateMutability": "nonpayable",
      "type": "function"
    },
    {
      "inputs": [
        {
          "internalType": "address",
          "name": "account",
          "type": "address"
        }
      ],
      "name": "excludeFromWeekly",
      "outputs": [],
      "stateMutability": "nonpayable",
      "type": "function"
    },
    {
      "inputs": [
        {
          "internalType": "address",
          "name": "account",
          "type": "address"
        }
      ],
      "name": "excludeFromMonthly",
      "outputs": [],
      "stateMutability": "nonpayable",
      "type": "function"
    },
    {
      "inputs": [
        {
          "internalType": "address",
          "name": "account",
          "type": "address"
        }
      ],
      "name": "excludeFromUltimate",
      "outputs": [],
      "stateMutability": "nonpayable",
      "type": "function"
    },
    {
      "inputs": [
        {
          "internalType": "uint256",
          "name": "_weekly",
          "type": "uint256"
        },
        {
          "internalType": "uint256",
          "name": "_monthly",
          "type": "uint256"
        },
        {
          "internalType": "uint256",
          "name": "_ultimate",
          "type": "uint256"
        }
      ],
      "name": "setMinValues",
      "outputs": [],
      "stateMutability": "nonpayable",
      "type": "function"
    },
    {
      "inputs": [],
      "name": "pickUltimateWinner",
      "outputs": [],
      "stateMutability": "nonpayable",
      "type": "function"
    },
    {
      "inputs": [
        {
          "internalType": "address",
          "name": "account",
          "type": "address"
        }
      ],
      "name": "getAccountDividendsInfo",
      "outputs": [
        {
          "internalType": "address",
          "name": "",
          "type": "address"
        },
        {
          "internalType": "int256",
          "name": "",
          "type": "int256"
        },
        {
          "internalType": "int256",
          "name": "",
          "type": "int256"
        },
        {
          "internalType": "uint256",
          "name": "",
          "type": "uint256"
        },
        {
          "internalType": "uint256",
          "name": "",
          "type": "uint256"
        },
        {
          "internalType": "uint256",
          "name": "",
          "type": "uint256"
        },
        {
          "internalType": "uint256",
          "name": "",
          "type": "uint256"
        },
        {
          "internalType": "uint256",
          "name": "",
          "type": "uint256"
        }
      ],
      "stateMutability": "view",
      "type": "function"
    },
    {
      "inputs": [
        {
          "internalType": "uint256",
          "name": "index",
          "type": "uint256"
        }
      ],
      "name": "getAccountDividendsInfoAtIndex",
      "outputs": [
        {
          "internalType": "address",
          "name": "",
          "type": "address"
        },
        {
          "internalType": "int256",
          "name": "",
          "type": "int256"
        },
        {
          "internalType": "int256",
          "name": "",
          "type": "int256"
        },
        {
          "internalType": "uint256",
          "name": "",
          "type": "uint256"
        },
        {
          "internalType": "uint256",
          "name": "",
          "type": "uint256"
        },
        {
          "internalType": "uint256",
          "name": "",
          "type": "uint256"
        },
        {
          "internalType": "uint256",
          "name": "",
          "type": "uint256"
        },
        {
          "internalType": "uint256",
          "name": "",
          "type": "uint256"
        }
      ],
      "stateMutability": "view",
      "type": "function"
    },
    {
      "inputs": [
        {
          "internalType": "uint256",
          "name": "gas",
          "type": "uint256"
        }
      ],
      "name": "processDividendTracker",
      "outputs": [],
      "stateMutability": "nonpayable",
      "type": "function"
    },
    {
      "inputs": [],
      "name": "claim",
      "outputs": [],
      "stateMutability": "nonpayable",
      "type": "function"
    },
    {
      "inputs": [],
      "name": "getLastProcessedIndex",
      "outputs": [
        {
          "internalType": "uint256",
          "name": "",
          "type": "uint256"
        }
      ],
      "stateMutability": "view",
      "type": "function"
    },
    {
      "inputs": [],
      "name": "getNumberOfDividendTokenHolders",
      "outputs": [
        {
          "internalType": "uint256",
          "name": "",
          "type": "uint256"
        }
      ],
      "stateMutability": "view",
      "type": "function"
    }
  ],
  "bytecode": "0x6080604052692a5a058fc295ed000000600a55600c805465ffffffffffff191665020501020402179081905560ff65010000000000820481169162000057916401000000008204811691630100000090041662000e75565b62000063919062000e75565b600c8054660100000000000060ff938416810261ffff60301b19831681179384905590830461ffff1693620100008404811693620000af93610100909104821692821691161762000e75565b620000bb919062000e75565b60ff16620000ca919062000e31565b600c8054600160401b600160f01b0319166801000000000000000061ffff9390931692909202600160501b600160f01b031916919091179055620493e0600d553480156200011757600080fd5b50604080518082018252600b81526a2522aba2a6102a27a5a2a760a91b6020808301918252835180850190945260048452634a574c5360e01b908401528151919291620001679160039162000d1d565b5080516200017d90600490602084019062000d1d565b5050506200019a620001946200094460201b60201c565b62000948565b604051620001a89062000dac565b604051809103906000f080158015620001c5573d6000803e3d6000fd5b50600880546001600160a01b0319166001600160a01b0392909216919091179055604051620001f49062000dba565b604051809103906000f08015801562000211573d6000803e3d6000fd5b50600960006101000a8154816001600160a01b0302191690836001600160a01b031602179055506000737a250d5630b4cf539739df2c5dacb4c659f2488d90506000816001600160a01b031663c45a01556040518163ffffffff1660e01b815260040160206040518083038186803b1580156200028d57600080fd5b505afa158015620002a2573d6000803e3d6000fd5b505050506040513d601f19601f82011682018060405250810190620002c8919062000ddf565b6001600160a01b031663c9c6539630846001600160a01b031663ad5c46486040518163ffffffff1660e01b815260040160206040518083038186803b1580156200031157600080fd5b505afa15801562000326573d6000803e3d6000fd5b505050506040513d601f19601f820116820180604052508101906200034c919062000ddf565b6040516001600160e01b031960e085901b1681526001600160a01b03928316600482015291166024820152604401602060405180830381600087803b1580156200039557600080fd5b505af1158015620003aa573d6000803e3d6000fd5b505050506040513d601f19601f82011682018060405250810190620003d0919062000ddf565b600680546001600160a01b038086166001600160a01b031992831617909255600780549284169290911691909117905590506200040f8160016200099a565b60085460405163031e79db60e41b81526001600160a01b0390911660048201819052906331e79db090602401600060405180830381600087803b1580156200045657600080fd5b505af11580156200046b573d6000803e3d6000fd5b505060085460405163031e79db60e41b81523060048201526001600160a01b0390911692506331e79db09150602401600060405180830381600087803b158015620004b557600080fd5b505af1158015620004ca573d6000803e3d6000fd5b50506008546001600160a01b031691506331e79db09050620004f46005546001600160a01b031690565b6040516001600160e01b031960e084901b1681526001600160a01b039091166004820152602401600060405180830381600087803b1580156200053657600080fd5b505af11580156200054b573d6000803e3d6000fd5b505060085460405163031e79db60e41b815261dead60048201526001600160a01b0390911692506331e79db09150602401600060405180830381600087803b1580156200059757600080fd5b505af1158015620005ac573d6000803e3d6000fd5b505060085460405163031e79db60e41b81526001600160a01b03868116600483015290911692506331e79db09150602401600060405180830381600087803b158015620005f857600080fd5b505af11580156200060d573d6000803e3d6000fd5b5050600854600954604051634e7b827f60e01b81526001600160a01b03918216600482015291169250634e7b827f915060240160206040518083038186803b1580156200065957600080fd5b505afa1580156200066e573d6000803e3d6000fd5b505050506040513d601f19601f8201168201806040525081019062000694919062000e0f565b50600954600754604051631ecc9a7f60e11b81526001600160a01b039182166004820152911690633d9934fe9060240160206040518083038186803b158015620006dd57600080fd5b505afa158015620006f2573d6000803e3d6000fd5b505050506040513d601f19601f8201168201806040525081019062000718919062000e0f565b5060095460075460405163dda3dbbf60e01b81526001600160a01b03918216600482015291169063dda3dbbf9060240160206040518083038186803b1580156200076157600080fd5b505afa15801562000776573d6000803e3d6000fd5b505050506040513d601f19601f820116820180604052508101906200079c919062000e0f565b5060095460075460405163e7e41b2960e01b81526001600160a01b03918216600482015291169063e7e41b299060240160206040518083038186803b158015620007e557600080fd5b505afa158015620007fa573d6000803e3d6000fd5b505050506040513d601f19601f8201168201806040525081019062000820919062000e0f565b5062000840620008386005546001600160a01b031690565b600162000b01565b600c5462000867906a010000000000000000000090046001600160a01b0316600162000b01565b6200087430600162000b01565b6200089e6200088b6005546001600160a01b031690565b6b033b2e3c9fd0803ce800000062000c38565b60095460405163095ea7b360e01b81526001600160a01b039091166004820152600019602482015273e879d7ba401b0b8c3ec010001fb95de1202425009063095ea7b390604401602060405180830381600087803b1580156200090057600080fd5b505af115801562000915573d6000803e3d6000fd5b505050506040513d601f19601f820116820180604052508101906200093b919062000e0f565b50505062000ef0565b3390565b600580546001600160a01b038381166001600160a01b0319831681179093556040519116919082907f8be0079c531659141344cd1fd0a4f28419497f9722a3daafe3b4186f6b6457e090600090a35050565b6001600160a01b0382166000908152600f602052604090205460ff161515811515141562000a355760405162461bcd60e51b815260206004820152603f60248201527f4a4557454c3a204175746f6d61746564206d61726b6574206d616b657220706160448201527f697220697320616c72656164792073657420746f20746861742076616c75650060648201526084015b60405180910390fd5b6001600160a01b0382166000908152600f60205260409020805460ff1916821580159190911790915562000ac55760085460405163031e79db60e41b81526001600160a01b038481166004830152909116906331e79db090602401600060405180830381600087803b15801562000aab57600080fd5b505af115801562000ac0573d6000803e3d6000fd5b505050505b604051811515906001600160a01b038416907fffa9187bf1f18bf477bd0ea1bcbb64e93b6a98132473929edfce215cd9b16fab90600090a35050565b6005546001600160a01b0316331462000b5d5760405162461bcd60e51b815260206004820181905260248201527f4f776e61626c653a2063616c6c6572206973206e6f7420746865206f776e6572604482015260640162000a2c565b6001600160a01b0382166000908152600e602052604090205460ff161515811515141562000bd95760405162461bcd60e51b815260206004820152602260248201527f4a4557454c3a204163636f756e7420697320616c7265616479206578636c7564604482015261195960f21b606482015260840162000a2c565b6001600160a01b0382166000818152600e6020908152604091829020805460ff191685151590811790915591519182527f9d8f7706ea1113d1a167b526eca956215946dd36cc7df39eb16180222d8b5df7910160405180910390a25050565b6001600160a01b03821662000c905760405162461bcd60e51b815260206004820152601f60248201527f45524332303a206d696e7420746f20746865207a65726f206164647265737300604482015260640162000a2c565b806002600082825462000ca4919062000e5a565b90915550506001600160a01b0382166000908152602081905260408120805483929062000cd390849062000e5a565b90915550506040518181526001600160a01b038316906000907fddf252ad1be2c89b69c2b068fc378daa952ba7f163c4a11628f55a4df523b3ef9060200160405180910390a35050565b82805462000d2b9062000e9d565b90600052602060002090601f01602090048101928262000d4f576000855562000d9a565b82601f1062000d6a57805160ff191683800117855562000d9a565b8280016001018555821562000d9a579182015b8281111562000d9a57825182559160200191906001019062000d7d565b5062000da892915062000dc8565b5090565b61250a8062005fd183390190565b611da680620084db83390190565b5b8082111562000da8576000815560010162000dc9565b60006020828403121562000df1578081fd5b81516001600160a01b038116811462000e08578182fd5b9392505050565b60006020828403121562000e21578081fd5b8151801515811462000e08578182fd5b600061ffff80831681851680830382111562000e515762000e5162000eda565b01949350505050565b6000821982111562000e705762000e7062000eda565b500190565b600060ff821660ff84168060ff0382111562000e955762000e9562000eda565b019392505050565b600181811c9082168062000eb257607f821691505b6020821081141562000ed457634e487b7160e01b600052602260045260246000fd5b50919050565b634e487b7160e01b600052601160045260246000fd5b6150d18062000f006000396000f3fe6080604052600436106103b15760003560e01c8063715018a6116101e7578063ad56c13c1161010d578063e2f45605116100a0578063f2fde38b1161006f578063f2fde38b14610bb8578063f535c8b314610bd8578063fcd7e3c814610bed578063ff74c76614610c0f57600080fd5b8063e2f4560514610b4d578063e7841ec014610b63578063e98030c714610b78578063f27fd25414610b9857600080fd5b8063c492f046116100dc578063c492f04614610aa7578063d9c8cfbc14610ac7578063dd62ed3e14610ae7578063e1de9f0b14610b2d57600080fd5b8063ad56c13c146109d2578063b62496f514610a37578063b7e225cb14610a67578063c024666814610a8757600080fd5b806398118cb411610185578063a457c2d711610154578063a457c2d714610952578063a8b9d24014610972578063a9059cbb14610992578063a9797054146109b257600080fd5b806398118cb4146108e85780639a7a23d6146109075780639c1b8af514610927578063a26579ad1461093d57600080fd5b806388bdd9be116101c157806388bdd9be1461087557806389998c07146108955780638da5cb5b146108b557806395d89b41146108d357600080fd5b8063715018a61461081b57806378aa08ed14610830578063871c128d1461085557600080fd5b80634144d9e4116102d75780635d098b381161026a5780636843cd84116102395780636843cd84146107855780636b67c4df146107a5578063700bb191146107c557806370a08231146107e557600080fd5b80635d098b38146107105780635d285af11461073057806364b0f6531461075057806365b8dbc01461076557600080fd5b80634b9f6558116102a65780634b9f6558146106885780634df4e6b9146106a85780634e71d92d146106c25780634fbee193146106d757600080fd5b80634144d9e4146105fa57806341b18e4e14610628578063455a43961461064857806349bd5a5e1461066857600080fd5b806323b872dd1161034f57806330bb4cff1161031e57806330bb4cff14610591578063313ce567146105a657806331e79db0146105ba57806339509351146105da57600080fd5b806323b872dd1461050e57806326cfc17b1461052e57806329fe077d1461054f5780632c1f52161461057157600080fd5b806313114a9d1161038b57806313114a9d1461044d5780631694505e1461048757806318160ddd146104bf5780631cdd3be3146104de57600080fd5b806306fdde03146103bd578063095ea7b3146103e85780630c240f9b1461041857600080fd5b366103b857005b600080fd5b3480156103c957600080fd5b506103d2610c2f565b6040516103df9190614deb565b60405180910390f35b3480156103f457600080fd5b50610408610403366004614bca565b610cc1565b60405190151581526020016103df565b34801561042457600080fd5b50600c5461043b9065010000000000900460ff1681565b60405160ff90911681526020016103df565b34801561045957600080fd5b50600c546104749068010000000000000000900461ffff1681565b60405161ffff90911681526020016103df565b34801561049357600080fd5b506006546104a7906001600160a01b031681565b6040516001600160a01b0390911681526020016103df565b3480156104cb57600080fd5b506002545b6040519081526020016103df565b3480156104ea57600080fd5b506104086104f9366004614a84565b600b6020526000908152604090205460ff1681565b34801561051a57600080fd5b50610408610529366004614af4565b610cd7565b34801561053a57600080fd5b50600c5461043b906301000000900460ff1681565b34801561055b57600080fd5b5061056f61056a366004614d36565b610d9b565b005b34801561057d57600080fd5b506008546104a7906001600160a01b031681565b34801561059d57600080fd5b506104d0610e91565b3480156105b257600080fd5b50601261043b565b3480156105c657600080fd5b5061056f6105d5366004614a84565b610f2c565b3480156105e657600080fd5b506104086105f5366004614bca565b611002565b34801561060657600080fd5b50600c546104a7906a010000000000000000000090046001600160a01b031681565b34801561063457600080fd5b5061056f610643366004614c76565b61103e565b34801561065457600080fd5b5061056f610663366004614b34565b6110e4565b34801561067457600080fd5b506007546104a7906001600160a01b031681565b34801561069457600080fd5b5061056f6106a3366004614a84565b611169565b3480156106b457600080fd5b50600c5461043b9060ff1681565b3480156106ce57600080fd5b5061056f61120e565b3480156106e357600080fd5b506104086106f2366004614a84565b6001600160a01b03166000908152600e602052604090205460ff1690565b34801561071c57600080fd5b5061056f61072b366004614a84565b6112ae565b34801561073c57600080fd5b506009546104a7906001600160a01b031681565b34801561075c57600080fd5b506104d0611350565b34801561077157600080fd5b5061056f610780366004614a84565b6113ae565b34801561079157600080fd5b506104d06107a0366004614a84565b6116f0565b3480156107b157600080fd5b50600c5461043b9062010000900460ff1681565b3480156107d157600080fd5b5061056f6107e0366004614cc6565b61178e565b3480156107f157600080fd5b506104d0610800366004614a84565b6001600160a01b031660009081526020819052604090205490565b34801561082757600080fd5b5061056f611886565b34801561083c57600080fd5b50600c54610474906601000000000000900461ffff1681565b34801561086157600080fd5b5061056f610870366004614cc6565b6118ec565b34801561088157600080fd5b5061056f610890366004614a84565b611a79565b3480156108a157600080fd5b5061056f6108b0366004614cde565b611edf565b3480156108c157600080fd5b506005546001600160a01b03166104a7565b3480156108df57600080fd5b506103d2611fc3565b3480156108f457600080fd5b50600c5461043b90610100900460ff1681565b34801561091357600080fd5b5061056f610922366004614b34565b611fd2565b34801561093357600080fd5b506104d0600d5481565b34801561094957600080fd5b506104d06120e4565b34801561095e57600080fd5b5061040861096d366004614bca565b612142565b34801561097e57600080fd5b506104d061098d366004614a84565b6121f3565b34801561099e57600080fd5b506104086109ad366004614bca565b61223f565b3480156109be57600080fd5b5061056f6109cd366004614a84565b61224c565b3480156109de57600080fd5b506109f26109ed366004614a84565b6122f1565b604080516001600160a01b0390991689526020890197909752958701949094526060860192909252608085015260a084015260c083015260e0820152610100016103df565b348015610a4357600080fd5b50610408610a52366004614a84565b600f6020526000908152604090205460ff1681565b348015610a7357600080fd5b5061056f610a82366004614d36565b6123b4565b348015610a9357600080fd5b5061056f610aa2366004614b34565b612474565b348015610ab357600080fd5b5061056f610ac2366004614bf5565b6125c2565b348015610ad357600080fd5b5061056f610ae2366004614d50565b6126f5565b348015610af357600080fd5b506104d0610b02366004614abc565b6001600160a01b03918216600090815260016020908152604080832093909416825291909152205490565b348015610b3957600080fd5b5061056f610b48366004614d36565b6128a9565b348015610b5957600080fd5b506104d0600a5481565b348015610b6f57600080fd5b506104d0612942565b348015610b8457600080fd5b5061056f610b93366004614cc6565b6129a0565b348015610ba457600080fd5b506109f2610bb3366004614cc6565b612a44565b348015610bc457600080fd5b5061056f610bd3366004614a84565b612a9f565b348015610be457600080fd5b5061056f612b7e565b348015610bf957600080fd5b50600c5461043b90640100000000900460ff1681565b348015610c1b57600080fd5b5061056f610c2a366004614a84565b612d57565b606060038054610c3e90614fbc565b80601f0160208091040260200160405190810160405280929190818152602001828054610c6a90614fbc565b8015610cb75780601f10610c8c57610100808354040283529160200191610cb7565b820191906000526020600020905b815481529060010190602001808311610c9a57829003601f168201915b5050505050905090565b6000610cce338484612dfc565b50600192915050565b6000610ce4848484612f54565b6001600160a01b038416600090815260016020908152604080832033845290915290205482811015610d835760405162461bcd60e51b815260206004820152602860248201527f45524332303a207472616e7366657220616d6f756e742065786365656473206160448201527f6c6c6f77616e636500000000000000000000000000000000000000000000000060648201526084015b60405180910390fd5b610d908533858403612dfc565b506001949350505050565b6005546001600160a01b03163314610df55760405162461bcd60e51b815260206004820181905260248201527f4f776e61626c653a2063616c6c6572206973206e6f7420746865206f776e65726044820152606401610d7a565b600c805460ff808416620100009081027fffffffffffffffffffffffffffffffffffffffffffffffffffffffffff00ffff841681179485905561ffff660100000000000086041694918204831693610e5b93610100909304831692918216911617614f0a565b610e659190614f0a565b60ff16610e729190614ecc565b600c60086101000a81548161ffff021916908361ffff16021790555050565b600854604080517f85a6b3ae00000000000000000000000000000000000000000000000000000000815290516000926001600160a01b0316916385a6b3ae916004808301926020929190829003018186803b158015610eef57600080fd5b505afa158015610f03573d6000803e3d6000fd5b505050506040513d601f19601f82011682018060405250810190610f279190614cae565b905090565b6005546001600160a01b03163314610f865760405162461bcd60e51b815260206004820181905260248201527f4f776e61626c653a2063616c6c6572206973206e6f7420746865206f776e65726044820152606401610d7a565b6008546040517f31e79db00000000000000000000000000000000000000000000000000000000081526001600160a01b038381166004830152909116906331e79db0906024015b600060405180830381600087803b158015610fe757600080fd5b505af1158015610ffb573d6000803e3d6000fd5b5050505050565b3360008181526001602090815260408083206001600160a01b03871684529091528120549091610cce918590611039908690614ef2565b612dfc565b6005546001600160a01b031633146110985760405162461bcd60e51b815260206004820181905260248201527f4f776e61626c653a2063616c6c6572206973206e6f7420746865206f776e65726044820152606401610d7a565b60078054911515760100000000000000000000000000000000000000000000027fffffffffffffffffff00ffffffffffffffffffffffffffffffffffffffffffff909216919091179055565b6005546001600160a01b0316331461113e5760405162461bcd60e51b815260206004820181905260248201527f4f776e61626c653a2063616c6c6572206973206e6f7420746865206f776e65726044820152606401610d7a565b6001600160a01b03919091166000908152600b60205260409020805460ff1916911515919091179055565b6005546001600160a01b031633146111c35760405162461bcd60e51b815260206004820181905260248201527f4f776e61626c653a2063616c6c6572206973206e6f7420746865206f776e65726044820152606401610d7a565b6009546040517f4b9f65580000000000000000000000000000000000000000000000000000000081526001600160a01b03838116600483015290911690634b9f655890602401610fcd565b6008546040517fbc4c4b37000000000000000000000000000000000000000000000000000000008152336004820152600060248201526001600160a01b039091169063bc4c4b3790604401602060405180830381600087803b15801561127357600080fd5b505af1158015611287573d6000803e3d6000fd5b505050506040513d601f19601f820116820180604052508101906112ab9190614c92565b50565b6005546001600160a01b031633146113085760405162461bcd60e51b815260206004820181905260248201527f4f776e61626c653a2063616c6c6572206973206e6f7420746865206f776e65726044820152606401610d7a565b600c80546001600160a01b039092166a0100000000000000000000027fffff0000000000000000000000000000000000000000ffffffffffffffffffff909216919091179055565b600854604080517f09bbedde00000000000000000000000000000000000000000000000000000000815290516000926001600160a01b0316916309bbedde916004808301926020929190829003018186803b158015610eef57600080fd5b6005546001600160a01b031633146114085760405162461bcd60e51b815260206004820181905260248201527f4f776e61626c653a2063616c6c6572206973206e6f7420746865206f776e65726044820152606401610d7a565b6006546001600160a01b038281169116141561148c5760405162461bcd60e51b815260206004820152602a60248201527f4a4557454c3a2054686520726f7574657220616c72656164792068617320746860448201527f61742061646472657373000000000000000000000000000000000000000000006064820152608401610d7a565b6006546040516001600160a01b03918216918316907f8fc842bbd331dfa973645f4ed48b11683d501ebf1352708d77a5da2ab49a576e90600090a3600680547fffffffffffffffffffffffff0000000000000000000000000000000000000000166001600160a01b038316908117909155604080517fc45a015500000000000000000000000000000000000000000000000000000000815290516000929163c45a0155916004808301926020929190829003018186803b15801561154f57600080fd5b505afa158015611563573d6000803e3d6000fd5b505050506040513d601f19601f820116820180604052508101906115879190614aa0565b6001600160a01b031663c9c6539630600660009054906101000a90046001600160a01b03166001600160a01b031663ad5c46486040518163ffffffff1660e01b815260040160206040518083038186803b1580156115e457600080fd5b505afa1580156115f8573d6000803e3d6000fd5b505050506040513d601f19601f8201168201806040525081019061161c9190614aa0565b6040517fffffffff0000000000000000000000000000000000000000000000000000000060e085901b1681526001600160a01b03928316600482015291166024820152604401602060405180830381600087803b15801561167c57600080fd5b505af1158015611690573d6000803e3d6000fd5b505050506040513d601f19601f820116820180604052508101906116b49190614aa0565b600780547fffffffffffffffffffffffff0000000000000000000000000000000000000000166001600160a01b03929092169190911790555050565b6008546040517f70a082310000000000000000000000000000000000000000000000000000000081526001600160a01b03838116600483015260009216906370a08231906024015b60206040518083038186803b15801561175057600080fd5b505afa158015611764573d6000803e3d6000fd5b505050506040513d601f19601f820116820180604052508101906117889190614cae565b92915050565b6008546040517fffb2c47900000000000000000000000000000000000000000000000000000000815260048101839052600091829182916001600160a01b03169063ffb2c47990602401606060405180830381600087803b1580156117f257600080fd5b505af1158015611806573d6000803e3d6000fd5b505050506040513d601f19601f8201168201806040525081019061182a9190614d09565b604080518481526020810184905290810182905260608101889052929550909350915032906000907fc864333d6121033635ab41b29ae52f10a22cf4438c3e4f1c4c68518feb2f8a98906080015b60405180910390a350505050565b6005546001600160a01b031633146118e05760405162461bcd60e51b815260206004820181905260248201527f4f776e61626c653a2063616c6c6572206973206e6f7420746865206f776e65726044820152606401610d7a565b6118ea6000613b6c565b565b6005546001600160a01b031633146119465760405162461bcd60e51b815260206004820181905260248201527f4f776e61626c653a2063616c6c6572206973206e6f7420746865206f776e65726044820152606401610d7a565b62030d40811015801561195c57506207a1208111155b6119ce5760405162461bcd60e51b815260206004820152603b60248201527f4a4557454c3a20676173466f7250726f63657373696e67206d7573742062652060448201527f6265747765656e203230302c30303020616e64203530302c30303000000000006064820152608401610d7a565b600d54811415611a465760405162461bcd60e51b815260206004820152603360248201527f4a4557454c3a2043616e6e6f742075706461746520676173466f7250726f636560448201527f7373696e6720746f2073616d652076616c7565000000000000000000000000006064820152608401610d7a565b600d5460405182907f40d7e40e79af4e8e5a9b3c57030d8ea93f13d669c06d448c4d631d4ae7d23db790600090a3600d55565b6005546001600160a01b03163314611ad35760405162461bcd60e51b815260206004820181905260248201527f4f776e61626c653a2063616c6c6572206973206e6f7420746865206f776e65726044820152606401610d7a565b6008546001600160a01b0382811691161415611b575760405162461bcd60e51b815260206004820152603460248201527f4a4557454c3a20546865206469766964656e6420747261636b657220616c726560448201527f61647920686173207468617420616464726573730000000000000000000000006064820152608401610d7a565b6000819050306001600160a01b0316816001600160a01b0316638da5cb5b6040518163ffffffff1660e01b815260040160206040518083038186803b158015611b9f57600080fd5b505afa158015611bb3573d6000803e3d6000fd5b505050506040513d601f19601f82011682018060405250810190611bd79190614aa0565b6001600160a01b031614611c795760405162461bcd60e51b815260206004820152604960248201527f4a4557454c3a20546865206e6577206469766964656e6420747261636b65722060448201527f6d757374206265206f776e656420627920746865204a4557454c20746f6b656e60648201527f20636f6e74726163740000000000000000000000000000000000000000000000608482015260a401610d7a565b6040517f31e79db00000000000000000000000000000000000000000000000000000000081526001600160a01b03821660048201819052906331e79db090602401600060405180830381600087803b158015611cd457600080fd5b505af1158015611ce8573d6000803e3d6000fd5b50506040517f31e79db00000000000000000000000000000000000000000000000000000000081523060048201526001600160a01b03841692506331e79db09150602401600060405180830381600087803b158015611d4657600080fd5b505af1158015611d5a573d6000803e3d6000fd5b50505050806001600160a01b03166331e79db0611d7f6005546001600160a01b031690565b6040517fffffffff0000000000000000000000000000000000000000000000000000000060e084901b1681526001600160a01b039091166004820152602401600060405180830381600087803b158015611dd857600080fd5b505af1158015611dec573d6000803e3d6000fd5b50506006546040517f31e79db00000000000000000000000000000000000000000000000000000000081526001600160a01b03918216600482015290841692506331e79db09150602401600060405180830381600087803b158015611e5057600080fd5b505af1158015611e64573d6000803e3d6000fd5b50506008546040516001600160a01b03918216935090851691507f90c7d74461c613da5efa97d90740869367d74ab3aa5837aa4ae9a975f954b7a890600090a3600880547fffffffffffffffffffffffff0000000000000000000000000000000000000000166001600160a01b039290921691909117905550565b6005546001600160a01b03163314611f395760405162461bcd60e51b815260206004820181905260248201527f4f776e61626c653a2063616c6c6572206973206e6f7420746865206f776e65726044820152606401610d7a565b6009546040517f89998c070000000000000000000000000000000000000000000000000000000081526004810185905260248101849052604481018390526001600160a01b03909116906389998c0790606401600060405180830381600087803b158015611fa657600080fd5b505af1158015611fba573d6000803e3d6000fd5b50505050505050565b606060048054610c3e90614fbc565b6005546001600160a01b0316331461202c5760405162461bcd60e51b815260206004820181905260248201527f4f776e61626c653a2063616c6c6572206973206e6f7420746865206f776e65726044820152606401610d7a565b6007546001600160a01b03838116911614156120d65760405162461bcd60e51b815260206004820152604c60248201527f4a4557454c3a205468652050616e63616b655377617020706169722063616e6e60448201527f6f742062652072656d6f7665642066726f6d206175746f6d617465644d61726b60648201527f65744d616b657250616972730000000000000000000000000000000000000000608482015260a401610d7a565b6120e08282613bd6565b5050565b600854604080517f6f2789ec00000000000000000000000000000000000000000000000000000000815290516000926001600160a01b031691636f2789ec916004808301926020929190829003018186803b158015610eef57600080fd5b3360009081526001602090815260408083206001600160a01b0386168452909152812054828110156121dc5760405162461bcd60e51b815260206004820152602560248201527f45524332303a2064656372656173656420616c6c6f77616e63652062656c6f7760448201527f207a65726f0000000000000000000000000000000000000000000000000000006064820152608401610d7a565b6121e93385858403612dfc565b5060019392505050565b6008546040517fa8b9d2400000000000000000000000000000000000000000000000000000000081526001600160a01b038381166004830152600092169063a8b9d24090602401611738565b6000610cce338484612f54565b6005546001600160a01b031633146122a65760405162461bcd60e51b815260206004820181905260248201527f4f776e61626c653a2063616c6c6572206973206e6f7420746865206f776e65726044820152606401610d7a565b6009546040517fa97970540000000000000000000000000000000000000000000000000000000081526001600160a01b0383811660048301529091169063a979705490602401610fcd565b6008546040517ffbcbc0f10000000000000000000000000000000000000000000000000000000081526001600160a01b038381166004830152600092839283928392839283928392839291169063fbcbc0f1906024015b6101006040518083038186803b15801561236157600080fd5b505afa158015612375573d6000803e3d6000fd5b505050506040513d601f19601f820116820180604052508101906123999190614b61565b97509750975097509750975097509750919395975091939597565b6005546001600160a01b0316331461240e5760405162461bcd60e51b815260206004820181905260248201527f4f776e61626c653a2063616c6c6572206973206e6f7420746865206f776e65726044820152606401610d7a565b600c805460ff8084166101009081027fffffffffffffffffffffffffffffffffffffffffffffffffffffffffffff00ff841681179485905561ffff660100000000000086041694620100008104841694610e5b9493909104831692918216911617614f0a565b6005546001600160a01b031633146124ce5760405162461bcd60e51b815260206004820181905260248201527f4f776e61626c653a2063616c6c6572206973206e6f7420746865206f776e65726044820152606401610d7a565b6001600160a01b0382166000908152600e602052604090205460ff16151581151514156125635760405162461bcd60e51b815260206004820152602260248201527f4a4557454c3a204163636f756e7420697320616c7265616479206578636c756460448201527f65640000000000000000000000000000000000000000000000000000000000006064820152608401610d7a565b6001600160a01b0382166000818152600e6020908152604091829020805460ff191685151590811790915591519182527f9d8f7706ea1113d1a167b526eca956215946dd36cc7df39eb16180222d8b5df7910160405180910390a25050565b6005546001600160a01b0316331461261c5760405162461bcd60e51b815260206004820181905260248201527f4f776e61626c653a2063616c6c6572206973206e6f7420746865206f776e65726044820152606401610d7a565b60005b828110156126b45781600e6000868685818110612665577f4e487b7100000000000000000000000000000000000000000000000000000000600052603260045260246000fd5b905060200201602081019061267a9190614a84565b6001600160a01b031681526020810191909152604001600020805460ff1916911515919091179055806126ac81615010565b91505061261f565b507f7fdaf542373fa84f4ee8d662c642f44e4c2276a217d7d29e548b6eb29a233b358383836040516126e893929190614d92565b60405180910390a1505050565b6005546001600160a01b0316331461274f5760405162461bcd60e51b815260206004820181905260248201527f4f776e61626c653a2063616c6c6572206973206e6f7420746865206f776e65726044820152606401610d7a565b600c80547fffffffffffffffffffffffffffffffffffffffffffffffffffffff0000ffffff16630100000060ff86811682027fffffffffffffffffffffffffffffffffffffffffffffffffffffff00ffffffff16929092176401000000008684168102919091177fffffffffffffffffffffffffffffffffffffffffffffffffffff00ffffffffff166501000000000086851681029190911794859055840483169361280393918104821692900416614f0a565b61280d9190614f0a565b600c8054660100000000000060ff93841681027fffffffffffffffffffffffffffffffffffffffffffffffff0000ffffffffffff831681179384905590830461ffff1693620100008404811693612871936101009091048216928216911617614f0a565b61287b9190614f0a565b60ff166128889190614ecc565b600c60086101000a81548161ffff021916908361ffff160217905550505050565b6005546001600160a01b031633146129035760405162461bcd60e51b815260206004820181905260248201527f4f776e61626c653a2063616c6c6572206973206e6f7420746865206f776e65726044820152606401610d7a565b600c805460ff191660ff838116918217928390556601000000000000830461ffff1692620100008104821692610e5b9261010090920490911690614f0a565b600854604080517fe7841ec000000000000000000000000000000000000000000000000000000000815290516000926001600160a01b03169163e7841ec0916004808301926020929190829003018186803b158015610eef57600080fd5b6005546001600160a01b031633146129fa5760405162461bcd60e51b815260206004820181905260248201527f4f776e61626c653a2063616c6c6572206973206e6f7420746865206f776e65726044820152606401610d7a565b6008546040517fe98030c7000000000000000000000000000000000000000000000000000000008152600481018390526001600160a01b039091169063e98030c790602401610fcd565b6008546040517f5183d6fd0000000000000000000000000000000000000000000000000000000081526004810183905260009182918291829182918291829182916001600160a01b0390911690635183d6fd90602401612348565b6005546001600160a01b03163314612af95760405162461bcd60e51b815260206004820181905260248201527f4f776e61626c653a2063616c6c6572206973206e6f7420746865206f776e65726044820152606401610d7a565b6001600160a01b038116612b755760405162461bcd60e51b815260206004820152602660248201527f4f776e61626c653a206e6577206f776e657220697320746865207a65726f206160448201527f64647265737300000000000000000000000000000000000000000000000000006064820152608401610d7a565b6112ab81613b6c565b6005546001600160a01b03163314612bd85760405162461bcd60e51b815260206004820181905260248201527f4f776e61626c653a2063616c6c6572206973206e6f7420746865206f776e65726044820152606401610d7a565b6007547501000000000000000000000000000000000000000000900460ff16612cc657600960009054906101000a90046001600160a01b03166001600160a01b031663dbdff2c16040518163ffffffff1660e01b8152600401602060405180830381600087803b158015612c4b57600080fd5b505af1158015612c5f573d6000803e3d6000fd5b505050506040513d601f19601f82011682018060405250810190612c839190614cae565b50600780547fffffffffffffffffffff00ffffffffffffffffffffffffffffffffffffffffff167501000000000000000000000000000000000000000000179055565b600960009054906101000a90046001600160a01b03166001600160a01b031663f535c8b36040518163ffffffff1660e01b8152600401600060405180830381600087803b158015612d1657600080fd5b505af1925050508015612d27575060015b612d2d57565b600780547fffffffffffffffffffff00ffffffffffffffffffffffffffffffffffffffffff169055565b6005546001600160a01b03163314612db15760405162461bcd60e51b815260206004820181905260248201527f4f776e61626c653a2063616c6c6572206973206e6f7420746865206f776e65726044820152606401610d7a565b6009546040517fff74c7660000000000000000000000000000000000000000000000000000000081526001600160a01b0383811660048301529091169063ff74c76690602401610fcd565b6001600160a01b038316612e775760405162461bcd60e51b8152602060048201526024808201527f45524332303a20617070726f76652066726f6d20746865207a65726f2061646460448201527f72657373000000000000000000000000000000000000000000000000000000006064820152608401610d7a565b6001600160a01b038216612ef35760405162461bcd60e51b815260206004820152602260248201527f45524332303a20617070726f766520746f20746865207a65726f20616464726560448201527f73730000000000000000000000000000000000000000000000000000000000006064820152608401610d7a565b6001600160a01b0383811660008181526001602090815260408083209487168084529482529182902085905590518481527f8c5be1e5ebec7d5bd14f71427d1e84f3dd0314c0f7b2291e5b200ac8c7c3b925910160405180910390a3505050565b6001600160a01b038316612fd05760405162461bcd60e51b815260206004820152602560248201527f45524332303a207472616e736665722066726f6d20746865207a65726f20616460448201527f64726573730000000000000000000000000000000000000000000000000000006064820152608401610d7a565b6001600160a01b03821661304c5760405162461bcd60e51b815260206004820152602360248201527f45524332303a207472616e7366657220746f20746865207a65726f206164647260448201527f65737300000000000000000000000000000000000000000000000000000000006064820152608401610d7a565b6001600160a01b0383166000908152600b602052604090205460ff1615801561308e57506001600160a01b0382166000908152600b602052604090205460ff16155b6130da5760405162461bcd60e51b815260206004820152601360248201527f426c61636b6c69737465642061646472657373000000000000000000000000006044820152606401610d7a565b806130f0576130eb83836000613d4d565b505050565b30600090815260208190526040902054600a548110801590819061312f575060075474010000000000000000000000000000000000000000900460ff16155b801561315457506001600160a01b0385166000908152600f602052604090205460ff16155b801561316e57506005546001600160a01b03868116911614155b801561318857506005546001600160a01b03858116911614155b1561328a57600780547fffffffffffffffffffffff00ffffffffffffffffffffffffffffffffffffffff1674010000000000000000000000000000000000000000179055600c546000906132019061ffff68010000000000000000820416906131fb90869062010000900460ff16613f5d565b90613f70565b905061320c81613f7c565b600c5460009061323a9068010000000000000000810461ffff16906131fb908790610100900460ff16613f5d565b905061324581614190565b3060009081526020819052604090205461325e81614217565b5050600780547fffffffffffffffffffffff00ffffffffffffffffffffffffffffffffffffffff169055505b6007546001600160a01b0386166000908152600e602052604090205460ff740100000000000000000000000000000000000000009092048216159116806132e957506001600160a01b0385166000908152600e602052604090205460ff165b156132f2575060005b801561333b57600c54600090613320906064906131fb90889068010000000000000000900461ffff16613f5d565b905061332c858261458b565b9450613339873083613d4d565b505b613346868686613d4d565b6008546001600160a01b031663e30443bc87613377816001600160a01b031660009081526020819052604090205490565b6040517fffffffff0000000000000000000000000000000000000000000000000000000060e085901b1681526001600160a01b0390921660048301526024820152604401600060405180830381600087803b1580156133d557600080fd5b505af19250505080156133e6575060015b506008546001600160a01b031663e30443bc86613418816001600160a01b031660009081526020819052604090205490565b6040517fffffffff0000000000000000000000000000000000000000000000000000000060e085901b1681526001600160a01b0390921660048301526024820152604401600060405180830381600087803b15801561347657600080fd5b505af1925050508015613487575060015b506009546001600160a01b031663cdb11568876134b9816001600160a01b031660009081526020819052604090205490565b6040517fffffffff0000000000000000000000000000000000000000000000000000000060e085901b1681526001600160a01b039092166004830152602482015260016044820152606401600060405180830381600087803b15801561351e57600080fd5b505af192505050801561352f575060015b506009546001600160a01b031663cdb1156886613561816001600160a01b031660009081526020819052604090205490565b6040517fffffffff0000000000000000000000000000000000000000000000000000000060e085901b1681526001600160a01b039092166004830152602482015260006044820152606401600060405180830381600087803b1580156135c657600080fd5b505af19250505080156135d7575060015b50600754760100000000000000000000000000000000000000000000900460ff1615613a3757600960009054906101000a90046001600160a01b03166001600160a01b031663066f0ad06040518163ffffffff1660e01b815260040160206040518083038186803b15801561364b57600080fd5b505afa15801561365f573d6000803e3d6000fd5b505050506040513d601f19601f820116820180604052508101906136839190614cae565b6136909062093a80614ef2565b421061381a576007547501000000000000000000000000000000000000000000900460ff1661378757600960009054906101000a90046001600160a01b03166001600160a01b031663dbdff2c16040518163ffffffff1660e01b8152600401602060405180830381600087803b15801561370957600080fd5b505af115801561371d573d6000803e3d6000fd5b505050506040513d601f19601f820116820180604052508101906137419190614cae565b50600780547fffffffffffffffffffff00ffffffffffffffffffffffffffffffffffffffffff16750100000000000000000000000000000000000000000017905561381a565b600960009054906101000a90046001600160a01b03166001600160a01b031663f5b932a16040518163ffffffff1660e01b8152600401600060405180830381600087803b1580156137d757600080fd5b505af19250505080156137e8575060015b6137f15761381a565b600780547fffffffffffffffffffff00ffffffffffffffffffffffffffffffffffffffffff1690555b600960009054906101000a90046001600160a01b03166001600160a01b031663bb760a2a6040518163ffffffff1660e01b815260040160206040518083038186803b15801561386857600080fd5b505afa15801561387c573d6000803e3d6000fd5b505050506040513d601f19601f820116820180604052508101906138a09190614cae565b6138ad9062278d00614ef2565b4210613a37576007547501000000000000000000000000000000000000000000900460ff166139a457600960009054906101000a90046001600160a01b03166001600160a01b031663dbdff2c16040518163ffffffff1660e01b8152600401602060405180830381600087803b15801561392657600080fd5b505af115801561393a573d6000803e3d6000fd5b505050506040513d601f19601f8201168201806040525081019061395e9190614cae565b50600780547fffffffffffffffffffff00ffffffffffffffffffffffffffffffffffffffffff167501000000000000000000000000000000000000000000179055613a37565b600960009054906101000a90046001600160a01b03166001600160a01b0316635542d2fa6040518163ffffffff1660e01b8152600401600060405180830381600087803b1580156139f457600080fd5b505af1925050508015613a05575060015b613a0e57613a37565b600780547fffffffffffffffffffff00ffffffffffffffffffffffffffffffffffffffffff1690555b60075474010000000000000000000000000000000000000000900460ff16613b6457600d546008546040517fffb2c479000000000000000000000000000000000000000000000000000000008152600481018390526001600160a01b039091169063ffb2c47990602401606060405180830381600087803b158015613abb57600080fd5b505af1925050508015613b09575060408051601f3d9081017fffffffffffffffffffffffffffffffffffffffffffffffffffffffffffffffe0168201909252613b0691810190614d09565b60015b613b1257611fba565b60408051848152602081018490529081018290526060810185905232906001907fc864333d6121033635ab41b29ae52f10a22cf4438c3e4f1c4c68518feb2f8a989060800160405180910390a3505050505b505050505050565b600580546001600160a01b038381167fffffffffffffffffffffffff0000000000000000000000000000000000000000831681179093556040519116919082907f8be0079c531659141344cd1fd0a4f28419497f9722a3daafe3b4186f6b6457e090600090a35050565b6001600160a01b0382166000908152600f602052604090205460ff1615158115151415613c6b5760405162461bcd60e51b815260206004820152603f60248201527f4a4557454c3a204175746f6d61746564206d61726b6574206d616b657220706160448201527f697220697320616c72656164792073657420746f20746861742076616c7565006064820152608401610d7a565b6001600160a01b0382166000908152600f60205260409020805460ff19168215801591909117909155613d11576008546040517f31e79db00000000000000000000000000000000000000000000000000000000081526001600160a01b038481166004830152909116906331e79db090602401600060405180830381600087803b158015613cf857600080fd5b505af1158015613d0c573d6000803e3d6000fd5b505050505b604051811515906001600160a01b038416907fffa9187bf1f18bf477bd0ea1bcbb64e93b6a98132473929edfce215cd9b16fab90600090a35050565b6001600160a01b038316613dc95760405162461bcd60e51b815260206004820152602560248201527f45524332303a207472616e736665722066726f6d20746865207a65726f20616460448201527f64726573730000000000000000000000000000000000000000000000000000006064820152608401610d7a565b6001600160a01b038216613e455760405162461bcd60e51b815260206004820152602360248201527f45524332303a207472616e7366657220746f20746865207a65726f206164647260448201527f65737300000000000000000000000000000000000000000000000000000000006064820152608401610d7a565b6001600160a01b03831660009081526020819052604090205481811015613ed45760405162461bcd60e51b815260206004820152602660248201527f45524332303a207472616e7366657220616d6f756e742065786365656473206260448201527f616c616e636500000000000000000000000000000000000000000000000000006064820152608401610d7a565b6001600160a01b03808516600090815260208190526040808220858503905591851681529081208054849290613f0b908490614ef2565b92505081905550826001600160a01b0316846001600160a01b03167fddf252ad1be2c89b69c2b068fc378daa952ba7f163c4a11628f55a4df523b3ef8460405161187891815260200190565b50505050565b6000613f698284614f68565b9392505050565b6000613f698284614f2f565b6040517f70a0823100000000000000000000000000000000000000000000000000000000815230600482015260009073e879d7ba401b0b8c3ec010001fb95de120242500906370a082319060240160206040518083038186803b158015613fe257600080fd5b505afa158015613ff6573d6000803e3d6000fd5b505050506040513d601f19601f8201168201806040525081019061401a9190614cae565b905061402582614597565b6040517f70a082310000000000000000000000000000000000000000000000000000000081523060048201526000906140cf90839073e879d7ba401b0b8c3ec010001fb95de120242500906370a082319060240160206040518083038186803b15801561409157600080fd5b505afa1580156140a5573d6000803e3d6000fd5b505050506040513d601f19601f820116820180604052508101906140c99190614cae565b9061458b565b600c546040517fa9059cbb0000000000000000000000000000000000000000000000000000000081526a01000000000000000000009091046001600160a01b031660048201526024810182905290915073e879d7ba401b0b8c3ec010001fb95de1202425009063a9059cbb90604401602060405180830381600087803b15801561415857600080fd5b505af115801561416c573d6000803e3d6000fd5b505050506040513d601f19601f82011682018060405250810190613f579190614c92565b600061419d826002613f70565b905060006141ab838361458b565b9050476141b7836147e9565b60006141c3478361458b565b90506141cf838261499c565b60408051858152602081018390529081018490527f17bbfb9a6069321b6ded73bd96327c9e6b7212a5cd51ff219cd61370acafb5619060600160405180910390a15050505050565b61422081614597565b6040517f70a0823100000000000000000000000000000000000000000000000000000000815230600482015260009073e879d7ba401b0b8c3ec010001fb95de120242500906370a082319060240160206040518083038186803b15801561428657600080fd5b505afa15801561429a573d6000803e3d6000fd5b505050506040513d601f19601f820116820180604052508101906142be9190614cae565b600c54909150600090614308906142e79060ff8116906601000000000000900461ffff16614ecc565b600c5461ffff918216916131fb918691660100000000000090910416613f5d565b9050614314828261458b565b6008546040517fa9059cbb0000000000000000000000000000000000000000000000000000000081526001600160a01b0390911660048201526024810182905290925060009073e879d7ba401b0b8c3ec010001fb95de1202425009063a9059cbb90604401602060405180830381600087803b15801561439357600080fd5b505af11580156143a7573d6000803e3d6000fd5b505050506040513d601f19601f820116820180604052508101906143cb9190614c92565b90508015614485576008546040517f40c2c69d000000000000000000000000000000000000000000000000000000008152600481018590526001600160a01b03909116906340c2c69d90602401600060405180830381600087803b15801561443257600080fd5b505af1158015614446573d6000803e3d6000fd5b505060408051878152602081018790527f80195cc573b02cc48460cbca6e6e4cc85ddb91959d946e1c3025ea3d87942dc3935001905060405180910390a15b6009546040517f70a082310000000000000000000000000000000000000000000000000000000081523060048201526001600160a01b039091169063d0cc41899073e879d7ba401b0b8c3ec010001fb95de120242500906370a082319060240160206040518083038186803b1580156144fd57600080fd5b505afa158015614511573d6000803e3d6000fd5b505050506040513d601f19601f820116820180604052508101906145359190614cae565b6040518263ffffffff1660e01b815260040161455391815260200190565b600060405180830381600087803b15801561456d57600080fd5b505af1158015614581573d6000803e3d6000fd5b5050505050505050565b6000613f698284614fa5565b604080516003808252608082019092526000916020820160608036833701905050905030816000815181106145f5577f4e487b7100000000000000000000000000000000000000000000000000000000600052603260045260246000fd5b6001600160a01b03928316602091820292909201810191909152600654604080517fad5c46480000000000000000000000000000000000000000000000000000000081529051919093169263ad5c4648926004808301939192829003018186803b15801561466257600080fd5b505afa158015614676573d6000803e3d6000fd5b505050506040513d601f19601f8201168201806040525081019061469a9190614aa0565b816001815181106146d4577f4e487b7100000000000000000000000000000000000000000000000000000000600052603260045260246000fd5b60200260200101906001600160a01b031690816001600160a01b03168152505073e879d7ba401b0b8c3ec010001fb95de12024250081600281518110614743577f4e487b7100000000000000000000000000000000000000000000000000000000600052603260045260246000fd5b6001600160a01b0392831660209182029290920101526006546147699130911684612dfc565b6006546040517f5c11d7950000000000000000000000000000000000000000000000000000000081526001600160a01b0390911690635c11d795906147bb908590600090869030904290600401614e5c565b600060405180830381600087803b1580156147d557600080fd5b505af1158015613b64573d6000803e3d6000fd5b6040805160028082526060820183526000926020830190803683370190505090503081600081518110614845577f4e487b7100000000000000000000000000000000000000000000000000000000600052603260045260246000fd5b6001600160a01b03928316602091820292909201810191909152600654604080517fad5c46480000000000000000000000000000000000000000000000000000000081529051919093169263ad5c4648926004808301939192829003018186803b1580156148b257600080fd5b505afa1580156148c6573d6000803e3d6000fd5b505050506040513d601f19601f820116820180604052508101906148ea9190614aa0565b81600181518110614924577f4e487b7100000000000000000000000000000000000000000000000000000000600052603260045260246000fd5b6001600160a01b03928316602091820292909201015260065461494a9130911684612dfc565b6006546040517f791ac9470000000000000000000000000000000000000000000000000000000081526001600160a01b039091169063791ac947906147bb908590600090869030904290600401614e5c565b6006546149b49030906001600160a01b031684612dfc565b6006546040517ff305d719000000000000000000000000000000000000000000000000000000008152306004820152602481018490526000604482018190526064820181905260848201524260a48201526001600160a01b039091169063f305d71990839060c4016060604051808303818588803b158015614a3557600080fd5b505af1158015614a49573d6000803e3d6000fd5b50505050506040513d601f19601f82011682018060405250810190610ffb9190614d09565b803560ff81168114614a7f57600080fd5b919050565b600060208284031215614a95578081fd5b8135613f6981615078565b600060208284031215614ab1578081fd5b8151613f6981615078565b60008060408385031215614ace578081fd5b8235614ad981615078565b91506020830135614ae981615078565b809150509250929050565b600080600060608486031215614b08578081fd5b8335614b1381615078565b92506020840135614b2381615078565b929592945050506040919091013590565b60008060408385031215614b46578182fd5b8235614b5181615078565b91506020830135614ae98161508d565b600080600080600080600080610100898b031215614b7d578384fd5b8851614b8881615078565b809850506020890151965060408901519550606089015194506080890151935060a0890151925060c0890151915060e089015190509295985092959890939650565b60008060408385031215614bdc578182fd5b8235614be781615078565b946020939093013593505050565b600080600060408486031215614c09578283fd5b833567ffffffffffffffff80821115614c20578485fd5b818601915086601f830112614c33578485fd5b813581811115614c41578586fd5b8760208260051b8501011115614c55578586fd5b60209283019550935050840135614c6b8161508d565b809150509250925092565b600060208284031215614c87578081fd5b8135613f698161508d565b600060208284031215614ca3578081fd5b8151613f698161508d565b600060208284031215614cbf578081fd5b5051919050565b600060208284031215614cd7578081fd5b5035919050565b600080600060608486031215614cf2578081fd5b505081359360208301359350604090920135919050565b600080600060608486031215614d1d578081fd5b8351925060208401519150604084015190509250925092565b600060208284031215614d47578081fd5b613f6982614a6e565b600080600060608486031215614d64578081fd5b614d6d84614a6e565b9250614d7b60208501614a6e565b9150614d8960408501614a6e565b90509250925092565b6040808252810183905260008460608301825b86811015614dd5578235614db881615078565b6001600160a01b0316825260209283019290910190600101614da5565b5080925050508215156020830152949350505050565b6000602080835283518082850152825b81811015614e1757858101830151858201604001528201614dfb565b81811115614e285783604083870101525b50601f017fffffffffffffffffffffffffffffffffffffffffffffffffffffffffffffffe016929092016040019392505050565b600060a082018783526020878185015260a0604085015281875180845260c0860191508289019350845b81811015614eab5784516001600160a01b031683529383019391830191600101614e86565b50506001600160a01b03969096166060850152505050608001529392505050565b600061ffff808316818516808303821115614ee957614ee9615049565b01949350505050565b60008219821115614f0557614f05615049565b500190565b600060ff821660ff84168060ff03821115614f2757614f27615049565b019392505050565b600082614f63577f4e487b710000000000000000000000000000000000000000000000000000000081526012600452602481fd5b500490565b6000817fffffffffffffffffffffffffffffffffffffffffffffffffffffffffffffffff0483118215151615614fa057614fa0615049565b500290565b600082821015614fb757614fb7615049565b500390565b600181811c90821680614fd057607f821691505b6020821081141561500a577f4e487b7100000000000000000000000000000000000000000000000000000000600052602260045260246000fd5b50919050565b60007fffffffffffffffffffffffffffffffffffffffffffffffffffffffffffffffff82141561504257615042615049565b5060010190565b7f4e487b7100000000000000000000000000000000000000000000000000000000600052601160045260246000fd5b6001600160a01b03811681146112ab57600080fd5b80151581146112ab57600080fdfea264697066735822122025e3a6417008eb5242b79b25c31c8e0be62851bb748d328d660db910aef0233964736f6c6343000804003360a06040523480156200001157600080fd5b50604080518082018252601581527f4a4557454c5f4469766964656e5f547261636b6572000000000000000000000060208083019182528351808501909452601684527f4a4557454c5f4469766964656e645f547261636b65720000000000000000000090840152815191929183918391620000909160039162000135565b508051620000a690600490602084019062000135565b505050620000c3620000bd620000df60201b60201c565b620000e3565b5050610e1060115569043c33c193756480000060805262000218565b3390565b600580546001600160a01b038381166001600160a01b0319831681179093556040519116919082907f8be0079c531659141344cd1fd0a4f28419497f9722a3daafe3b4186f6b6457e090600090a35050565b8280546200014390620001db565b90600052602060002090601f016020900481019282620001675760008555620001b2565b82601f106200018257805160ff1916838001178555620001b2565b82800160010185558215620001b2579182015b82811115620001b257825182559160200191906001019062000195565b50620001c0929150620001c4565b5090565b5b80821115620001c05760008155600101620001c5565b600181811c90821680620001f057607f821691505b602082108114156200021257634e487b7160e01b600052602260045260246000fd5b50919050565b6080516122cf6200023b600039600081816104f40152610dde01526122cf6000f3fe608060405234801561001057600080fd5b506004361061025c5760003560e01c8063715018a611610145578063bc4c4b37116100bd578063e7841ec01161008c578063f2fde38b11610071578063f2fde38b1461057d578063fbcbc0f114610590578063ffb2c479146105a357600080fd5b8063e7841ec014610562578063e98030c71461056a57600080fd5b8063bc4c4b37146104dc578063be10b614146104ef578063dd62ed3e14610516578063e30443bc1461054f57600080fd5b806395d89b4111610114578063a8b9d240116100f9578063a8b9d2401461048d578063a9059cbb146104a0578063aafd847a146104b357600080fd5b806395d89b4114610472578063a457c2d71461047a57600080fd5b8063715018a61461043d57806385a6b3ae146104455780638da5cb5b1461044e57806391b89fba1461045f57600080fd5b806331e79db0116101d85780634e7b827f116101a75780636a4740021161018c5780636a474002146104035780636f2789ec1461040b57806370a082311461041457600080fd5b80634e7b827f146103885780635183d6fd146103ab57600080fd5b806331e79db01461031a578063395093511461032f57806340c2c69d14610342578063484f4ea91461035557600080fd5b8063226cfa3d1161022f57806327ce01471161021457806327ce0147146102ef5780633009a60914610302578063313ce5671461030b57600080fd5b8063226cfa3d146102bc57806323b872dd146102dc57600080fd5b806306fdde0314610261578063095ea7b31461027f57806309bbedde146102a257806318160ddd146102b4575b600080fd5b6102696105d1565b6040516102769190611ff8565b60405180910390f35b61029261028d366004611f2c565b610663565b6040519015158152602001610276565b600a545b604051908152602001610276565b6002546102a6565b6102a66102ca366004611ed8565b60106020526000908152604090205481565b6102926102ea366004611f84565b61067a565b6102a66102fd366004611ed8565b61073e565b6102a6600e5481565b60405160128152602001610276565b61032d610328366004611ed8565b6107a7565b005b61029261033d366004611f2c565b6108b5565b61032d610350366004611fe0565b6108f1565b61037073e879d7ba401b0b8c3ec010001fb95de12024250081565b6040516001600160a01b039091168152602001610276565b610292610396366004611ed8565b600f6020526000908152604090205460ff1681565b6103be6103b9366004611fe0565b6109ec565b604080516001600160a01b0390991689526020890197909752958701949094526060860192909252608085015260a084015260c083015260e082015261010001610276565b61032d610a5b565b6102a660115481565b6102a6610422366004611ed8565b6001600160a01b031660009081526020819052604090205490565b61032d610b17565b6102a660095481565b6005546001600160a01b0316610370565b6102a661046d366004611ed8565b610b7b565b610269610b86565b610292610488366004611f2c565b610b95565b6102a661049b366004611ed8565b610c46565b6102926104ae366004611f2c565b610c72565b6102a66104c1366004611ed8565b6001600160a01b031660009081526008602052604090205490565b6102926104ea366004611ef4565b610c7f565b6102a67f000000000000000000000000000000000000000000000000000000000000000081565b6102a6610524366004611f57565b6001600160a01b03918216600090815260016020908152604080832093909416825291909152205490565b61032d61055d366004611f2c565b610d5d565b600e546102a6565b61032d610578366004611fe0565b610e45565b61032d61058b366004611ed8565b610ff7565b6103be61059e366004611ed8565b6110d6565b6105b66105b1366004611fe0565b6111bf565b60408051938452602084019290925290820152606001610276565b6060600380546105e0906121d8565b80601f016020809104026020016040519081016040528092919081815260200182805461060c906121d8565b80156106595780601f1061062e57610100808354040283529160200191610659565b820191906000526020600020905b81548152906001019060200180831161063c57829003601f168201915b5050505050905090565b6000610670338484611301565b5060015b92915050565b6000610687848484611459565b6001600160a01b0384166000908152600160209081526040808320338452909152902054828110156107265760405162461bcd60e51b815260206004820152602860248201527f45524332303a207472616e7366657220616d6f756e742065786365656473206160448201527f6c6c6f77616e636500000000000000000000000000000000000000000000000060648201526084015b60405180910390fd5b6107338533858403611301565b506001949350505050565b6001600160a01b038116600090815260076020908152604080832054918390528220546006547001000000000000000000000000000000009261079d92610798926107929161078d91906114c7565b6114da565b906114ea565b611528565b61067491906120f5565b6005546001600160a01b031633146108015760405162461bcd60e51b815260206004820181905260248201527f4f776e61626c653a2063616c6c6572206973206e6f7420746865206f776e6572604482015260640161071d565b6001600160a01b0381166000908152600f602052604090205460ff161561082757600080fd5b6001600160a01b0381166000908152600f6020526040812080547fffffffffffffffffffffffffffffffffffffffffffffffffffffffffffffff0016600117905561087390829061153b565b61087e600a826115a0565b6040516001600160a01b038216907fa878b31040b2e6d0a9a3d3361209db3908ba62014b0dca52adbaee451d128b2590600090a250565b3360008181526001602090815260408083206001600160a01b038716845290915281205490916106709185906108ec9086906120dd565b611301565b6005546001600160a01b0316331461094b5760405162461bcd60e51b815260206004820181905260248201527f4f776e61626c653a2063616c6c6572206973206e6f7420746865206f776e6572604482015260640161071d565b600061095660025490565b1161096057600080fd5b80156109e9576109a061097260025490565b61098d837001000000000000000000000000000000006114c7565b61099791906120f5565b6006549061179e565b60065560405181815233907fa493a9229478c3fcd73f66d2cdeb7f94fd0f341da924d1054236d784541165119060200160405180910390a26009546109e5908261179e565b6009555b50565b600080600080600080600080610a01600a5490565b8910610a26575060009650600019955085945086935083925082915081905080610a50565b6000610a33600a8b6117aa565b9050610a3e816110d6565b98509850985098509850985098509850505b919395975091939597565b60405162461bcd60e51b815260206004820152606760248201527f4a4557454c5f4469766964656e645f547261636b65723a20776974686472617760448201527f4469766964656e642064697361626c65642e20557365207468652027636c616960648201527f6d272066756e6374696f6e206f6e20746865206d61696e204a4557454c20636f60848201527f6e74726163742e0000000000000000000000000000000000000000000000000060a482015260c40161071d565b565b6005546001600160a01b03163314610b715760405162461bcd60e51b815260206004820181905260248201527f4f776e61626c653a2063616c6c6572206973206e6f7420746865206f776e6572604482015260640161071d565b610b156000611804565b600061067482610c46565b6060600480546105e0906121d8565b3360009081526001602090815260408083206001600160a01b038616845290915281205482811015610c2f5760405162461bcd60e51b815260206004820152602560248201527f45524332303a2064656372656173656420616c6c6f77616e63652062656c6f7760448201527f207a65726f000000000000000000000000000000000000000000000000000000606482015260840161071d565b610c3c3385858403611301565b5060019392505050565b6001600160a01b03811660009081526008602052604081205461067490610c6c8461073e565b9061186e565b6000610670338484611459565b6005546000906001600160a01b03163314610cdc5760405162461bcd60e51b815260206004820181905260248201527f4f776e61626c653a2063616c6c6572206973206e6f7420746865206f776e6572604482015260640161071d565b6000610ce78461187a565b90508015610d53576001600160a01b038416600081815260106020526040908190204290555184151591907fa2c38e2d2fb7e3e1912d937fd1ca11ed6d51864dee4cfa7a7bf02becd7acf09290610d419085815260200190565b60405180910390a36001915050610674565b5060009392505050565b6005546001600160a01b03163314610db75760405162461bcd60e51b815260206004820181905260248201527f4f776e61626c653a2063616c6c6572206973206e6f7420746865206f776e6572604482015260640161071d565b6001600160a01b0382166000908152600f602052604090205460ff1615610ddc575050565b7f00000000000000000000000000000000000000000000000000000000000000008110610e1e57610e0d828261153b565b610e19600a8383611a17565b610e34565b610e2982600061153b565b610e34600a836115a0565b610e3f826001610c7f565b505b5050565b6005546001600160a01b03163314610e9f5760405162461bcd60e51b815260206004820181905260248201527f4f776e61626c653a2063616c6c6572206973206e6f7420746865206f776e6572604482015260640161071d565b610e108110158015610eb45750620151808111155b610f4c5760405162461bcd60e51b815260206004820152604b60248201527f4a4557454c5f4469766964656e645f547261636b65723a20636c61696d57616960448201527f74206d757374206265207570646174656420746f206265747765656e2031206160648201527f6e6420323420686f757273000000000000000000000000000000000000000000608482015260a40161071d565b601154811415610fc45760405162461bcd60e51b815260206004820152603d60248201527f4a4557454c5f4469766964656e645f547261636b65723a2043616e6e6f74207560448201527f706461746520636c61696d5761697420746f2073616d652076616c7565000000606482015260840161071d565b60115460405182907f474ea64804364a1e29a4487ddb63c3342a2dd826ccd8acf48825e680a0e6f20f90600090a3601155565b6005546001600160a01b031633146110515760405162461bcd60e51b815260206004820181905260248201527f4f776e61626c653a2063616c6c6572206973206e6f7420746865206f776e6572604482015260640161071d565b6001600160a01b0381166110cd5760405162461bcd60e51b815260206004820152602660248201527f4f776e61626c653a206e6577206f776e657220697320746865207a65726f206160448201527f6464726573730000000000000000000000000000000000000000000000000000606482015260840161071d565b6109e981611804565b8060008080808080806110ea600a89611af6565b965060001995506000871261114c57600e5487111561111857600e54611111908890611b41565b955061114c565b600e54600a546000911061112d57600061113c565b600e54600a5461113c9161186e565b905061114888826114ea565b9650505b61115588610c46565b94506111608861073e565b6001600160a01b03891660009081526010602052604090205490945092508261118a576000611198565b60115461119890849061179e565b91504282116111a85760006111b2565b6111b2824261186e565b9050919395975091939597565b600a5460009081908190806111df575050600e54600092508291506112fa565b600e546000805a90506000805b89841080156111fa57508582105b156112e957846112098161222c565b600a549096508610905061121c57600094505b6000600a600001868154811061125b577f4e487b7100000000000000000000000000000000000000000000000000000000600052603260045260246000fd5b60009182526020808320909101546001600160a01b0316808352601090915260409091205490915061128c90611b7e565b156112af5761129c816001610c7f565b156112af57816112ab8161222c565b9250505b826112b98161222c565b93505060005a9050808511156112e0576112dd6112d6868361186e565b879061179e565b95505b93506111ec9050565b600e85905590975095509193505050505b9193909250565b6001600160a01b03831661137c5760405162461bcd60e51b8152602060048201526024808201527f45524332303a20617070726f76652066726f6d20746865207a65726f2061646460448201527f7265737300000000000000000000000000000000000000000000000000000000606482015260840161071d565b6001600160a01b0382166113f85760405162461bcd60e51b815260206004820152602260248201527f45524332303a20617070726f766520746f20746865207a65726f20616464726560448201527f7373000000000000000000000000000000000000000000000000000000000000606482015260840161071d565b6001600160a01b0383811660008181526001602090815260408083209487168084529482529182902085905590518481527f8c5be1e5ebec7d5bd14f71427d1e84f3dd0314c0f7b2291e5b200ac8c7c3b925910160405180910390a3505050565b60405162461bcd60e51b815260206004820152602c60248201527f4a4557454c5f4469766964656e645f547261636b65723a204e6f207472616e7360448201527f6665727320616c6c6f7765640000000000000000000000000000000000000000606482015260840161071d565b60006114d3828461212e565b9392505050565b6000818181121561067457600080fd5b6000806114f78385612069565b90506000831215801561150a5750838112155b8061151f575060008312801561151f57508381125b6114d357600080fd5b60008082121561153757600080fd5b5090565b6001600160a01b0382166000908152602081905260409020548082111561157a576000611568838361186e565b90506115748482611ba5565b50610e3f565b80821015610e3f57600061158e828461186e565b905061159a8482611c09565b50505050565b6001600160a01b038116600090815260038301602052604090205460ff166115c6575050565b6001600160a01b0381166000908152600383016020908152604080832080547fffffffffffffffffffffffffffffffffffffffffffffffffffffffffffffff001690556001808601835281842084905560028601909252822054845490929161162e916121c1565b9050600084600001828154811061166e577f4e487b7100000000000000000000000000000000000000000000000000000000600052603260045260246000fd5b60009182526020808320909101546001600160a01b039081168084526002890190925260408084208790559087168352822091909155855490915081908690859081106116e4577f4e487b7100000000000000000000000000000000000000000000000000000000600052603260045260246000fd5b600091825260209091200180547fffffffffffffffffffffffff0000000000000000000000000000000000000000166001600160a01b0392909216919091179055845485908061175d577f4e487b7100000000000000000000000000000000000000000000000000000000600052603160045260246000fd5b600082815260209020810160001990810180547fffffffffffffffffffffffff00000000000000000000000000000000000000001690550190555050505050565b60006114d382846120dd565b60008260000182815481106117e8577f4e487b7100000000000000000000000000000000000000000000000000000000600052603260045260246000fd5b6000918252602090912001546001600160a01b03169392505050565b600580546001600160a01b038381167fffffffffffffffffffffffff0000000000000000000000000000000000000000831681179093556040519116919082907f8be0079c531659141344cd1fd0a4f28419497f9722a3daafe3b4186f6b6457e090600090a35050565b60006114d382846121c1565b60008061188683610c46565b90508015611a0e576001600160a01b0383166000908152600860205260409020546118b1908261179e565b6001600160a01b038416600081815260086020526040908190209290925590517fee503bee2bb6a87e57bc57db795f98137327401a0e7b7ce42e37926cc1a9ca4d906119009084815260200190565b60405180910390a26040517fa9059cbb0000000000000000000000000000000000000000000000000000000081526001600160a01b03841660048201526024810182905260009073e879d7ba401b0b8c3ec010001fb95de1202425009063a9059cbb90604401602060405180830381600087803b15801561198057600080fd5b505af1158015611994573d6000803e3d6000fd5b505050506040513d601f19601f820116820180604052508101906119b89190611fc4565b905080611a07576001600160a01b0384166000908152600860205260409020546119e2908361186e565b6001600160a01b03909416600090815260086020526040812094909455509192915050565b5092915050565b50600092915050565b6001600160a01b038216600090815260038401602052604090205460ff1615611a5c576001600160a01b03821660009081526001840160205260409020819055610e3f565b6001600160a01b0382166000818152600385016020908152604080832080547fffffffffffffffffffffffffffffffffffffffffffffffffffffffffffffff00166001908117909155878101835281842086905587546002890184529184208290558101875586835291200180547fffffffffffffffffffffffff0000000000000000000000000000000000000000169091179055505050565b6001600160a01b038116600090815260038301602052604081205460ff16611b215750600019610674565b506001600160a01b03166000908152600291909101602052604090205490565b600080611b4e838561214d565b905060008312158015611b615750838113155b8061151f575060008312801561151f57508381136114d357600080fd5b600042821115611b9057506000919050565b601154611b9d428461186e565b101592915050565b611baf8282611c4d565b611be9611bca61078d836006546114c790919063ffffffff16565b6001600160a01b03841660009081526007602052604090205490611b41565b6001600160a01b0390921660009081526007602052604090209190915550565b611c138282611d40565b611be9611c2e61078d836006546114c790919063ffffffff16565b6001600160a01b038416600090815260076020526040902054906114ea565b6001600160a01b038216611ca35760405162461bcd60e51b815260206004820152601f60248201527f45524332303a206d696e7420746f20746865207a65726f206164647265737300604482015260640161071d565b611caf60008383610e3f565b8060026000828254611cc191906120dd565b90915550506001600160a01b03821660009081526020819052604081208054839290611cee9084906120dd565b90915550506040518181526001600160a01b038316906000907fddf252ad1be2c89b69c2b068fc378daa952ba7f163c4a11628f55a4df523b3ef9060200160405180910390a3610e4160008383610e3f565b6001600160a01b038216611dbc5760405162461bcd60e51b815260206004820152602160248201527f45524332303a206275726e2066726f6d20746865207a65726f2061646472657360448201527f7300000000000000000000000000000000000000000000000000000000000000606482015260840161071d565b611dc882600083610e3f565b6001600160a01b03821660009081526020819052604090205481811015611e575760405162461bcd60e51b815260206004820152602260248201527f45524332303a206275726e20616d6f756e7420657863656564732062616c616e60448201527f6365000000000000000000000000000000000000000000000000000000000000606482015260840161071d565b6001600160a01b0383166000908152602081905260408120838303905560028054849290611e869084906121c1565b90915550506040518281526000906001600160a01b038516907fddf252ad1be2c89b69c2b068fc378daa952ba7f163c4a11628f55a4df523b3ef9060200160405180910390a3610e3f83600084610e3f565b600060208284031215611ee9578081fd5b81356114d381612276565b60008060408385031215611f06578081fd5b8235611f1181612276565b91506020830135611f218161228b565b809150509250929050565b60008060408385031215611f3e578182fd5b8235611f4981612276565b946020939093013593505050565b60008060408385031215611f69578182fd5b8235611f7481612276565b91506020830135611f2181612276565b600080600060608486031215611f98578081fd5b8335611fa381612276565b92506020840135611fb381612276565b929592945050506040919091013590565b600060208284031215611fd5578081fd5b81516114d38161228b565b600060208284031215611ff1578081fd5b5035919050565b6000602080835283518082850152825b8181101561202457858101830151858201604001528201612008565b818111156120355783604083870101525b50601f017fffffffffffffffffffffffffffffffffffffffffffffffffffffffffffffffe016929092016040019392505050565b6000808212827f7fffffffffffffffffffffffffffffffffffffffffffffffffffffffffffffff038413811516156120a3576120a3612247565b827f80000000000000000000000000000000000000000000000000000000000000000384128116156120d7576120d7612247565b50500190565b600082198211156120f0576120f0612247565b500190565b600082612129577f4e487b710000000000000000000000000000000000000000000000000000000081526012600452602481fd5b500490565b600081600019048311821515161561214857612148612247565b500290565b6000808312837f80000000000000000000000000000000000000000000000000000000000000000183128115161561218757612187612247565b837f7fffffffffffffffffffffffffffffffffffffffffffffffffffffffffffffff0183138116156121bb576121bb612247565b50500390565b6000828210156121d3576121d3612247565b500390565b600181811c908216806121ec57607f821691505b60208210811415612226577f4e487b7100000000000000000000000000000000000000000000000000000000600052602260045260246000fd5b50919050565b600060001982141561224057612240612247565b5060010190565b7f4e487b7100000000000000000000000000000000000000000000000000000000600052601160045260246000fd5b6001600160a01b03811681146109e957600080fd5b80151581146109e957600080fdfea2646970667358221220b2f70ec929cb524d6b3a9f0d117774bc7baab1471ab11c3fbbb50557301c8acc64736f6c6343000804003360c060405269021e19e0c9bab240000060145569043c33c193756480000060155569054b40b1f852bda00000601655601a80546001600160a01b03191673e879d7ba401b0b8c3ec010001fb95de12024250017905534801561006057600080fd5b5073b3dccb4cf7a26f6cf6b120cf5a73875b7bbc655b7301be23585060835e02b77ef475b0cc51aa1e0709610094336100eb565b6001600160601b0319606092831b811660a052911b166080527f2ed0feb3e7fd2022120aa84fab1945545a9f2ffc9076fd6156fa96eaff4c1311601b5567016345785d8a0000601c5542601281905560135561013b565b600080546001600160a01b038381166001600160a01b0319831681178455604051919092169283917f8be0079c531659141344cd1fd0a4f28419497f9722a3daafe3b4186f6b6457e09190a35050565b60805160601c60a05160601c611c32610174600039600081816107160152611729015260008181610b8501526116fa0152611c326000f3fe608060405234801561001057600080fd5b506004361061016c5760003560e01c8063bb760a2a116100cd578063e7e41b2911610081578063f535c8b311610066578063f535c8b3146102d2578063f5b932a1146102da578063ff74c766146102e257600080fd5b8063e7e41b291461029c578063f2fde38b146102bf57600080fd5b8063d0cc4189116100b2578063d0cc41891461025e578063dbdff2c114610271578063dda3dbbf1461027957600080fd5b8063bb760a2a14610242578063cdb115681461024b57600080fd5b8063715018a6116101245780638da5cb5b116101095780638da5cb5b1461020157806394985ddd1461021c578063a97970541461022f57600080fd5b8063715018a6146101e657806389998c07146101ee57600080fd5b806342619f661161015557806342619f66146101c05780634b9f6558146101c95780635542d2fa146101de57600080fd5b8063066f0ad0146101715780633d9934fe1461018d575b600080fd5b61017a60125481565b6040519081526020015b60405180910390f35b6101b061019b3660046118c5565b600e6020526000908152604090205460ff1681565b6040519015158152602001610184565b61017a601d5481565b6101dc6101d73660046118c5565b6102f5565b005b6101dc610385565b6101dc61063d565b6101dc6101fc36600461198f565b6106a3565b6000546040516001600160a01b039091168152602001610184565b6101dc61022a36600461193e565b61070b565b6101dc61023d3660046118c5565b610789565b61017a60135481565b6101dc6102593660046118e1565b610811565b6101dc61026c36600461195f565b610973565b61017a610af9565b6101b06102873660046118c5565b600f6020526000908152604090205460ff1681565b6101b06102aa3660046118c5565b60106020526000908152604090205460ff1681565b6101dc6102cd3660046118c5565b610c8e565b6101dc610d6d565b6101dc611006565b6101dc6102f03660046118c5565b6112ae565b6000546001600160a01b031633146103545760405162461bcd60e51b815260206004820181905260248201527f4f776e61626c653a2063616c6c6572206973206e6f7420746865206f776e657260448201526064015b60405180910390fd5b6001600160a01b0381166000908152600f60205260409020805460ff19166001179055610382600682611332565b50565b601e54601d5414156103d95760405162461bcd60e51b815260206004820152601a60248201527f5570646174652072616e646f6d206e756d626572206669727374000000000000604482015260640161034b565b6006546000906103e7611888565b6000805b60038160ff1610156105df57601d54610410906104089086611530565b600690611543565b6001600160a01b03811660009081526011602052604090205490925062093a809061043c90429061159d565b1061055a5781838260ff166003811061047e577f4e487b7100000000000000000000000000000000000000000000000000000000600052603260045260246000fd5b6001600160a01b0390921660209290920201528061049b81611b47565b601a546018549193506001600160a01b0316915063a9059cbb9084906104c29060036115a9565b6040517fffffffff0000000000000000000000000000000000000000000000000000000060e085901b1681526001600160a01b0390921660048301526024820152604401602060405180830381600087803b15801561052057600080fd5b505af1158015610534573d6000803e3d6000fd5b505050506040513d601f19601f820116820180604052508101906105589190611922565b505b601d5460408051602081019290925242908201527fff0000000000000000000000000000000000000000000000000000000000000060f883901b166060820152606101604080517fffffffffffffffffffffffffffffffffffffffffffffffffffffffffffffffe08184030181529190528051602090910120601d81905594506103eb565b42601355601d54601e5560006018556017547f95e701b505872d7b0debb21a501b9ed868a107b7355349c750b829f43d6dfd9b9084906106209060036115a9565b60405161062e929190611a86565b60405180910390a15050505050565b6000546001600160a01b031633146106975760405162461bcd60e51b815260206004820181905260248201527f4f776e61626c653a2063616c6c6572206973206e6f7420746865206f776e6572604482015260640161034b565b6106a160006115b5565b565b6000546001600160a01b031633146106fd5760405162461bcd60e51b815260206004820181905260248201527f4f776e61626c653a2063616c6c6572206973206e6f7420746865206f776e6572604482015260640161034b565b601492909255601555601655565b336001600160a01b037f000000000000000000000000000000000000000000000000000000000000000016146107835760405162461bcd60e51b815260206004820152601f60248201527f4f6e6c7920565246436f6f7264696e61746f722063616e2066756c66696c6c00604482015260640161034b565b601d5550565b6000546001600160a01b031633146107e35760405162461bcd60e51b815260206004820181905260248201527f4f776e61626c653a2063616c6c6572206973206e6f7420746865206f776e6572604482015260640161034b565b6001600160a01b0381166000908152600e60205260409020805460ff19166001179055610382600282611332565b6000546001600160a01b0316331461086b5760405162461bcd60e51b815260206004820181905260248201527f4f776e61626c653a2063616c6c6572206973206e6f7420746865206f776e6572604482015260640161034b565b60145482106108ab576001600160a01b0383166000908152600e602052604090205460ff161561089a57505050565b6108a66002848461161d565b6108b6565b6108b6600284611332565b60155482106108f6576001600160a01b0383166000908152600f602052604090205460ff16156108e557505050565b6108f16006848461161d565b610901565b610901600684611332565b6016548210610941576001600160a01b03831660009081526010602052604090205460ff161561093057505050565b61093c600a848461161d565b61094c565b61094c600a84611332565b801561096e576001600160a01b03831660009081526011602052604090204290555b505050565b6000546001600160a01b031633146109cd5760405162461bcd60e51b815260206004820181905260248201527f4f776e61626c653a2063616c6c6572206973206e6f7420746865206f776e6572604482015260640161034b565b601a546001600160a01b03166323b872dd6109f06000546001600160a01b031690565b6040517fffffffff0000000000000000000000000000000000000000000000000000000060e084901b1681526001600160a01b03909116600482015230602482015260448101849052606401602060405180830381600087803b158015610a5657600080fd5b505af1158015610a6a573d6000803e3d6000fd5b505050506040513d601f19601f82011682018060405250810190610a8e9190611922565b50610ab2610aa96103e8610aa384607d6116de565b906115a9565b601754906116ea565b601755610ad3610aca6103e8610aa3846102716116de565b601854906116ea565b601855610af3610aea6103e8610aa38460fa6116de565b601954906116ea565b60195550565b600080546001600160a01b03163314610b545760405162461bcd60e51b815260206004820181905260248201527f4f776e61626c653a2063616c6c6572206973206e6f7420746865206f776e6572604482015260640161034b565b601c546040517f70a082310000000000000000000000000000000000000000000000000000000081523060048201527f00000000000000000000000000000000000000000000000000000000000000006001600160a01b0316906370a082319060240160206040518083038186803b158015610bcf57600080fd5b505afa158015610be3573d6000803e3d6000fd5b505050506040513d601f19601f82011682018060405250810190610c079190611977565b1015610c7b5760405162461bcd60e51b815260206004820152602b60248201527f4e6f7420656e6f756768204c494e4b202d2066696c6c20636f6e74726163742060448201527f7769746820666175636574000000000000000000000000000000000000000000606482015260840161034b565b610c89601b54601c546116f6565b905090565b6000546001600160a01b03163314610ce85760405162461bcd60e51b815260206004820181905260248201527f4f776e61626c653a2063616c6c6572206973206e6f7420746865206f776e6572604482015260640161034b565b6001600160a01b038116610d645760405162461bcd60e51b815260206004820152602660248201527f4f776e61626c653a206e6577206f776e657220697320746865207a65726f206160448201527f6464726573730000000000000000000000000000000000000000000000000000606482015260840161034b565b610382816115b5565b6000546001600160a01b03163314610dc75760405162461bcd60e51b815260206004820181905260248201527f4f776e61626c653a2063616c6c6572206973206e6f7420746865206f776e6572604482015260640161034b565b601e54601d541415610e1b5760405162461bcd60e51b815260206004820152601a60248201527f5570646174652072616e646f6d206e756d626572206669727374000000000000604482015260640161034b565b600a5460009081805b60018160ff161015610fb057601d54610e4990610e419085611530565b600a90611543565b6001600160a01b03811660009081526011602052604090205490925062093a8090610e7590429061159d565b10610f2b5780610e8481611b47565b601a546019546040517fa9059cbb0000000000000000000000000000000000000000000000000000000081526001600160a01b038781166004830152602482019290925292945016915063a9059cbb90604401602060405180830381600087803b158015610ef157600080fd5b505af1158015610f05573d6000803e3d6000fd5b505050506040513d601f19601f82011682018060405250810190610f299190611922565b505b601d5460408051602081019290925242908201527fff0000000000000000000000000000000000000000000000000000000000000060f883901b166060820152606101604080517fffffffffffffffffffffffffffffffffffffffffffffffffffffffffffffffe08184030181529190528051602090910120601d8190559350610e24565b601d54601e5560006019819055604080516001600160a01b038516815260208101929092527f332094d2494d28aace8b75bee9107f1299121fa899647dc7f3c99c199e88819a910160405180910390a150505050565b601e54601d54141561105a5760405162461bcd60e51b815260206004820152601a60248201527f5570646174652072616e646f6d206e756d626572206669727374000000000000604482015260640161034b565b6002546000906110686118a6565b6000805b600a8160ff16101561126057601d54611091906110899086611530565b600290611543565b6001600160a01b03811660009081526011602052604090205490925062093a80906110bd90429061159d565b106111db5781838260ff16600a81106110ff577f4e487b7100000000000000000000000000000000000000000000000000000000600052603260045260246000fd5b6001600160a01b0390921660209290920201528061111c81611b47565b601a546017549193506001600160a01b0316915063a9059cbb90849061114390600a6115a9565b6040517fffffffff0000000000000000000000000000000000000000000000000000000060e085901b1681526001600160a01b0390921660048301526024820152604401602060405180830381600087803b1580156111a157600080fd5b505af11580156111b5573d6000803e3d6000fd5b505050506040513d601f19601f820116820180604052508101906111d99190611922565b505b601d5460408051602081019290925242908201527fff0000000000000000000000000000000000000000000000000000000000000060f883901b166060820152606101604080517fffffffffffffffffffffffffffffffffffffffffffffffffffffffffffffffe08184030181529190528051602090910120601d819055945061106c565b42601255601d54601e55600060178190557f52bedb21b2b67bcf8a4b6d2cf58d8fcf8061f5b30a09e7e13cce3dbb039ca1459084906112a090600a6115a9565b60405161062e929190611a43565b6000546001600160a01b031633146113085760405162461bcd60e51b815260206004820181905260248201527f4f776e61626c653a2063616c6c6572206973206e6f7420746865206f776e6572604482015260640161034b565b6001600160a01b0381166000908152601060205260409020805460ff19166001179055610382600a825b6001600160a01b038116600090815260038301602052604090205460ff16611358575050565b6001600160a01b03811660009081526003830160209081526040808320805460ff19169055600180860183528184208490556002860190925282205484549092916113a291611b30565b905060008460000182815481106113e2577f4e487b7100000000000000000000000000000000000000000000000000000000600052603260045260246000fd5b60009182526020808320909101546001600160a01b03908116808452600289019092526040808420879055908716835282209190915585549091508190869085908110611458577f4e487b7100000000000000000000000000000000000000000000000000000000600052603260045260246000fd5b600091825260209091200180547fffffffffffffffffffffffff0000000000000000000000000000000000000000166001600160a01b039290921691909117905584548590806114d1577f4e487b7100000000000000000000000000000000000000000000000000000000600052603160045260246000fd5b60008281526020902081017fffffffffffffffffffffffffffffffffffffffffffffffffffffffffffffffff90810180547fffffffffffffffffffffffff00000000000000000000000000000000000000001690550190555050505050565b600061153c8284611b67565b9392505050565b6000826000018281548110611581577f4e487b7100000000000000000000000000000000000000000000000000000000600052603260045260246000fd5b6000918252602090912001546001600160a01b03169392505050565b600061153c8284611b30565b600061153c8284611adf565b600080546001600160a01b038381167fffffffffffffffffffffffff0000000000000000000000000000000000000000831681178455604051919092169283917f8be0079c531659141344cd1fd0a4f28419497f9722a3daafe3b4186f6b6457e09190a35050565b6001600160a01b038216600090815260038401602052604090205460ff1615611662576001600160a01b03821660009081526001840160205260409020819055505050565b6001600160a01b03821660008181526003850160209081526040808320805460ff19166001908117909155878101835281842086905587546002890184529184208290558101875586835291200180547fffffffffffffffffffffffff0000000000000000000000000000000000000000169091179055505050565b600061153c8284611af3565b600061153c8284611ac7565b60007f00000000000000000000000000000000000000000000000000000000000000006001600160a01b0316634000aea07f000000000000000000000000000000000000000000000000000000000000000084866000604051602001611766929190918252602082015260400190565b6040516020818303038152906040526040518463ffffffff1660e01b8152600401611793939291906119ba565b602060405180830381600087803b1580156117ad57600080fd5b505af11580156117c1573d6000803e3d6000fd5b505050506040513d601f19601f820116820180604052508101906117e59190611922565b50600083815260016020818152604080842054815180840189905280830186905230606082015260808082018390528351808303909101815260a0909101909252815191830191909120938790529082905261184091611ac7565b6000858152600160205260409020556118808482604080516020808201949094528082019290925280518083038201815260609092019052805191012090565b949350505050565b60405180606001604052806003906020820280368337509192915050565b604051806101400160405280600a906020820280368337509192915050565b6000602082840312156118d6578081fd5b813561153c81611bd9565b6000806000606084860312156118f5578182fd5b833561190081611bd9565b925060208401359150604084013561191781611bee565b809150509250925092565b600060208284031215611933578081fd5b815161153c81611bee565b60008060408385031215611950578182fd5b50508035926020909101359150565b600060208284031215611970578081fd5b5035919050565b600060208284031215611988578081fd5b5051919050565b6000806000606084860312156119a3578283fd5b505081359360208301359350604090920135919050565b6001600160a01b0384168152600060208481840152606060408401528351806060850152825b818110156119fc578581018301518582016080015282016119e0565b81811115611a0d5783608083870101525b50601f017fffffffffffffffffffffffffffffffffffffffffffffffffffffffffffffffe0169290920160800195945050505050565b6101608101818460005b600a811015611a755781516001600160a01b0316835260209283019290910190600101611a4d565b505050826101408301529392505050565b60808101818460005b6003811015611ab75781516001600160a01b0316835260209283019290910190600101611a8f565b5050508260608301529392505050565b60008219821115611ada57611ada611b7b565b500190565b600082611aee57611aee611baa565b500490565b6000817fffffffffffffffffffffffffffffffffffffffffffffffffffffffffffffffff0483118215151615611b2b57611b2b611b7b565b500290565b600082821015611b4257611b42611b7b565b500390565b600060ff821660ff811415611b5e57611b5e611b7b565b60010192915050565b600082611b7657611b76611baa565b500690565b7f4e487b7100000000000000000000000000000000000000000000000000000000600052601160045260246000fd5b7f4e487b7100000000000000000000000000000000000000000000000000000000600052601260045260246000fd5b6001600160a01b038116811461038257600080fd5b801515811461038257600080fdfea26469706673582212209b6af83c214eebbf39fca14e64880b8783037b827f62eb2a6821ee99f64df64264736f6c63430008040033",
  "immutableReferences": {},
  "source": "// SPDX-License-Identifier: MIT\r\n\r\npragma solidity ^0.8.4;\r\n\r\nimport \"./misc/DividendPayingToken.sol\";\r\nimport \"@openzeppelin/contracts/access/Ownable.sol\";\r\nimport \"./math/IterableMapping.sol\";\r\nimport '@uniswap/v2-core/contracts/interfaces/IUniswapV2Pair.sol';\r\nimport '@uniswap/v2-core/contracts/interfaces/IUniswapV2Factory.sol';\r\nimport '@uniswap/v2-periphery/contracts/interfaces/IUniswapV2Router02.sol';\r\nimport \"./misc/LotteryTracker.sol\";\r\n\r\n\r\ncontract JEWEL is ERC20, Ownable {\r\n    using SafeMath for uint256;\r\n\r\n    IUniswapV2Router02 public uniswapV2Router;\r\n    address public  uniswapV2Pair;\r\n\r\n    bool private swapping;\r\n    bool private isAlreadyCalled;\r\n    bool private isLotteryActive;\r\n\r\n    JEWELDividendTracker public dividendTracker;\r\n    LotteryTracker public lotteryTracker;\r\n\r\n    address private constant deadWallet = 0x000000000000000000000000000000000000dEaD;\r\n\r\n    address private constant BUSD = address(0xE879D7Ba401b0b8c3ec010001fb95dE120242500); //BUSD\r\n\r\n    uint256 public swapTokensAtAmount = 200000 * (10**18);\r\n    \r\n    mapping(address => bool) public _isBlacklisted;\r\n\r\n    uint8 public BUSDRewardsFee = 2;\r\n    uint8 public liquidityFee = 4;\r\n    uint8 public marketingFee = 2;\r\n    uint8 public weekly = 1;\r\n    uint8 public monthly = 5;\r\n    uint8 public ultimate = 2;\r\n    uint16 public lotteryFee = weekly+monthly+ultimate;\r\n    uint16 public totalFees = BUSDRewardsFee + liquidityFee + marketingFee + lotteryFee;\r\n\r\n    address public _marketingWalletAddress = address(0x0);\r\n\r\n\r\n    // use by default 300,000 gas to process auto-claiming dividends\r\n    uint256 public gasForProcessing = 300000;\r\n\r\n     // exlcude from fees and max transaction amount\r\n    mapping (address => bool) private _isExcludedFromFees;\r\n\r\n\r\n    // store addresses that a automatic market maker pairs. Any transfer *to* these addresses\r\n    // could be subject to a maximum transfer amount\r\n    mapping (address => bool) public automatedMarketMakerPairs;\r\n\r\n    event UpdateDividendTracker(address indexed newAddress, address indexed oldAddress);\r\n\r\n    event UpdateUniswapV2Router(address indexed newAddress, address indexed oldAddress);\r\n\r\n    event ExcludeFromFees(address indexed account, bool isExcluded);\r\n    event ExcludeMultipleAccountsFromFees(address[] accounts, bool isExcluded);\r\n\r\n    event SetAutomatedMarketMakerPair(address indexed pair, bool indexed value);\r\n\r\n    event LiquidityWalletUpdated(address indexed newLiquidityWallet, address indexed oldLiquidityWallet);\r\n\r\n    event GasForProcessingUpdated(uint256 indexed newValue, uint256 indexed oldValue);\r\n\r\n    event SwapAndLiquify(\r\n        uint256 tokensSwapped,\r\n        uint256 ethReceived,\r\n        uint256 tokensIntoLiqudity\r\n    );\r\n\r\n    event SendDividends(\r\n    \tuint256 tokensSwapped,\r\n    \tuint256 amount\r\n    );\r\n\r\n    event ProcessedDividendTracker(\r\n    \tuint256 iterations,\r\n    \tuint256 claims,\r\n        uint256 lastProcessedIndex,\r\n    \tbool indexed automatic,\r\n    \tuint256 gas,\r\n    \taddress indexed processor\r\n    );\r\n\r\n    modifier onlyLottery{\r\n        require(msg.sender == address(lotteryTracker),\"Only lottery contract\");\r\n        _;\r\n    }\r\n\r\n    constructor() ERC20(\"JEWEL TOKEN\", \"JWLS\") {\r\n\r\n    \tdividendTracker = new JEWELDividendTracker();\r\n        lotteryTracker = new LotteryTracker();\r\n\r\n\r\n    \tIUniswapV2Router02 _uniswapV2Router = IUniswapV2Router02(0x7a250d5630B4cF539739dF2C5dAcb4c659F2488D);\r\n         // Create a uniswap pair for this new token\r\n        address _uniswapV2Pair = IUniswapV2Factory(_uniswapV2Router.factory())\r\n            .createPair(address(this), _uniswapV2Router.WETH());\r\n\r\n        uniswapV2Router = _uniswapV2Router;\r\n        uniswapV2Pair = _uniswapV2Pair;\r\n\r\n        _setAutomatedMarketMakerPair(_uniswapV2Pair, true);\r\n\r\n        // exclude from receiving dividends\r\n        dividendTracker.excludeFromDividends(address(dividendTracker));\r\n        dividendTracker.excludeFromDividends(address(this));\r\n        dividendTracker.excludeFromDividends(owner());\r\n        dividendTracker.excludeFromDividends(deadWallet);\r\n        dividendTracker.excludeFromDividends(address(_uniswapV2Router));\r\n        dividendTracker.excludedFromDividends(address(lotteryTracker));\r\n\r\n        lotteryTracker.excludedFromWeekly(uniswapV2Pair);\r\n        lotteryTracker.excludedFromMonthly(uniswapV2Pair);\r\n        lotteryTracker.excludedFromUltimate(uniswapV2Pair);\r\n\r\n        // exclude from paying fees or having max transaction amount\r\n        excludeFromFees(owner(), true);\r\n        excludeFromFees(_marketingWalletAddress, true);\r\n        excludeFromFees(address(this), true);\r\n\r\n        /*\r\n            _mint is an internal function in ERC20.sol that is only called here,\r\n            and CANNOT be called ever again\r\n        */\r\n        _mint(owner(), 1000000000 * (10**18));\r\n        IERC20(BUSD).approve(address(lotteryTracker),~uint256(0));\r\n    }\r\n\r\n    receive() external payable {\r\n\r\n  \t}\r\n\r\n    function updateDividendTracker(address newAddress) public onlyOwner {\r\n        require(newAddress != address(dividendTracker), \"JEWEL: The dividend tracker already has that address\");\r\n\r\n        JEWELDividendTracker newDividendTracker = JEWELDividendTracker(payable(newAddress));\r\n\r\n        require(newDividendTracker.owner() == address(this), \"JEWEL: The new dividend tracker must be owned by the JEWEL token contract\");\r\n\r\n        newDividendTracker.excludeFromDividends(address(newDividendTracker));\r\n        newDividendTracker.excludeFromDividends(address(this));\r\n        newDividendTracker.excludeFromDividends(owner());\r\n        newDividendTracker.excludeFromDividends(address(uniswapV2Router));\r\n\r\n        emit UpdateDividendTracker(newAddress, address(dividendTracker));\r\n\r\n        dividendTracker = newDividendTracker;\r\n    }\r\n\r\n    function updateUniswapV2Router(address newAddress) public onlyOwner {\r\n        require(newAddress != address(uniswapV2Router), \"JEWEL: The router already has that address\");\r\n        emit UpdateUniswapV2Router(newAddress, address(uniswapV2Router));\r\n        uniswapV2Router = IUniswapV2Router02(newAddress);\r\n        address _uniswapV2Pair = IUniswapV2Factory(uniswapV2Router.factory())\r\n            .createPair(address(this), uniswapV2Router.WETH());\r\n        uniswapV2Pair = _uniswapV2Pair;\r\n    }\r\n\r\n    function excludeFromFees(address account, bool excluded) public onlyOwner {\r\n        require(_isExcludedFromFees[account] != excluded, \"JEWEL: Account is already excluded\");\r\n        _isExcludedFromFees[account] = excluded;\r\n\r\n        emit ExcludeFromFees(account, excluded);\r\n    }\r\n\r\n    function excludeMultipleAccountsFromFees(address[] calldata accounts, bool excluded) public onlyOwner {\r\n        for(uint256 i = 0; i < accounts.length; i++) {\r\n            _isExcludedFromFees[accounts[i]] = excluded;\r\n        }\r\n\r\n        emit ExcludeMultipleAccountsFromFees(accounts, excluded);\r\n    }\r\n\r\n    function setMarketingWallet(address payable wallet) external onlyOwner{\r\n        _marketingWalletAddress = wallet;\r\n    }\r\n\r\n    function setBUSDRewardsFee(uint8 value) external onlyOwner{\r\n        BUSDRewardsFee = value;\r\n        totalFees = BUSDRewardsFee + liquidityFee + marketingFee + lotteryFee;\r\n    }\r\n\r\n    function setLiquiditFee(uint8 value) external onlyOwner{\r\n        liquidityFee = value;\r\n        totalFees = BUSDRewardsFee + liquidityFee + marketingFee + lotteryFee;\r\n    }\r\n\r\n    function setMarketingFee(uint8 value) external onlyOwner{\r\n        marketingFee = value;\r\n        totalFees = BUSDRewardsFee + liquidityFee + marketingFee + lotteryFee;\r\n\r\n    }\r\n\r\n    function setLotteryState(bool value) external onlyOwner {\r\n        isLotteryActive = value;\r\n    }\r\n\r\n    function setLotteryFee(uint8 _weekly, uint8 _monthly, uint8 _ultimate) external onlyOwner{\r\n        weekly = _weekly;\r\n        monthly = _monthly;\r\n        ultimate = _ultimate;\r\n        lotteryFee = weekly + monthly + ultimate;\r\n        totalFees = BUSDRewardsFee + liquidityFee + marketingFee + lotteryFee;\r\n\r\n    }\r\n\r\n\r\n    function setAutomatedMarketMakerPair(address pair, bool value) public onlyOwner {\r\n        require(pair != uniswapV2Pair, \"JEWEL: The PancakeSwap pair cannot be removed from automatedMarketMakerPairs\");\r\n\r\n        _setAutomatedMarketMakerPair(pair, value);\r\n    }\r\n    \r\n    function blacklistAddress(address account, bool value) external onlyOwner{\r\n        _isBlacklisted[account] = value;\r\n    }\r\n\r\n\r\n    function _setAutomatedMarketMakerPair(address pair, bool value) private {\r\n        require(automatedMarketMakerPairs[pair] != value, \"JEWEL: Automated market maker pair is already set to that value\");\r\n        automatedMarketMakerPairs[pair] = value;\r\n\r\n        if(value) {\r\n            dividendTracker.excludeFromDividends(pair);\r\n        }\r\n\r\n        emit SetAutomatedMarketMakerPair(pair, value);\r\n    }\r\n\r\n\r\n    function updateGasForProcessing(uint256 newValue) public onlyOwner {\r\n        require(newValue >= 200000 && newValue <= 500000, \"JEWEL: gasForProcessing must be between 200,000 and 500,000\");\r\n        require(newValue != gasForProcessing, \"JEWEL: Cannot update gasForProcessing to same value\");\r\n        emit GasForProcessingUpdated(newValue, gasForProcessing);\r\n        gasForProcessing = newValue;\r\n    }\r\n\r\n    function updateClaimWait(uint256 claimWait) external onlyOwner {\r\n        dividendTracker.updateClaimWait(claimWait);\r\n    }\r\n\r\n    function getClaimWait() external view returns(uint256) {\r\n        return dividendTracker.claimWait();\r\n    }\r\n\r\n    function getTotalDividendsDistributed() external view returns (uint256) {\r\n        return dividendTracker.totalDividendsDistributed();\r\n    }\r\n\r\n    function isExcludedFromFees(address account) public view returns(bool) {\r\n        return _isExcludedFromFees[account];\r\n    }\r\n\r\n    function withdrawableDividendOf(address account) public view returns(uint256) {\r\n    \treturn dividendTracker.withdrawableDividendOf(account);\r\n  \t}\r\n\r\n\tfunction dividendTokenBalanceOf(address account) public view returns (uint256) {\r\n\t\treturn dividendTracker.balanceOf(account);\r\n\t}\r\n\r\n\tfunction excludeFromDividends(address account) external onlyOwner{\r\n\t    dividendTracker.excludeFromDividends(account);\r\n\t}\r\n\r\n    function excludeFromWeekly(address account) external onlyOwner{\r\n\t    lotteryTracker.excludeFromWeekly(account);\r\n\t}\r\n\r\n    function excludeFromMonthly(address account) external onlyOwner{\r\n\t    lotteryTracker.excludeFromMonthly(account);\r\n\t}\r\n\r\n    function excludeFromUltimate(address account) external onlyOwner{\r\n\t    lotteryTracker.excludeFromUltimate(account);\r\n\t}\r\n\t\r\n\tfunction setMinValues(uint256 _weekly, uint256 _monthly, uint256 _ultimate) external onlyOwner {\r\n\t    lotteryTracker.setMinValues(_weekly,_monthly,_ultimate);\r\n\t}\r\n\r\n    function pickUltimateWinner() external onlyOwner{\r\n\t    if(!isAlreadyCalled){ \r\n                lotteryTracker.getRandomNumber();\r\n                isAlreadyCalled = true;\r\n            }else{\r\n                try lotteryTracker.pickUltimateWinner() {isAlreadyCalled = false;} catch {}\r\n            }\r\n\t}\r\n\r\n    function getAccountDividendsInfo(address account)\r\n        external view returns (\r\n            address,\r\n            int256,\r\n            int256,\r\n            uint256,\r\n            uint256,\r\n            uint256,\r\n            uint256,\r\n            uint256) {\r\n        return dividendTracker.getAccount(account);\r\n    }\r\n\r\n\tfunction getAccountDividendsInfoAtIndex(uint256 index)\r\n        external view returns (\r\n            address,\r\n            int256,\r\n            int256,\r\n            uint256,\r\n            uint256,\r\n            uint256,\r\n            uint256,\r\n            uint256) {\r\n    \treturn dividendTracker.getAccountAtIndex(index);\r\n    }\r\n\r\n\tfunction processDividendTracker(uint256 gas) external {\r\n\t\t(uint256 iterations, uint256 claims, uint256 lastProcessedIndex) = dividendTracker.process(gas);\r\n\t\temit ProcessedDividendTracker(iterations, claims, lastProcessedIndex, false, gas, tx.origin);\r\n    }\r\n\r\n    function claim() external {\r\n\t\tdividendTracker.processAccount(payable(msg.sender), false);\r\n    }\r\n\r\n    function getLastProcessedIndex() external view returns(uint256) {\r\n    \treturn dividendTracker.getLastProcessedIndex();\r\n    }\r\n\r\n    function getNumberOfDividendTokenHolders() external view returns(uint256) {\r\n        return dividendTracker.getNumberOfTokenHolders();\r\n    }\r\n\r\n\r\n    function _transfer(\r\n        address from,\r\n        address to,\r\n        uint256 amount\r\n    ) internal override {\r\n        require(from != address(0), \"ERC20: transfer from the zero address\");\r\n        require(to != address(0), \"ERC20: transfer to the zero address\");\r\n        require(!_isBlacklisted[from] && !_isBlacklisted[to], 'Blacklisted address');\r\n\r\n        if(amount == 0) {\r\n            super._transfer(from, to, 0);\r\n            return;\r\n        }\r\n\r\n\t\tuint256 contractTokenBalance = balanceOf(address(this));\r\n\r\n        bool canSwap = contractTokenBalance >= swapTokensAtAmount;\r\n\r\n        if( canSwap &&\r\n            !swapping &&\r\n            !automatedMarketMakerPairs[from] &&\r\n            from != owner() &&\r\n            to != owner()\r\n        ) {\r\n            swapping = true;\r\n\r\n            uint256 marketingTokens = contractTokenBalance.mul(marketingFee).div(totalFees);\r\n            swapAndSendToFee(marketingTokens);\r\n\r\n            uint256 swapTokens = contractTokenBalance.mul(liquidityFee).div(totalFees);\r\n            swapAndLiquify(swapTokens);\r\n\r\n            uint256 sellTokens = balanceOf(address(this));\r\n            swapAndSendDividendsAndLottery(sellTokens);\r\n\r\n            swapping = false;\r\n        }\r\n\r\n\r\n        bool takeFee = !swapping;\r\n\r\n        // if any account belongs to _isExcludedFromFee account then remove the fee\r\n        if(_isExcludedFromFees[from] || _isExcludedFromFees[to]) {\r\n            takeFee = false;\r\n        }\r\n\r\n        if(takeFee) {\r\n        \tuint256 fees = amount.mul(totalFees).div(100);\r\n\r\n        \tamount = amount.sub(fees);\r\n\r\n            super._transfer(from, address(this), fees);\r\n        }\r\n\r\n        super._transfer(from, to, amount);\r\n\r\n        try dividendTracker.setBalance(payable(from), balanceOf(from)) {} catch {}\r\n        try dividendTracker.setBalance(payable(to), balanceOf(to)) {} catch {}\r\n\r\n        try lotteryTracker.setAccount(payable(from), balanceOf(from), true) {} catch {}\r\n        try lotteryTracker.setAccount(payable(to), balanceOf(to), false) {} catch {}\r\n\r\n        if(isLotteryActive){\r\n            if(block.timestamp >= lotteryTracker.lastWeeklyDistributed() + 7 days){\r\n                if(!isAlreadyCalled){\r\n                    lotteryTracker.getRandomNumber();\r\n                    isAlreadyCalled = true;\r\n                }else{\r\n                    try lotteryTracker.pickWeeklyWinners() {isAlreadyCalled = false;} catch {}\r\n                }\r\n            \r\n            }\r\n\r\n            if(block.timestamp >= lotteryTracker.lastMonthlyDistributed() + 30 days){\r\n                if(!isAlreadyCalled){\r\n                    lotteryTracker.getRandomNumber();\r\n                    isAlreadyCalled = true;\r\n                }else{\r\n                    try lotteryTracker.pickMonthlyWinners() {isAlreadyCalled = false;} catch {}\r\n                }\r\n            \r\n            }\r\n        }\r\n\r\n        if(!swapping) {\r\n\t    \tuint256 gas = gasForProcessing;\r\n\r\n\t    \ttry dividendTracker.process(gas) returns (uint256 iterations, uint256 claims, uint256 lastProcessedIndex) {\r\n\t    \t\temit ProcessedDividendTracker(iterations, claims, lastProcessedIndex, true, gas, tx.origin);\r\n\t    \t}\r\n\t    \tcatch {\r\n\r\n\t    \t}\r\n        }\r\n    }\r\n\r\n    function swapAndSendToFee(uint256 tokens) private  {\r\n\r\n        uint256 initialBUSDBalance = IERC20(BUSD).balanceOf(address(this));\r\n\r\n        swapTokensForBUSD(tokens);\r\n        uint256 newBalance = (IERC20(BUSD).balanceOf(address(this))).sub(initialBUSDBalance);\r\n        IERC20(BUSD).transfer(_marketingWalletAddress, newBalance);\r\n    }\r\n\r\n    function swapAndLiquify(uint256 tokens) private {\r\n       // split the contract balance into halves\r\n        uint256 half = tokens.div(2);\r\n        uint256 otherHalf = tokens.sub(half);\r\n\r\n        // capture the contract's current ETH balance.\r\n        // this is so that we can capture exactly the amount of ETH that the\r\n        // swap creates, and not make the liquidity event include any ETH that\r\n        // has been manually sent to the contract\r\n        uint256 initialBalance = address(this).balance;\r\n\r\n        // swap tokens for ETH\r\n        swapTokensForEth(half); // <- this breaks the ETH -> HATE swap when swap+liquify is triggered\r\n\r\n        // how much ETH did we just swap into?\r\n        uint256 newBalance = address(this).balance.sub(initialBalance);\r\n\r\n        // add liquidity to uniswap\r\n        addLiquidity(otherHalf, newBalance);\r\n\r\n        emit SwapAndLiquify(half, newBalance, otherHalf);\r\n    }\r\n\r\n\r\n    function swapTokensForEth(uint256 tokenAmount) private {\r\n\r\n\r\n        // generate the uniswap pair path of token -> weth\r\n        address[] memory path = new address[](2);\r\n        path[0] = address(this);\r\n        path[1] = uniswapV2Router.WETH();\r\n\r\n        _approve(address(this), address(uniswapV2Router), tokenAmount);\r\n\r\n        // make the swap\r\n        uniswapV2Router.swapExactTokensForETHSupportingFeeOnTransferTokens(\r\n            tokenAmount,\r\n            0, // accept any amount of ETH\r\n            path,\r\n            address(this),\r\n            block.timestamp\r\n        );\r\n\r\n    }\r\n\r\n    function swapTokensForBUSD(uint256 tokenAmount) private {\r\n\r\n        address[] memory path = new address[](3);\r\n        path[0] = address(this);\r\n        path[1] = uniswapV2Router.WETH();\r\n        path[2] = BUSD;\r\n\r\n        _approve(address(this), address(uniswapV2Router), tokenAmount);\r\n\r\n        // make the swap\r\n        uniswapV2Router.swapExactTokensForTokensSupportingFeeOnTransferTokens(\r\n            tokenAmount,\r\n            0,\r\n            path,\r\n            address(this),\r\n            block.timestamp\r\n        );\r\n    }\r\n\r\n    function addLiquidity(uint256 tokenAmount, uint256 ethAmount) private {\r\n\r\n        // approve token transfer to cover all possible scenarios\r\n        _approve(address(this), address(uniswapV2Router), tokenAmount);\r\n\r\n        // add the liquidity\r\n        uniswapV2Router.addLiquidityETH{value: ethAmount}(\r\n            address(this),\r\n            tokenAmount,\r\n            0, // slippage is unavoidable\r\n            0, // slippage is unavoidable\r\n            address(0),\r\n            block.timestamp\r\n        );\r\n\r\n    }\r\n\r\n    function swapAndSendDividendsAndLottery(uint256 tokens) private{\r\n        swapTokensForBUSD(tokens);\r\n        uint256 dividends = IERC20(BUSD).balanceOf(address(this));\r\n        uint256 lottery = dividends.mul(lotteryFee).div(lotteryFee + BUSDRewardsFee);\r\n        dividends = dividends.sub(lottery);\r\n\r\n        bool success = IERC20(BUSD).transfer(address(dividendTracker), dividends);\r\n\r\n        if (success) {\r\n            dividendTracker.distributeBUSDDividends(dividends);\r\n            emit SendDividends(tokens, dividends);\r\n        }\r\n\r\n        lotteryTracker.setLottery(IERC20(BUSD).balanceOf(address(this)));\r\n\r\n    }\r\n}\r\n\r\ncontract JEWELDividendTracker is Ownable, DividendPayingToken {\r\n    using SafeMath for uint256;\r\n    using SafeMathInt for int256;\r\n    using IterableMapping for IterableMapping.Map;\r\n\r\n    IterableMapping.Map private tokenHoldersMap;\r\n    uint256 public lastProcessedIndex;\r\n\r\n    mapping (address => bool) public excludedFromDividends;\r\n\r\n    mapping (address => uint256) public lastClaimTimes;\r\n\r\n    uint256 public claimWait;\r\n    uint256 public immutable minimumTokenBalanceForDividends;\r\n\r\n    event ExcludeFromDividends(address indexed account);\r\n    event ClaimWaitUpdated(uint256 indexed newValue, uint256 indexed oldValue);\r\n\r\n    event Claim(address indexed account, uint256 amount, bool indexed automatic);\r\n\r\n    constructor() DividendPayingToken(\"JEWEL_Dividen_Tracker\", \"JEWEL_Dividend_Tracker\") {\r\n    \tclaimWait = 3600;\r\n        minimumTokenBalanceForDividends = 20000 * (10**18); //must hold 20000+ tokens\r\n    }\r\n\r\n    function _transfer(address, address, uint256) internal pure override {\r\n        require(false, \"JEWEL_Dividend_Tracker: No transfers allowed\");\r\n    }\r\n\r\n    function withdrawDividend() public pure override {\r\n        require(false, \"JEWEL_Dividend_Tracker: withdrawDividend disabled. Use the 'claim' function on the main JEWEL contract.\");\r\n    }\r\n\r\n    function excludeFromDividends(address account) external onlyOwner {\r\n    \trequire(!excludedFromDividends[account]);\r\n    \texcludedFromDividends[account] = true;\r\n\r\n    \t_setBalance(account, 0);\r\n    \ttokenHoldersMap.remove(account);\r\n\r\n    \temit ExcludeFromDividends(account);\r\n    }\r\n\r\n    function updateClaimWait(uint256 newClaimWait) external onlyOwner {\r\n        require(newClaimWait >= 3600 && newClaimWait <= 86400, \"JEWEL_Dividend_Tracker: claimWait must be updated to between 1 and 24 hours\");\r\n        require(newClaimWait != claimWait, \"JEWEL_Dividend_Tracker: Cannot update claimWait to same value\");\r\n        emit ClaimWaitUpdated(newClaimWait, claimWait);\r\n        claimWait = newClaimWait;\r\n    }\r\n\r\n    function getLastProcessedIndex() external view returns(uint256) {\r\n    \treturn lastProcessedIndex;\r\n    }\r\n\r\n    function getNumberOfTokenHolders() external view returns(uint256) {\r\n        return tokenHoldersMap.keys.length;\r\n    }\r\n\r\n\r\n\r\n    function getAccount(address _account)\r\n        public view returns (\r\n            address account,\r\n            int256 index,\r\n            int256 iterationsUntilProcessed,\r\n            uint256 withdrawableDividends,\r\n            uint256 totalDividends,\r\n            uint256 lastClaimTime,\r\n            uint256 nextClaimTime,\r\n            uint256 secondsUntilAutoClaimAvailable) {\r\n        account = _account;\r\n\r\n        index = tokenHoldersMap.getIndexOfKey(account);\r\n\r\n        iterationsUntilProcessed = -1;\r\n\r\n        if(index >= 0) {\r\n            if(uint256(index) > lastProcessedIndex) {\r\n                iterationsUntilProcessed = index.sub(int256(lastProcessedIndex));\r\n            }\r\n            else {\r\n                uint256 processesUntilEndOfArray = tokenHoldersMap.keys.length > lastProcessedIndex ?\r\n                                                        tokenHoldersMap.keys.length.sub(lastProcessedIndex) :\r\n                                                        0;\r\n\r\n\r\n                iterationsUntilProcessed = index.add(int256(processesUntilEndOfArray));\r\n            }\r\n        }\r\n\r\n\r\n        withdrawableDividends = withdrawableDividendOf(account);\r\n        totalDividends = accumulativeDividendOf(account);\r\n\r\n        lastClaimTime = lastClaimTimes[account];\r\n\r\n        nextClaimTime = lastClaimTime > 0 ?\r\n                                    lastClaimTime.add(claimWait) :\r\n                                    0;\r\n\r\n        secondsUntilAutoClaimAvailable = nextClaimTime > block.timestamp ?\r\n                                                    nextClaimTime.sub(block.timestamp) :\r\n                                                    0;\r\n    }\r\n\r\n    function getAccountAtIndex(uint256 index)\r\n        public view returns (\r\n            address,\r\n            int256,\r\n            int256,\r\n            uint256,\r\n            uint256,\r\n            uint256,\r\n            uint256,\r\n            uint256) {\r\n    \tif(index >= tokenHoldersMap.size()) {\r\n            return (0x0000000000000000000000000000000000000000, -1, -1, 0, 0, 0, 0, 0);\r\n        }\r\n\r\n        address account = tokenHoldersMap.getKeyAtIndex(index);\r\n\r\n        return getAccount(account);\r\n    }\r\n\r\n    function canAutoClaim(uint256 lastClaimTime) private view returns (bool) {\r\n    \tif(lastClaimTime > block.timestamp)  {\r\n    \t\treturn false;\r\n    \t}\r\n\r\n    \treturn block.timestamp.sub(lastClaimTime) >= claimWait;\r\n    }\r\n\r\n    function setBalance(address payable account, uint256 newBalance) external onlyOwner {\r\n    \tif(excludedFromDividends[account]) {\r\n    \t\treturn;\r\n    \t}\r\n\r\n    \tif(newBalance >= minimumTokenBalanceForDividends) {\r\n            _setBalance(account, newBalance);\r\n    \t\ttokenHoldersMap.set(account, newBalance);\r\n    \t}\r\n    \telse {\r\n            _setBalance(account, 0);\r\n    \t\ttokenHoldersMap.remove(account);\r\n    \t}\r\n\r\n    \tprocessAccount(account, true);\r\n    }\r\n\r\n    function process(uint256 gas) public returns (uint256, uint256, uint256) {\r\n    \tuint256 numberOfTokenHolders = tokenHoldersMap.keys.length;\r\n\r\n    \tif(numberOfTokenHolders == 0) {\r\n    \t\treturn (0, 0, lastProcessedIndex);\r\n    \t}\r\n\r\n    \tuint256 _lastProcessedIndex = lastProcessedIndex;\r\n\r\n    \tuint256 gasUsed = 0;\r\n\r\n    \tuint256 gasLeft = gasleft();\r\n\r\n    \tuint256 iterations = 0;\r\n    \tuint256 claims = 0;\r\n\r\n    \twhile(gasUsed < gas && iterations < numberOfTokenHolders) {\r\n    \t\t_lastProcessedIndex++;\r\n\r\n    \t\tif(_lastProcessedIndex >= tokenHoldersMap.keys.length) {\r\n    \t\t\t_lastProcessedIndex = 0;\r\n    \t\t}\r\n\r\n    \t\taddress account = tokenHoldersMap.keys[_lastProcessedIndex];\r\n\r\n    \t\tif(canAutoClaim(lastClaimTimes[account])) {\r\n    \t\t\tif(processAccount(payable(account), true)) {\r\n    \t\t\t\tclaims++;\r\n    \t\t\t}\r\n    \t\t}\r\n\r\n    \t\titerations++;\r\n\r\n    \t\tuint256 newGasLeft = gasleft();\r\n\r\n    \t\tif(gasLeft > newGasLeft) {\r\n    \t\t\tgasUsed = gasUsed.add(gasLeft.sub(newGasLeft));\r\n    \t\t}\r\n\r\n    \t\tgasLeft = newGasLeft;\r\n    \t}\r\n\r\n    \tlastProcessedIndex = _lastProcessedIndex;\r\n\r\n    \treturn (iterations, claims, lastProcessedIndex);\r\n    }\r\n\r\n    function processAccount(address payable account, bool automatic) public onlyOwner returns (bool) {\r\n        uint256 amount = _withdrawDividendOfUser(account);\r\n\r\n    \tif(amount > 0) {\r\n    \t\tlastClaimTimes[account] = block.timestamp;\r\n            emit Claim(account, amount, automatic);\r\n    \t\treturn true;\r\n    \t}\r\n\r\n    \treturn false;\r\n    }\r\n}\r\n\r\n",
  "sourcePath": "C:\\Users\\aceso\\Desktop\\Contracts\\JEWELS\\contracts\\JEWEL.sol",
  "compiler": {
    "name": "solc",
    "version": "0.8.4+commit.c7e474f2.Emscripten.clang"
  },
  "schemaVersion": "3.4.2",
  "updatedAt": "2021-08-15T10:56:34.569Z",
  "networkType": "ethereum",
  "devdoc": {
    "kind": "dev",
    "methods": {
      "allowance(address,address)": {
        "details": "See {IERC20-allowance}."
      },
      "approve(address,uint256)": {
        "details": "See {IERC20-approve}. Requirements: - `spender` cannot be the zero address."
      },
      "balanceOf(address)": {
        "details": "See {IERC20-balanceOf}."
      },
      "decimals()": {
        "details": "Returns the number of decimals used to get its user representation. For example, if `decimals` equals `2`, a balance of `505` tokens should be displayed to a user as `5,05` (`505 / 10 ** 2`). Tokens usually opt for a value of 18, imitating the relationship between Ether and Wei. This is the value {ERC20} uses, unless this function is overridden; NOTE: This information is only used for _display_ purposes: it in no way affects any of the arithmetic of the contract, including {IERC20-balanceOf} and {IERC20-transfer}."
      },
      "decreaseAllowance(address,uint256)": {
        "details": "Atomically decreases the allowance granted to `spender` by the caller. This is an alternative to {approve} that can be used as a mitigation for problems described in {IERC20-approve}. Emits an {Approval} event indicating the updated allowance. Requirements: - `spender` cannot be the zero address. - `spender` must have allowance for the caller of at least `subtractedValue`."
      },
      "increaseAllowance(address,uint256)": {
        "details": "Atomically increases the allowance granted to `spender` by the caller. This is an alternative to {approve} that can be used as a mitigation for problems described in {IERC20-approve}. Emits an {Approval} event indicating the updated allowance. Requirements: - `spender` cannot be the zero address."
      },
      "name()": {
        "details": "Returns the name of the token."
      },
      "owner()": {
        "details": "Returns the address of the current owner."
      },
      "renounceOwnership()": {
        "details": "Leaves the contract without owner. It will not be possible to call `onlyOwner` functions anymore. Can only be called by the current owner. NOTE: Renouncing ownership will leave the contract without an owner, thereby removing any functionality that is only available to the owner."
      },
      "symbol()": {
        "details": "Returns the symbol of the token, usually a shorter version of the name."
      },
      "totalSupply()": {
        "details": "See {IERC20-totalSupply}."
      },
      "transfer(address,uint256)": {
        "details": "See {IERC20-transfer}. Requirements: - `recipient` cannot be the zero address. - the caller must have a balance of at least `amount`."
      },
      "transferFrom(address,address,uint256)": {
        "details": "See {IERC20-transferFrom}. Emits an {Approval} event indicating the updated allowance. This is not required by the EIP. See the note at the beginning of {ERC20}. Requirements: - `sender` and `recipient` cannot be the zero address. - `sender` must have a balance of at least `amount`. - the caller must have allowance for ``sender``'s tokens of at least `amount`."
      },
      "transferOwnership(address)": {
        "details": "Transfers ownership of the contract to a new account (`newOwner`). Can only be called by the current owner."
      }
    },
    "version": 1
  },
  "userdoc": {
    "kind": "user",
    "methods": {},
    "version": 1
  }
}