{
  "contractName": "LotteryTracker",
  "abi": [
    {
      "inputs": [],
      "stateMutability": "nonpayable",
      "type": "constructor"
    },
    {
      "anonymous": false,
      "inputs": [
        {
          "indexed": false,
          "internalType": "address[3]",
          "name": "winners",
          "type": "address[3]"
        },
        {
          "indexed": false,
          "internalType": "uint256",
          "name": "Amount",
          "type": "uint256"
        }
      ],
      "name": "MonthlyLotteryWinners",
      "type": "event"
    },
    {
      "anonymous": false,
      "inputs": [
        {
          "indexed": true,
          "internalType": "address",
          "name": "previousOwner",
          "type": "address"
        },
        {
          "indexed": true,
          "internalType": "address",
          "name": "newOwner",
          "type": "address"
        }
      ],
      "name": "OwnershipTransferred",
      "type": "event"
    },
    {
      "anonymous": false,
      "inputs": [
        {
          "indexed": false,
          "internalType": "address",
          "name": "winner",
          "type": "address"
        },
        {
          "indexed": false,
          "internalType": "uint256",
          "name": "Amount",
          "type": "uint256"
        }
      ],
      "name": "UltimateLotteryWinners",
      "type": "event"
    },
    {
      "anonymous": false,
      "inputs": [
        {
          "indexed": false,
          "internalType": "address[10]",
          "name": "winners",
          "type": "address[10]"
        },
        {
          "indexed": false,
          "internalType": "uint256",
          "name": "Amount",
          "type": "uint256"
        }
      ],
      "name": "WeeklyLotteryWinners",
      "type": "event"
    },
    {
      "inputs": [
        {
          "internalType": "address",
          "name": "",
          "type": "address"
        }
      ],
      "name": "excludedFromMonthly",
      "outputs": [
        {
          "internalType": "bool",
          "name": "",
          "type": "bool"
        }
      ],
      "stateMutability": "view",
      "type": "function",
      "constant": true
    },
    {
      "inputs": [
        {
          "internalType": "address",
          "name": "",
          "type": "address"
        }
      ],
      "name": "excludedFromUltimate",
      "outputs": [
        {
          "internalType": "bool",
          "name": "",
          "type": "bool"
        }
      ],
      "stateMutability": "view",
      "type": "function",
      "constant": true
    },
    {
      "inputs": [
        {
          "internalType": "address",
          "name": "",
          "type": "address"
        }
      ],
      "name": "excludedFromWeekly",
      "outputs": [
        {
          "internalType": "bool",
          "name": "",
          "type": "bool"
        }
      ],
      "stateMutability": "view",
      "type": "function",
      "constant": true
    },
    {
      "inputs": [],
      "name": "lastMonthlyDistributed",
      "outputs": [
        {
          "internalType": "uint256",
          "name": "",
          "type": "uint256"
        }
      ],
      "stateMutability": "view",
      "type": "function",
      "constant": true
    },
    {
      "inputs": [],
      "name": "lastWeeklyDistributed",
      "outputs": [
        {
          "internalType": "uint256",
          "name": "",
          "type": "uint256"
        }
      ],
      "stateMutability": "view",
      "type": "function",
      "constant": true
    },
    {
      "inputs": [],
      "name": "owner",
      "outputs": [
        {
          "internalType": "address",
          "name": "",
          "type": "address"
        }
      ],
      "stateMutability": "view",
      "type": "function",
      "constant": true
    },
    {
      "inputs": [],
      "name": "randomResult",
      "outputs": [
        {
          "internalType": "uint256",
          "name": "",
          "type": "uint256"
        }
      ],
      "stateMutability": "view",
      "type": "function",
      "constant": true
    },
    {
      "inputs": [
        {
          "internalType": "bytes32",
          "name": "requestId",
          "type": "bytes32"
        },
        {
          "internalType": "uint256",
          "name": "randomness",
          "type": "uint256"
        }
      ],
      "name": "rawFulfillRandomness",
      "outputs": [],
      "stateMutability": "nonpayable",
      "type": "function"
    },
    {
      "inputs": [],
      "name": "renounceOwnership",
      "outputs": [],
      "stateMutability": "nonpayable",
      "type": "function"
    },
    {
      "inputs": [
        {
          "internalType": "address",
          "name": "newOwner",
          "type": "address"
        }
      ],
      "name": "transferOwnership",
      "outputs": [],
      "stateMutability": "nonpayable",
      "type": "function"
    },
    {
      "inputs": [
        {
          "internalType": "uint256",
          "name": "amount",
          "type": "uint256"
        }
      ],
      "name": "setLottery",
      "outputs": [],
      "stateMutability": "nonpayable",
      "type": "function"
    },
    {
      "inputs": [],
      "name": "getRandomNumber",
      "outputs": [
        {
          "internalType": "bytes32",
          "name": "requestId",
          "type": "bytes32"
        }
      ],
      "stateMutability": "nonpayable",
      "type": "function"
    },
    {
      "inputs": [
        {
          "internalType": "address",
          "name": "account",
          "type": "address"
        }
      ],
      "name": "excludeFromWeekly",
      "outputs": [],
      "stateMutability": "nonpayable",
      "type": "function"
    },
    {
      "inputs": [
        {
          "internalType": "address",
          "name": "account",
          "type": "address"
        }
      ],
      "name": "excludeFromMonthly",
      "outputs": [],
      "stateMutability": "nonpayable",
      "type": "function"
    },
    {
      "inputs": [
        {
          "internalType": "address",
          "name": "account",
          "type": "address"
        }
      ],
      "name": "excludeFromUltimate",
      "outputs": [],
      "stateMutability": "nonpayable",
      "type": "function"
    },
    {
      "inputs": [
        {
          "internalType": "uint256",
          "name": "weekly",
          "type": "uint256"
        },
        {
          "internalType": "uint256",
          "name": "monthly",
          "type": "uint256"
        },
        {
          "internalType": "uint256",
          "name": "ultimate",
          "type": "uint256"
        }
      ],
      "name": "setMinValues",
      "outputs": [],
      "stateMutability": "nonpayable",
      "type": "function"
    },
    {
      "inputs": [],
      "name": "pickWeeklyWinners",
      "outputs": [],
      "stateMutability": "nonpayable",
      "type": "function"
    },
    {
      "inputs": [],
      "name": "pickMonthlyWinners",
      "outputs": [],
      "stateMutability": "nonpayable",
      "type": "function"
    },
    {
      "inputs": [],
      "name": "pickUltimateWinner",
      "outputs": [],
      "stateMutability": "nonpayable",
      "type": "function"
    },
    {
      "inputs": [
        {
          "internalType": "address payable",
          "name": "account",
          "type": "address"
        },
        {
          "internalType": "uint256",
          "name": "newBalance",
          "type": "uint256"
        },
        {
          "internalType": "bool",
          "name": "isFrom",
          "type": "bool"
        }
      ],
      "name": "setAccount",
      "outputs": [],
      "stateMutability": "nonpayable",
      "type": "function"
    }
  ],
  "bytecode": "0x60c060405269021e19e0c9bab240000060145569043c33c193756480000060155569054b40b1f852bda00000601655601a80546001600160a01b03191673e879d7ba401b0b8c3ec010001fb95de12024250017905534801561006057600080fd5b5073b3dccb4cf7a26f6cf6b120cf5a73875b7bbc655b7301be23585060835e02b77ef475b0cc51aa1e0709610094336100eb565b6001600160601b0319606092831b811660a052911b166080527f2ed0feb3e7fd2022120aa84fab1945545a9f2ffc9076fd6156fa96eaff4c1311601b5567016345785d8a0000601c5542601281905560135561013b565b600080546001600160a01b038381166001600160a01b0319831681178455604051919092169283917f8be0079c531659141344cd1fd0a4f28419497f9722a3daafe3b4186f6b6457e09190a35050565b60805160601c60a05160601c611c32610174600039600081816107160152611729015260008181610b8501526116fa0152611c326000f3fe608060405234801561001057600080fd5b506004361061016c5760003560e01c8063bb760a2a116100cd578063e7e41b2911610081578063f535c8b311610066578063f535c8b3146102d2578063f5b932a1146102da578063ff74c766146102e257600080fd5b8063e7e41b291461029c578063f2fde38b146102bf57600080fd5b8063d0cc4189116100b2578063d0cc41891461025e578063dbdff2c114610271578063dda3dbbf1461027957600080fd5b8063bb760a2a14610242578063cdb115681461024b57600080fd5b8063715018a6116101245780638da5cb5b116101095780638da5cb5b1461020157806394985ddd1461021c578063a97970541461022f57600080fd5b8063715018a6146101e657806389998c07146101ee57600080fd5b806342619f661161015557806342619f66146101c05780634b9f6558146101c95780635542d2fa146101de57600080fd5b8063066f0ad0146101715780633d9934fe1461018d575b600080fd5b61017a60125481565b6040519081526020015b60405180910390f35b6101b061019b3660046118c5565b600e6020526000908152604090205460ff1681565b6040519015158152602001610184565b61017a601d5481565b6101dc6101d73660046118c5565b6102f5565b005b6101dc610385565b6101dc61063d565b6101dc6101fc36600461198f565b6106a3565b6000546040516001600160a01b039091168152602001610184565b6101dc61022a36600461193e565b61070b565b6101dc61023d3660046118c5565b610789565b61017a60135481565b6101dc6102593660046118e1565b610811565b6101dc61026c36600461195f565b610973565b61017a610af9565b6101b06102873660046118c5565b600f6020526000908152604090205460ff1681565b6101b06102aa3660046118c5565b60106020526000908152604090205460ff1681565b6101dc6102cd3660046118c5565b610c8e565b6101dc610d6d565b6101dc611006565b6101dc6102f03660046118c5565b6112ae565b6000546001600160a01b031633146103545760405162461bcd60e51b815260206004820181905260248201527f4f776e61626c653a2063616c6c6572206973206e6f7420746865206f776e657260448201526064015b60405180910390fd5b6001600160a01b0381166000908152600f60205260409020805460ff19166001179055610382600682611332565b50565b601e54601d5414156103d95760405162461bcd60e51b815260206004820152601a60248201527f5570646174652072616e646f6d206e756d626572206669727374000000000000604482015260640161034b565b6006546000906103e7611888565b6000805b60038160ff1610156105df57601d54610410906104089086611530565b600690611543565b6001600160a01b03811660009081526011602052604090205490925062093a809061043c90429061159d565b1061055a5781838260ff166003811061047e577f4e487b7100000000000000000000000000000000000000000000000000000000600052603260045260246000fd5b6001600160a01b0390921660209290920201528061049b81611b47565b601a546018549193506001600160a01b0316915063a9059cbb9084906104c29060036115a9565b6040517fffffffff0000000000000000000000000000000000000000000000000000000060e085901b1681526001600160a01b0390921660048301526024820152604401602060405180830381600087803b15801561052057600080fd5b505af1158015610534573d6000803e3d6000fd5b505050506040513d601f19601f820116820180604052508101906105589190611922565b505b601d5460408051602081019290925242908201527fff0000000000000000000000000000000000000000000000000000000000000060f883901b166060820152606101604080517fffffffffffffffffffffffffffffffffffffffffffffffffffffffffffffffe08184030181529190528051602090910120601d81905594506103eb565b42601355601d54601e5560006018556017547f95e701b505872d7b0debb21a501b9ed868a107b7355349c750b829f43d6dfd9b9084906106209060036115a9565b60405161062e929190611a86565b60405180910390a15050505050565b6000546001600160a01b031633146106975760405162461bcd60e51b815260206004820181905260248201527f4f776e61626c653a2063616c6c6572206973206e6f7420746865206f776e6572604482015260640161034b565b6106a160006115b5565b565b6000546001600160a01b031633146106fd5760405162461bcd60e51b815260206004820181905260248201527f4f776e61626c653a2063616c6c6572206973206e6f7420746865206f776e6572604482015260640161034b565b601492909255601555601655565b336001600160a01b037f000000000000000000000000000000000000000000000000000000000000000016146107835760405162461bcd60e51b815260206004820152601f60248201527f4f6e6c7920565246436f6f7264696e61746f722063616e2066756c66696c6c00604482015260640161034b565b601d5550565b6000546001600160a01b031633146107e35760405162461bcd60e51b815260206004820181905260248201527f4f776e61626c653a2063616c6c6572206973206e6f7420746865206f776e6572604482015260640161034b565b6001600160a01b0381166000908152600e60205260409020805460ff19166001179055610382600282611332565b6000546001600160a01b0316331461086b5760405162461bcd60e51b815260206004820181905260248201527f4f776e61626c653a2063616c6c6572206973206e6f7420746865206f776e6572604482015260640161034b565b60145482106108ab576001600160a01b0383166000908152600e602052604090205460ff161561089a57505050565b6108a66002848461161d565b6108b6565b6108b6600284611332565b60155482106108f6576001600160a01b0383166000908152600f602052604090205460ff16156108e557505050565b6108f16006848461161d565b610901565b610901600684611332565b6016548210610941576001600160a01b03831660009081526010602052604090205460ff161561093057505050565b61093c600a848461161d565b61094c565b61094c600a84611332565b801561096e576001600160a01b03831660009081526011602052604090204290555b505050565b6000546001600160a01b031633146109cd5760405162461bcd60e51b815260206004820181905260248201527f4f776e61626c653a2063616c6c6572206973206e6f7420746865206f776e6572604482015260640161034b565b601a546001600160a01b03166323b872dd6109f06000546001600160a01b031690565b6040517fffffffff0000000000000000000000000000000000000000000000000000000060e084901b1681526001600160a01b03909116600482015230602482015260448101849052606401602060405180830381600087803b158015610a5657600080fd5b505af1158015610a6a573d6000803e3d6000fd5b505050506040513d601f19601f82011682018060405250810190610a8e9190611922565b50610ab2610aa96103e8610aa384607d6116de565b906115a9565b601754906116ea565b601755610ad3610aca6103e8610aa3846102716116de565b601854906116ea565b601855610af3610aea6103e8610aa38460fa6116de565b601954906116ea565b60195550565b600080546001600160a01b03163314610b545760405162461bcd60e51b815260206004820181905260248201527f4f776e61626c653a2063616c6c6572206973206e6f7420746865206f776e6572604482015260640161034b565b601c546040517f70a082310000000000000000000000000000000000000000000000000000000081523060048201527f00000000000000000000000000000000000000000000000000000000000000006001600160a01b0316906370a082319060240160206040518083038186803b158015610bcf57600080fd5b505afa158015610be3573d6000803e3d6000fd5b505050506040513d601f19601f82011682018060405250810190610c079190611977565b1015610c7b5760405162461bcd60e51b815260206004820152602b60248201527f4e6f7420656e6f756768204c494e4b202d2066696c6c20636f6e74726163742060448201527f7769746820666175636574000000000000000000000000000000000000000000606482015260840161034b565b610c89601b54601c546116f6565b905090565b6000546001600160a01b03163314610ce85760405162461bcd60e51b815260206004820181905260248201527f4f776e61626c653a2063616c6c6572206973206e6f7420746865206f776e6572604482015260640161034b565b6001600160a01b038116610d645760405162461bcd60e51b815260206004820152602660248201527f4f776e61626c653a206e6577206f776e657220697320746865207a65726f206160448201527f6464726573730000000000000000000000000000000000000000000000000000606482015260840161034b565b610382816115b5565b6000546001600160a01b03163314610dc75760405162461bcd60e51b815260206004820181905260248201527f4f776e61626c653a2063616c6c6572206973206e6f7420746865206f776e6572604482015260640161034b565b601e54601d541415610e1b5760405162461bcd60e51b815260206004820152601a60248201527f5570646174652072616e646f6d206e756d626572206669727374000000000000604482015260640161034b565b600a5460009081805b60018160ff161015610fb057601d54610e4990610e419085611530565b600a90611543565b6001600160a01b03811660009081526011602052604090205490925062093a8090610e7590429061159d565b10610f2b5780610e8481611b47565b601a546019546040517fa9059cbb0000000000000000000000000000000000000000000000000000000081526001600160a01b038781166004830152602482019290925292945016915063a9059cbb90604401602060405180830381600087803b158015610ef157600080fd5b505af1158015610f05573d6000803e3d6000fd5b505050506040513d601f19601f82011682018060405250810190610f299190611922565b505b601d5460408051602081019290925242908201527fff0000000000000000000000000000000000000000000000000000000000000060f883901b166060820152606101604080517fffffffffffffffffffffffffffffffffffffffffffffffffffffffffffffffe08184030181529190528051602090910120601d8190559350610e24565b601d54601e5560006019819055604080516001600160a01b038516815260208101929092527f332094d2494d28aace8b75bee9107f1299121fa899647dc7f3c99c199e88819a910160405180910390a150505050565b601e54601d54141561105a5760405162461bcd60e51b815260206004820152601a60248201527f5570646174652072616e646f6d206e756d626572206669727374000000000000604482015260640161034b565b6002546000906110686118a6565b6000805b600a8160ff16101561126057601d54611091906110899086611530565b600290611543565b6001600160a01b03811660009081526011602052604090205490925062093a80906110bd90429061159d565b106111db5781838260ff16600a81106110ff577f4e487b7100000000000000000000000000000000000000000000000000000000600052603260045260246000fd5b6001600160a01b0390921660209290920201528061111c81611b47565b601a546017549193506001600160a01b0316915063a9059cbb90849061114390600a6115a9565b6040517fffffffff0000000000000000000000000000000000000000000000000000000060e085901b1681526001600160a01b0390921660048301526024820152604401602060405180830381600087803b1580156111a157600080fd5b505af11580156111b5573d6000803e3d6000fd5b505050506040513d601f19601f820116820180604052508101906111d99190611922565b505b601d5460408051602081019290925242908201527fff0000000000000000000000000000000000000000000000000000000000000060f883901b166060820152606101604080517fffffffffffffffffffffffffffffffffffffffffffffffffffffffffffffffe08184030181529190528051602090910120601d819055945061106c565b42601255601d54601e55600060178190557f52bedb21b2b67bcf8a4b6d2cf58d8fcf8061f5b30a09e7e13cce3dbb039ca1459084906112a090600a6115a9565b60405161062e929190611a43565b6000546001600160a01b031633146113085760405162461bcd60e51b815260206004820181905260248201527f4f776e61626c653a2063616c6c6572206973206e6f7420746865206f776e6572604482015260640161034b565b6001600160a01b0381166000908152601060205260409020805460ff19166001179055610382600a825b6001600160a01b038116600090815260038301602052604090205460ff16611358575050565b6001600160a01b03811660009081526003830160209081526040808320805460ff19169055600180860183528184208490556002860190925282205484549092916113a291611b30565b905060008460000182815481106113e2577f4e487b7100000000000000000000000000000000000000000000000000000000600052603260045260246000fd5b60009182526020808320909101546001600160a01b03908116808452600289019092526040808420879055908716835282209190915585549091508190869085908110611458577f4e487b7100000000000000000000000000000000000000000000000000000000600052603260045260246000fd5b600091825260209091200180547fffffffffffffffffffffffff0000000000000000000000000000000000000000166001600160a01b039290921691909117905584548590806114d1577f4e487b7100000000000000000000000000000000000000000000000000000000600052603160045260246000fd5b60008281526020902081017fffffffffffffffffffffffffffffffffffffffffffffffffffffffffffffffff90810180547fffffffffffffffffffffffff00000000000000000000000000000000000000001690550190555050505050565b600061153c8284611b67565b9392505050565b6000826000018281548110611581577f4e487b7100000000000000000000000000000000000000000000000000000000600052603260045260246000fd5b6000918252602090912001546001600160a01b03169392505050565b600061153c8284611b30565b600061153c8284611adf565b600080546001600160a01b038381167fffffffffffffffffffffffff0000000000000000000000000000000000000000831681178455604051919092169283917f8be0079c531659141344cd1fd0a4f28419497f9722a3daafe3b4186f6b6457e09190a35050565b6001600160a01b038216600090815260038401602052604090205460ff1615611662576001600160a01b03821660009081526001840160205260409020819055505050565b6001600160a01b03821660008181526003850160209081526040808320805460ff19166001908117909155878101835281842086905587546002890184529184208290558101875586835291200180547fffffffffffffffffffffffff0000000000000000000000000000000000000000169091179055505050565b600061153c8284611af3565b600061153c8284611ac7565b60007f00000000000000000000000000000000000000000000000000000000000000006001600160a01b0316634000aea07f000000000000000000000000000000000000000000000000000000000000000084866000604051602001611766929190918252602082015260400190565b6040516020818303038152906040526040518463ffffffff1660e01b8152600401611793939291906119ba565b602060405180830381600087803b1580156117ad57600080fd5b505af11580156117c1573d6000803e3d6000fd5b505050506040513d601f19601f820116820180604052508101906117e59190611922565b50600083815260016020818152604080842054815180840189905280830186905230606082015260808082018390528351808303909101815260a0909101909252815191830191909120938790529082905261184091611ac7565b6000858152600160205260409020556118808482604080516020808201949094528082019290925280518083038201815260609092019052805191012090565b949350505050565b60405180606001604052806003906020820280368337509192915050565b604051806101400160405280600a906020820280368337509192915050565b6000602082840312156118d6578081fd5b813561153c81611bd9565b6000806000606084860312156118f5578182fd5b833561190081611bd9565b925060208401359150604084013561191781611bee565b809150509250925092565b600060208284031215611933578081fd5b815161153c81611bee565b60008060408385031215611950578182fd5b50508035926020909101359150565b600060208284031215611970578081fd5b5035919050565b600060208284031215611988578081fd5b5051919050565b6000806000606084860312156119a3578283fd5b505081359360208301359350604090920135919050565b6001600160a01b0384168152600060208481840152606060408401528351806060850152825b818110156119fc578581018301518582016080015282016119e0565b81811115611a0d5783608083870101525b50601f017fffffffffffffffffffffffffffffffffffffffffffffffffffffffffffffffe0169290920160800195945050505050565b6101608101818460005b600a811015611a755781516001600160a01b0316835260209283019290910190600101611a4d565b505050826101408301529392505050565b60808101818460005b6003811015611ab75781516001600160a01b0316835260209283019290910190600101611a8f565b5050508260608301529392505050565b60008219821115611ada57611ada611b7b565b500190565b600082611aee57611aee611baa565b500490565b6000817fffffffffffffffffffffffffffffffffffffffffffffffffffffffffffffffff0483118215151615611b2b57611b2b611b7b565b500290565b600082821015611b4257611b42611b7b565b500390565b600060ff821660ff811415611b5e57611b5e611b7b565b60010192915050565b600082611b7657611b76611baa565b500690565b7f4e487b7100000000000000000000000000000000000000000000000000000000600052601160045260246000fd5b7f4e487b7100000000000000000000000000000000000000000000000000000000600052601260045260246000fd5b6001600160a01b038116811461038257600080fd5b801515811461038257600080fdfea26469706673582212209b6af83c214eebbf39fca14e64880b8783037b827f62eb2a6821ee99f64df64264736f6c63430008040033",
  "immutableReferences": {
    "73": [
      {
        "length": 32,
        "start": 2949
      },
      {
        "length": 32,
        "start": 5882
      }
    ],
    "75": [
      {
        "length": 32,
        "start": 1814
      },
      {
        "length": 32,
        "start": 5929
      }
    ]
  },
  "source": "// SPDX-License-Identifier: MIT\r\npragma solidity ^0.8.4;\r\n\r\nimport \"@chainlink/contracts/src/v0.8/VRFConsumerBase.sol\";\r\nimport \"@openzeppelin/contracts/access/Ownable.sol\";\r\nimport \"@openzeppelin/contracts/utils/math/SafeMath.sol\";\r\nimport \"../math/IterableMapping.sol\";\r\nimport \"@openzeppelin/contracts/token/ERC20/IERC20.sol\";\r\n\r\ncontract LotteryTracker is Ownable,VRFConsumerBase {\r\n\r\n    using SafeMath for uint256;\r\n    using IterableMapping for IterableMapping.Map;\r\n\r\n    IterableMapping.Map private weeklyHoldersMap;\r\n    IterableMapping.Map private monthlyHoldersMap;\r\n    IterableMapping.Map private ultimateHoldersMap;\r\n\r\n    mapping (address => bool) public excludedFromWeekly;\r\n    mapping (address => bool) public excludedFromMonthly;\r\n    mapping (address => bool) public excludedFromUltimate;\r\n\r\n    mapping(address => uint256) private lastSoldTime; \r\n\r\n    uint256 public lastWeeklyDistributed;\r\n    uint256 public lastMonthlyDistributed;\r\n\r\n    uint256 private minTokenBalForWeekly = 10000 * 10**18;\r\n    uint256 private minTokenBalForMonthly = 20000 * 10**18;\r\n    uint256 private minTokenBalForUltimate = 25000 * 10**18;\r\n\r\n    uint256 weeklyAmount;\r\n    uint256 monthlyAmount;\r\n    uint256 ultimateAmount;\r\n\r\n    IERC20 private BUSD = IERC20(0xE879D7Ba401b0b8c3ec010001fb95dE120242500); //BUSD\r\n\r\n    bytes32 internal keyHash;\r\n    uint256 internal fee;\r\n    \r\n    uint256 public randomResult;\r\n    uint256 private oldResult;\r\n\r\n    event WeeklyLotteryWinners(address[10] winners,uint256 Amount);\r\n    event MonthlyLotteryWinners(address[3] winners,uint256 Amount);\r\n    event UltimateLotteryWinners(address winner,uint256 Amount);\r\n    \r\n    /**\r\n     * Constructor inherits VRFConsumerBase\r\n     * \r\n     * Network: BSC Testnet\r\n     * Chainlink VRF Coordinator address: 0xa555fC018435bef5A13C6c6870a9d4C11DEC329C\r\n     * LINK token address:                0x84b9B910527Ad5C03A9Ca831909E21e236EA7b06\r\n     * Key Hash: 0xcaf3c3727e033261d383b315559476f48034c13b18f8cafed4d871abe5049186\r\n     */\r\n\r\n     //Current : Rinkeby testnet\r\n    constructor() \r\n        VRFConsumerBase(\r\n            0xb3dCcb4Cf7a26f6cf6B120Cf5A73875B7BBc655B, // VRF Coordinator\r\n            0x01BE23585060835E02B77ef475b0Cc51aA1e0709  // LINK Token\r\n        )\r\n    {\r\n        keyHash = 0x2ed0feb3e7fd2022120aa84fab1945545a9f2ffc9076fd6156fa96eaff4c1311;\r\n        fee = 0.1 * 10 ** 18; // 0.1 LINK (Varies by network)\r\n        lastWeeklyDistributed = block.timestamp;\r\n        lastMonthlyDistributed = block.timestamp;\r\n    }\r\n\r\n    function setLottery(uint256 amount) onlyOwner public {\r\n        //Transfers BUSD from token contract\r\n        BUSD.transferFrom(owner(),address(this),amount);\r\n\r\n        //Setup amount for each draws\r\n        weeklyAmount = weeklyAmount.add(amount.mul(125).div(1000));  // 1/8\r\n\r\n        monthlyAmount = monthlyAmount.add(amount.mul(625).div(1000)); // 5/8\r\n\r\n        ultimateAmount = ultimateAmount.add(amount.mul(250).div(1000)); // 2/8\r\n\r\n\r\n    }\r\n\r\n    function getRandomNumber() public onlyOwner returns (bytes32 requestId) {\r\n        require(LINK.balanceOf(address(this)) >= fee, \"Not enough LINK - fill contract with faucet\");\r\n        return requestRandomness(keyHash, fee);\r\n    }\r\n\r\n    /**\r\n     * Callback function used by VRF Coordinator\r\n     */\r\n    function fulfillRandomness(bytes32 requestId, uint256 randomness) internal override {\r\n        randomResult = randomness;\r\n        requestId = 0;\r\n    }\r\n\r\n    function excludeFromWeekly(address account) external onlyOwner {\r\n    \texcludedFromWeekly[account] = true;\r\n\r\n    \tweeklyHoldersMap.remove(account);\r\n\r\n    }\r\n\r\n    function excludeFromMonthly(address account) external onlyOwner {\r\n    \texcludedFromMonthly[account] = true;\r\n\r\n    \tmonthlyHoldersMap.remove(account);\r\n\r\n    }\r\n\r\n    function excludeFromUltimate(address account) external onlyOwner {\r\n    \texcludedFromUltimate[account] = true;\r\n\r\n    \tultimateHoldersMap.remove(account);\r\n\r\n    }\r\n    \r\n    function setMinValues(uint256 weekly, uint256 monthly, uint256 ultimate) external onlyOwner {\r\n        minTokenBalForWeekly = weekly;\r\n        minTokenBalForMonthly = monthly;\r\n        minTokenBalForUltimate = ultimate;\r\n    }\r\n\r\n    function pickWeeklyWinners() public {\r\n        require(randomResult != oldResult,\"Update random number first\");\r\n\r\n        uint256 tempRandom;\r\n        uint256 holderCount = weeklyHoldersMap.keys.length;\r\n        address[10] memory winners;\r\n        address winner;\r\n        uint8 winnerCount = 0;\r\n\r\n        while(winnerCount < 10){\r\n            winner = weeklyHoldersMap.getKeyAtIndex(randomResult.mod(holderCount));\r\n            if(block.timestamp.sub(lastSoldTime[winner]) >= 7 days){\r\n                winners[winnerCount] = winner;\r\n                winnerCount++;\r\n                BUSD.transfer(winner, weeklyAmount.div(10));\r\n            }\r\n            tempRandom = uint(keccak256(abi.encodePacked(randomResult, block.timestamp, winnerCount)));\r\n            randomResult = tempRandom;\r\n        }\r\n\r\n        lastWeeklyDistributed = block.timestamp;\r\n        oldResult = randomResult;\r\n        weeklyAmount = 0;\r\n\r\n        emit WeeklyLotteryWinners(winners,weeklyAmount.div(10));\r\n    }\r\n\r\n    function pickMonthlyWinners() public {\r\n        require(randomResult != oldResult,\"Update random number first\");\r\n\r\n        uint256 tempRandom;\r\n        uint256 holderCount = monthlyHoldersMap.keys.length;\r\n        address[3] memory winners;\r\n        address winner;\r\n        uint8 winnerCount = 0;\r\n\r\n        while(winnerCount < 3){\r\n            winner = monthlyHoldersMap.getKeyAtIndex(randomResult.mod(holderCount));\r\n            if(block.timestamp.sub(lastSoldTime[winner]) >= 7 days){\r\n                winners[winnerCount] = winner;\r\n                winnerCount++;\r\n                BUSD.transfer(winner, monthlyAmount.div(3));\r\n            }\r\n            tempRandom = uint(keccak256(abi.encodePacked(randomResult, block.timestamp, winnerCount)));\r\n            randomResult = tempRandom;\r\n        }\r\n\r\n        lastMonthlyDistributed = block.timestamp;\r\n        oldResult = randomResult;\r\n        monthlyAmount = 0;\r\n\r\n        emit MonthlyLotteryWinners(winners,weeklyAmount.div(3));\r\n        \r\n    }\r\n\r\n    function pickUltimateWinner() public onlyOwner {\r\n        require(randomResult != oldResult,\"Update random number first\");\r\n        uint256 tempRandom;\r\n        uint256 holderCount = ultimateHoldersMap.keys.length;\r\n        address winner;\r\n        uint8 winnerCount;\r\n        \r\n        while(winnerCount < 1){\r\n            winner = ultimateHoldersMap.getKeyAtIndex(randomResult.mod(holderCount));\r\n            if(block.timestamp.sub(lastSoldTime[winner]) >= 7 days){\r\n                winnerCount++;\r\n                BUSD.transfer(winner, ultimateAmount);\r\n            }\r\n            tempRandom = uint(keccak256(abi.encodePacked(randomResult, block.timestamp, winnerCount)));\r\n            randomResult = tempRandom;\r\n        }\r\n        \r\n        oldResult = randomResult;\r\n        ultimateAmount = 0;\r\n\r\n        emit UltimateLotteryWinners(winner,ultimateAmount);\r\n    }\r\n\r\n    function setAccount(address payable account, uint256 newBalance, bool isFrom) external onlyOwner {\r\n\r\n    \tif(newBalance >= minTokenBalForWeekly) {\r\n            if(excludedFromWeekly[account]) {\r\n    \t\t    return;\r\n    \t    }\r\n    \t\tweeklyHoldersMap.set(account, newBalance);\r\n    \t}\r\n    \telse {\r\n    \t\tweeklyHoldersMap.remove(account);\r\n    \t}\r\n\r\n        if(newBalance >= minTokenBalForMonthly) {\r\n            if(excludedFromMonthly[account]) {\r\n    \t\t    return;\r\n    \t    }\r\n    \t\tmonthlyHoldersMap.set(account, newBalance);\r\n    \t}\r\n    \telse {\r\n    \t\tmonthlyHoldersMap.remove(account);\r\n    \t}\r\n\r\n        if(newBalance >= minTokenBalForUltimate) {\r\n            if(excludedFromUltimate[account]) {\r\n    \t\t    return;\r\n    \t    }\r\n    \t\tultimateHoldersMap.set(account, newBalance);\r\n    \t}\r\n    \telse {\r\n    \t\tultimateHoldersMap.remove(account);\r\n    \t}\r\n\r\n        if(isFrom){\r\n            lastSoldTime[account] = block.timestamp;\r\n        }\r\n\r\n    }\r\n\r\n}",
  "sourcePath": "C:\\Users\\aceso\\Desktop\\Contracts\\JEWELS\\contracts\\misc\\LotteryTracker.sol",
  "compiler": {
    "name": "solc",
    "version": "0.8.4+commit.c7e474f2.Emscripten.clang"
  },
  "schemaVersion": "3.4.2",
  "updatedAt": "2021-08-15T10:56:34.634Z",
  "networkType": "ethereum",
  "devdoc": {
    "kind": "dev",
    "methods": {
      "owner()": {
        "details": "Returns the address of the current owner."
      },
      "renounceOwnership()": {
        "details": "Leaves the contract without owner. It will not be possible to call `onlyOwner` functions anymore. Can only be called by the current owner. NOTE: Renouncing ownership will leave the contract without an owner, thereby removing any functionality that is only available to the owner."
      },
      "transferOwnership(address)": {
        "details": "Transfers ownership of the contract to a new account (`newOwner`). Can only be called by the current owner."
      }
    },
    "version": 1
  },
  "userdoc": {
    "kind": "user",
    "methods": {
      "constructor": {
        "notice": "Constructor inherits VRFConsumerBase  Network: BSC Testnet Chainlink VRF Coordinator address: 0xa555fC018435bef5A13C6c6870a9d4C11DEC329C LINK token address:                0x84b9B910527Ad5C03A9Ca831909E21e236EA7b06 Key Hash: 0xcaf3c3727e033261d383b315559476f48034c13b18f8cafed4d871abe5049186"
      }
    },
    "version": 1
  }
}